{
  "_format": "hh-sol-artifact-1",
  "contractName": "LiquidSplitNFT",
  "sourceName": "contracts/LiquidSplitNFT.sol",
  "abi": [
    {
      "inputs": [
        {
          "internalType": "string",
          "name": "_name",
          "type": "string"
        },
        {
          "internalType": "string",
          "name": "_symbol",
          "type": "string"
        }
      ],
      "stateMutability": "nonpayable",
      "type": "constructor"
    },
    {
      "inputs": [],
      "name": "AccessControlBadConfirmation",
      "type": "error"
    },
    {
      "inputs": [
        {
          "internalType": "address",
          "name": "account",
          "type": "address"
        },
        {
          "internalType": "bytes32",
          "name": "neededRole",
          "type": "bytes32"
        }
      ],
      "name": "AccessControlUnauthorizedAccount",
      "type": "error"
    },
    {
      "inputs": [],
      "name": "ECDSAInvalidSignature",
      "type": "error"
    },
    {
      "inputs": [
        {
          "internalType": "uint256",
          "name": "length",
          "type": "uint256"
        }
      ],
      "name": "ECDSAInvalidSignatureLength",
      "type": "error"
    },
    {
      "inputs": [
        {
          "internalType": "bytes32",
          "name": "s",
          "type": "bytes32"
        }
      ],
      "name": "ECDSAInvalidSignatureS",
      "type": "error"
    },
    {
      "inputs": [
        {
          "internalType": "address",
          "name": "sender",
          "type": "address"
        },
        {
          "internalType": "uint256",
          "name": "tokenId",
          "type": "uint256"
        },
        {
          "internalType": "address",
          "name": "owner",
          "type": "address"
        }
      ],
      "name": "ERC721IncorrectOwner",
      "type": "error"
    },
    {
      "inputs": [
        {
          "internalType": "address",
          "name": "operator",
          "type": "address"
        },
        {
          "internalType": "uint256",
          "name": "tokenId",
          "type": "uint256"
        }
      ],
      "name": "ERC721InsufficientApproval",
      "type": "error"
    },
    {
      "inputs": [
        {
          "internalType": "address",
          "name": "approver",
          "type": "address"
        }
      ],
      "name": "ERC721InvalidApprover",
      "type": "error"
    },
    {
      "inputs": [
        {
          "internalType": "address",
          "name": "operator",
          "type": "address"
        }
      ],
      "name": "ERC721InvalidOperator",
      "type": "error"
    },
    {
      "inputs": [
        {
          "internalType": "address",
          "name": "owner",
          "type": "address"
        }
      ],
      "name": "ERC721InvalidOwner",
      "type": "error"
    },
    {
      "inputs": [
        {
          "internalType": "address",
          "name": "receiver",
          "type": "address"
        }
      ],
      "name": "ERC721InvalidReceiver",
      "type": "error"
    },
    {
      "inputs": [
        {
          "internalType": "address",
          "name": "sender",
          "type": "address"
        }
      ],
      "name": "ERC721InvalidSender",
      "type": "error"
    },
    {
      "inputs": [
        {
          "internalType": "uint256",
          "name": "tokenId",
          "type": "uint256"
        }
      ],
      "name": "ERC721NonexistentToken",
      "type": "error"
    },
    {
      "inputs": [],
      "name": "EnforcedPause",
      "type": "error"
    },
    {
      "inputs": [],
      "name": "ExpectedPause",
      "type": "error"
    },
    {
      "inputs": [],
      "name": "InvalidShortString",
      "type": "error"
    },
    {
      "inputs": [],
      "name": "ReentrancyGuardReentrantCall",
      "type": "error"
    },
    {
      "inputs": [
        {
          "internalType": "string",
          "name": "str",
          "type": "string"
        }
      ],
      "name": "StringTooLong",
      "type": "error"
    },
    {
      "anonymous": false,
      "inputs": [
        {
          "indexed": true,
          "internalType": "address",
          "name": "owner",
          "type": "address"
        },
        {
          "indexed": true,
          "internalType": "address",
          "name": "approved",
          "type": "address"
        },
        {
          "indexed": true,
          "internalType": "uint256",
          "name": "tokenId",
          "type": "uint256"
        }
      ],
      "name": "Approval",
      "type": "event"
    },
    {
      "anonymous": false,
      "inputs": [
        {
          "indexed": true,
          "internalType": "address",
          "name": "owner",
          "type": "address"
        },
        {
          "indexed": true,
          "internalType": "address",
          "name": "operator",
          "type": "address"
        },
        {
          "indexed": false,
          "internalType": "bool",
          "name": "approved",
          "type": "bool"
        }
      ],
      "name": "ApprovalForAll",
      "type": "event"
    },
    {
      "anonymous": false,
      "inputs": [
        {
          "indexed": false,
          "internalType": "uint256",
          "name": "_fromTokenId",
          "type": "uint256"
        },
        {
          "indexed": false,
          "internalType": "uint256",
          "name": "_toTokenId",
          "type": "uint256"
        }
      ],
      "name": "BatchMetadataUpdate",
      "type": "event"
    },
    {
      "anonymous": false,
      "inputs": [
        {
          "indexed": false,
          "internalType": "uint256",
          "name": "startTokenId",
          "type": "uint256"
        },
        {
          "indexed": false,
          "internalType": "uint256",
          "name": "count",
          "type": "uint256"
        },
        {
          "indexed": true,
          "internalType": "address",
          "name": "recipient",
          "type": "address"
        }
      ],
      "name": "BatchMinted",
      "type": "event"
    },
    {
      "anonymous": false,
      "inputs": [
        {
          "indexed": true,
          "internalType": "address",
          "name": "admin",
          "type": "address"
        }
      ],
      "name": "ContractPaused",
      "type": "event"
    },
    {
      "anonymous": false,
      "inputs": [
        {
          "indexed": true,
          "internalType": "address",
          "name": "admin",
          "type": "address"
        }
      ],
      "name": "ContractUnpaused",
      "type": "event"
    },
    {
      "anonymous": false,
      "inputs": [],
      "name": "EIP712DomainChanged",
      "type": "event"
    },
    {
      "anonymous": false,
      "inputs": [
        {
          "indexed": false,
          "internalType": "uint256",
          "name": "_tokenId",
          "type": "uint256"
        }
      ],
      "name": "MetadataUpdate",
      "type": "event"
    },
    {
      "anonymous": false,
      "inputs": [
        {
          "indexed": true,
          "internalType": "uint256",
          "name": "tokenId",
          "type": "uint256"
        },
        {
          "indexed": true,
          "internalType": "address",
          "name": "recipient",
          "type": "address"
        },
        {
          "indexed": true,
          "internalType": "uint256",
          "name": "receiptId",
          "type": "uint256"
        },
        {
          "indexed": false,
          "internalType": "string",
          "name": "tokenURI",
          "type": "string"
        }
      ],
      "name": "NFTLazyMinted",
      "type": "event"
    },
    {
      "anonymous": false,
      "inputs": [
        {
          "indexed": false,
          "internalType": "address",
          "name": "account",
          "type": "address"
        }
      ],
      "name": "Paused",
      "type": "event"
    },
    {
      "anonymous": false,
      "inputs": [
        {
          "indexed": true,
          "internalType": "bytes32",
          "name": "role",
          "type": "bytes32"
        },
        {
          "indexed": true,
          "internalType": "bytes32",
          "name": "previousAdminRole",
          "type": "bytes32"
        },
        {
          "indexed": true,
          "internalType": "bytes32",
          "name": "newAdminRole",
          "type": "bytes32"
        }
      ],
      "name": "RoleAdminChanged",
      "type": "event"
    },
    {
      "anonymous": false,
      "inputs": [
        {
          "indexed": true,
          "internalType": "bytes32",
          "name": "role",
          "type": "bytes32"
        },
        {
          "indexed": true,
          "internalType": "address",
          "name": "account",
          "type": "address"
        },
        {
          "indexed": true,
          "internalType": "address",
          "name": "sender",
          "type": "address"
        }
      ],
      "name": "RoleGranted",
      "type": "event"
    },
    {
      "anonymous": false,
      "inputs": [
        {
          "indexed": true,
          "internalType": "bytes32",
          "name": "role",
          "type": "bytes32"
        },
        {
          "indexed": true,
          "internalType": "address",
          "name": "account",
          "type": "address"
        },
        {
          "indexed": true,
          "internalType": "address",
          "name": "sender",
          "type": "address"
        }
      ],
      "name": "RoleRevoked",
      "type": "event"
    },
    {
      "anonymous": false,
      "inputs": [
        {
          "indexed": true,
          "internalType": "address",
          "name": "from",
          "type": "address"
        },
        {
          "indexed": true,
          "internalType": "address",
          "name": "to",
          "type": "address"
        },
        {
          "indexed": true,
          "internalType": "uint256",
          "name": "tokenId",
          "type": "uint256"
        }
      ],
      "name": "Transfer",
      "type": "event"
    },
    {
      "anonymous": false,
      "inputs": [
        {
          "indexed": false,
          "internalType": "address",
          "name": "account",
          "type": "address"
        }
      ],
      "name": "Unpaused",
      "type": "event"
    },
    {
      "inputs": [],
      "name": "ADMIN_ROLE",
      "outputs": [
        {
          "internalType": "bytes32",
          "name": "",
          "type": "bytes32"
        }
      ],
      "stateMutability": "view",
      "type": "function"
    },
    {
      "inputs": [],
      "name": "DEFAULT_ADMIN_ROLE",
      "outputs": [
        {
          "internalType": "bytes32",
          "name": "",
          "type": "bytes32"
        }
      ],
      "stateMutability": "view",
      "type": "function"
    },
    {
      "inputs": [],
      "name": "MINTER_ROLE",
      "outputs": [
        {
          "internalType": "bytes32",
          "name": "",
          "type": "bytes32"
        }
      ],
      "stateMutability": "view",
      "type": "function"
    },
    {
      "inputs": [
        {
          "internalType": "address",
          "name": "to",
          "type": "address"
        },
        {
          "internalType": "uint256",
          "name": "tokenId",
          "type": "uint256"
        }
      ],
      "name": "approve",
      "outputs": [],
      "stateMutability": "nonpayable",
      "type": "function"
    },
    {
      "inputs": [
        {
          "internalType": "address",
          "name": "owner",
          "type": "address"
        }
      ],
      "name": "balanceOf",
      "outputs": [
        {
          "internalType": "uint256",
          "name": "",
          "type": "uint256"
        }
      ],
      "stateMutability": "view",
      "type": "function"
    },
    {
      "inputs": [
        {
          "internalType": "address",
          "name": "recipient",
          "type": "address"
        },
        {
          "internalType": "string[]",
          "name": "uris",
          "type": "string[]"
        },
        {
          "internalType": "uint256[]",
          "name": "receiptIds",
          "type": "uint256[]"
        }
      ],
      "name": "batchMint",
      "outputs": [],
      "stateMutability": "nonpayable",
      "type": "function"
    },
    {
      "inputs": [
        {
          "internalType": "uint256",
          "name": "tokenId",
          "type": "uint256"
        }
      ],
      "name": "burn",
      "outputs": [],
      "stateMutability": "nonpayable",
      "type": "function"
    },
    {
      "inputs": [],
      "name": "eip712Domain",
      "outputs": [
        {
          "internalType": "bytes1",
          "name": "fields",
          "type": "bytes1"
        },
        {
          "internalType": "string",
          "name": "name",
          "type": "string"
        },
        {
          "internalType": "string",
          "name": "version",
          "type": "string"
        },
        {
          "internalType": "uint256",
          "name": "chainId",
          "type": "uint256"
        },
        {
          "internalType": "address",
          "name": "verifyingContract",
          "type": "address"
        },
        {
          "internalType": "bytes32",
          "name": "salt",
          "type": "bytes32"
        },
        {
          "internalType": "uint256[]",
          "name": "extensions",
          "type": "uint256[]"
        }
      ],
      "stateMutability": "view",
      "type": "function"
    },
    {
      "inputs": [
        {
          "internalType": "uint256",
          "name": "tokenId",
          "type": "uint256"
        }
      ],
      "name": "getApproved",
      "outputs": [
        {
          "internalType": "address",
          "name": "",
          "type": "address"
        }
      ],
      "stateMutability": "view",
      "type": "function"
    },
    {
      "inputs": [],
      "name": "getNextTokenId",
      "outputs": [
        {
          "internalType": "uint256",
          "name": "",
          "type": "uint256"
        }
      ],
      "stateMutability": "view",
      "type": "function"
    },
    {
      "inputs": [
        {
          "internalType": "uint256",
          "name": "tokenId",
          "type": "uint256"
        }
      ],
      "name": "getReceiptId",
      "outputs": [
        {
          "internalType": "uint256",
          "name": "",
          "type": "uint256"
        }
      ],
      "stateMutability": "view",
      "type": "function"
    },
    {
      "inputs": [
        {
          "internalType": "bytes32",
          "name": "role",
          "type": "bytes32"
        }
      ],
      "name": "getRoleAdmin",
      "outputs": [
        {
          "internalType": "bytes32",
          "name": "",
          "type": "bytes32"
        }
      ],
      "stateMutability": "view",
      "type": "function"
    },
    {
      "inputs": [
        {
          "internalType": "bytes32",
          "name": "role",
          "type": "bytes32"
        },
        {
          "internalType": "address",
          "name": "account",
          "type": "address"
        }
      ],
      "name": "grantRole",
      "outputs": [],
      "stateMutability": "nonpayable",
      "type": "function"
    },
    {
      "inputs": [
        {
          "internalType": "bytes32",
          "name": "role",
          "type": "bytes32"
        },
        {
          "internalType": "address",
          "name": "account",
          "type": "address"
        }
      ],
      "name": "hasRole",
      "outputs": [
        {
          "internalType": "bool",
          "name": "",
          "type": "bool"
        }
      ],
      "stateMutability": "view",
      "type": "function"
    },
    {
      "inputs": [
        {
          "internalType": "address",
          "name": "owner",
          "type": "address"
        },
        {
          "internalType": "address",
          "name": "operator",
          "type": "address"
        }
      ],
      "name": "isApprovedForAll",
      "outputs": [
        {
          "internalType": "bool",
          "name": "",
          "type": "bool"
        }
      ],
      "stateMutability": "view",
      "type": "function"
    },
    {
      "inputs": [
        {
          "internalType": "uint256",
          "name": "tokenId",
          "type": "uint256"
        }
      ],
      "name": "isMinted",
      "outputs": [
        {
          "internalType": "bool",
          "name": "",
          "type": "bool"
        }
      ],
      "stateMutability": "view",
      "type": "function"
    },
    {
      "inputs": [
        {
          "internalType": "uint256",
          "name": "nonce",
          "type": "uint256"
        }
      ],
      "name": "isNonceUsed",
      "outputs": [
        {
          "internalType": "bool",
          "name": "",
          "type": "bool"
        }
      ],
      "stateMutability": "view",
      "type": "function"
    },
    {
      "inputs": [
        {
          "components": [
            {
              "internalType": "uint256",
              "name": "tokenId",
              "type": "uint256"
            },
            {
              "internalType": "string",
              "name": "uri",
              "type": "string"
            },
            {
              "internalType": "address",
              "name": "recipient",
              "type": "address"
            },
            {
              "internalType": "uint256",
              "name": "receiptId",
              "type": "uint256"
            },
            {
              "internalType": "uint256",
              "name": "nonce",
              "type": "uint256"
            },
            {
              "internalType": "bytes",
              "name": "signature",
              "type": "bytes"
            }
          ],
          "internalType": "struct LiquidSplitNFT.NFTVoucher",
          "name": "voucher",
          "type": "tuple"
        }
      ],
      "name": "lazyMint",
      "outputs": [
        {
          "internalType": "uint256",
          "name": "",
          "type": "uint256"
        }
      ],
      "stateMutability": "nonpayable",
      "type": "function"
    },
    {
      "inputs": [
        {
          "internalType": "address",
          "name": "to",
          "type": "address"
        },
        {
          "internalType": "string",
          "name": "uri",
          "type": "string"
        },
        {
          "internalType": "uint256",
          "name": "receiptId",
          "type": "uint256"
        }
      ],
      "name": "mint",
      "outputs": [
        {
          "internalType": "uint256",
          "name": "",
          "type": "uint256"
        }
      ],
      "stateMutability": "nonpayable",
      "type": "function"
    },
    {
      "inputs": [],
      "name": "name",
      "outputs": [
        {
          "internalType": "string",
          "name": "",
          "type": "string"
        }
      ],
      "stateMutability": "view",
      "type": "function"
    },
    {
      "inputs": [
        {
          "internalType": "uint256",
          "name": "tokenId",
          "type": "uint256"
        }
      ],
      "name": "ownerOf",
      "outputs": [
        {
          "internalType": "address",
          "name": "",
          "type": "address"
        }
      ],
      "stateMutability": "view",
      "type": "function"
    },
    {
      "inputs": [],
      "name": "pause",
      "outputs": [],
      "stateMutability": "nonpayable",
      "type": "function"
    },
    {
      "inputs": [],
      "name": "paused",
      "outputs": [
        {
          "internalType": "bool",
          "name": "",
          "type": "bool"
        }
      ],
      "stateMutability": "view",
      "type": "function"
    },
    {
      "inputs": [
        {
          "internalType": "bytes32",
          "name": "role",
          "type": "bytes32"
        },
        {
          "internalType": "address",
          "name": "callerConfirmation",
          "type": "address"
        }
      ],
      "name": "renounceRole",
      "outputs": [],
      "stateMutability": "nonpayable",
      "type": "function"
    },
    {
      "inputs": [
        {
          "internalType": "bytes32",
          "name": "role",
          "type": "bytes32"
        },
        {
          "internalType": "address",
          "name": "account",
          "type": "address"
        }
      ],
      "name": "revokeRole",
      "outputs": [],
      "stateMutability": "nonpayable",
      "type": "function"
    },
    {
      "inputs": [
        {
          "internalType": "address",
          "name": "from",
          "type": "address"
        },
        {
          "internalType": "address",
          "name": "to",
          "type": "address"
        },
        {
          "internalType": "uint256",
          "name": "tokenId",
          "type": "uint256"
        }
      ],
      "name": "safeTransferFrom",
      "outputs": [],
      "stateMutability": "nonpayable",
      "type": "function"
    },
    {
      "inputs": [
        {
          "internalType": "address",
          "name": "from",
          "type": "address"
        },
        {
          "internalType": "address",
          "name": "to",
          "type": "address"
        },
        {
          "internalType": "uint256",
          "name": "tokenId",
          "type": "uint256"
        },
        {
          "internalType": "bytes",
          "name": "data",
          "type": "bytes"
        }
      ],
      "name": "safeTransferFrom",
      "outputs": [],
      "stateMutability": "nonpayable",
      "type": "function"
    },
    {
      "inputs": [
        {
          "internalType": "address",
          "name": "operator",
          "type": "address"
        },
        {
          "internalType": "bool",
          "name": "approved",
          "type": "bool"
        }
      ],
      "name": "setApprovalForAll",
      "outputs": [],
      "stateMutability": "nonpayable",
      "type": "function"
    },
    {
      "inputs": [
        {
          "internalType": "bytes4",
          "name": "interfaceId",
          "type": "bytes4"
        }
      ],
      "name": "supportsInterface",
      "outputs": [
        {
          "internalType": "bool",
          "name": "",
          "type": "bool"
        }
      ],
      "stateMutability": "view",
      "type": "function"
    },
    {
      "inputs": [],
      "name": "symbol",
      "outputs": [
        {
          "internalType": "string",
          "name": "",
          "type": "string"
        }
      ],
      "stateMutability": "view",
      "type": "function"
    },
    {
      "inputs": [
        {
          "internalType": "uint256",
          "name": "",
          "type": "uint256"
        }
      ],
      "name": "tokenIdToReceiptId",
      "outputs": [
        {
          "internalType": "uint256",
          "name": "",
          "type": "uint256"
        }
      ],
      "stateMutability": "view",
      "type": "function"
    },
    {
      "inputs": [
        {
          "internalType": "uint256",
          "name": "tokenId",
          "type": "uint256"
        }
      ],
      "name": "tokenURI",
      "outputs": [
        {
          "internalType": "string",
          "name": "",
          "type": "string"
        }
      ],
      "stateMutability": "view",
      "type": "function"
    },
    {
      "inputs": [
        {
          "internalType": "address",
          "name": "from",
          "type": "address"
        },
        {
          "internalType": "address",
          "name": "to",
          "type": "address"
        },
        {
          "internalType": "uint256",
          "name": "tokenId",
          "type": "uint256"
        }
      ],
      "name": "transferFrom",
      "outputs": [],
      "stateMutability": "nonpayable",
      "type": "function"
    },
    {
      "inputs": [],
      "name": "unpause",
      "outputs": [],
      "stateMutability": "nonpayable",
      "type": "function"
    }
  ],
  "bytecode": "0x6101606040523480156200001257600080fd5b5060405162002e8338038062002e838339810160408190526200003591620003a4565b6040805180820190915260018152603160f81b60208201528290818360006200005f83826200049d565b5060016200006e82826200049d565b50506001600855506200008382600a620001a0565b610120526200009481600b620001a0565b61014052815160208084019190912060e052815190820120610100524660a0526200012260e05161010051604080517f8b73c3c69bb8fe3d512ecc4cf759cc79239f7b179b0ffacaa9a75d522b39400f60208201529081019290925260608201524660808201523060a082015260009060c00160405160208183030381529060405280519060200120905090565b60805250503060c05262000138600033620001d9565b50620001657fa49807205ce4d355092ef5a8a18f56e8913cf4a201fbe287825b095693c2177533620001d9565b50620001927f9f2df0fed2c77648de5860a4cc508cd0818c85b8b8a1ab4ceeef8d981c8956a633620001d9565b50506001600c5550620005c3565b6000602083511015620001c057620001b8836200028b565b9050620001d3565b81620001cd84826200049d565b5060ff90505b92915050565b60008281526007602090815260408083206001600160a01b038516845290915281205460ff16620002825760008381526007602090815260408083206001600160a01b03861684529091529020805460ff19166001179055620002393390565b6001600160a01b0316826001600160a01b0316847f2f8788117e7eff1d82e926ec794901d17c78024a50270940304540a733656f0d60405160405180910390a4506001620001d3565b506000620001d3565b600080829050601f81511115620002c2578260405163305a27a960e01b8152600401620002b9919062000569565b60405180910390fd5b8051620002cf826200059e565b179392505050565b634e487b7160e01b600052604160045260246000fd5b60005b838110156200030a578181015183820152602001620002f0565b50506000910152565b600082601f8301126200032557600080fd5b81516001600160401b0380821115620003425762000342620002d7565b604051601f8301601f19908116603f011681019082821181831017156200036d576200036d620002d7565b816040528381528660208588010111156200038757600080fd5b6200039a846020830160208901620002ed565b9695505050505050565b60008060408385031215620003b857600080fd5b82516001600160401b0380821115620003d057600080fd5b620003de8683870162000313565b93506020850151915080821115620003f557600080fd5b50620004048582860162000313565b9150509250929050565b600181811c908216806200042357607f821691505b6020821081036200044457634e487b7160e01b600052602260045260246000fd5b50919050565b601f8211156200049857600081815260208120601f850160051c81016020861015620004735750805b601f850160051c820191505b8181101562000494578281556001016200047f565b5050505b505050565b81516001600160401b03811115620004b957620004b9620002d7565b620004d181620004ca84546200040e565b846200044a565b602080601f831160018114620005095760008415620004f05750858301515b600019600386901b1c1916600185901b17855562000494565b600085815260208120601f198616915b828110156200053a5788860151825594840194600190910190840162000519565b5085821015620005595787850151600019600388901b60f8161c191681555b5050505050600190811b01905550565b60208152600082518060208401526200058a816040850160208701620002ed565b601f01601f19169190910160400192915050565b80516020808301519190811015620004445760001960209190910360031b1b16919050565b60805160a05160c05160e0516101005161012051610140516128656200061e60003960006112db015260006112a901526000611d3201526000611d0a01526000611c6501526000611c8f01526000611cb901526128656000f3fe608060405234801561001057600080fd5b50600436106102065760003560e01c806370a082311161011a578063a22cb465116100ad578063caa0f92a1161007c578063caa0f92a14610496578063d53913931461049e578063d547741f146104b3578063e70095a3146104c6578063e985e9c5146104d957600080fd5b8063a22cb4651461044a578063b88d4fde1461045d578063ba7aef4314610470578063c87b56dd1461048357600080fd5b806384b0196e116100e957806384b0196e1461040c57806391d148541461042757806395d89b411461043a578063a217fddf1461044257600080fd5b806370a08231146103b757806375b238fc146103ca578063828edbce146103f15780638456cb591461040457600080fd5b806333c41a901161019d57806342966c681161016c57806342966c68146103505780635c975abb146103635780635d00bb121461036e5780636352211e14610391578063650bcee0146103a457600080fd5b806333c41a90146102ff57806336568abe146103225780633f4ba83a1461033557806342842e0e1461033d57600080fd5b806319ab5b60116101d957806319ab5b601461028857806323b872dd146102b6578063248a9ca3146102c95780632f2ff15d146102ec57600080fd5b806301ffc9a71461020b57806306fdde0314610233578063081812fc14610248578063095ea7b314610273575b600080fd5b61021e61021936600461206e565b6104ec565b60405190151581526020015b60405180910390f35b61023b6104fd565b60405161022a91906120db565b61025b6102563660046120ee565b61058f565b6040516001600160a01b03909116815260200161022a565b61028661028136600461211e565b6105b8565b005b6102a86102963660046120ee565b600f6020526000908152604090205481565b60405190815260200161022a565b6102866102c4366004612148565b6105c7565b6102a86102d73660046120ee565b60009081526007602052604090206001015490565b6102866102fa366004612184565b610657565b61021e61030d3660046120ee565b6000908152600d602052604090205460ff1690565b610286610330366004612184565b61067c565b6102866106b4565b61028661034b366004612148565b610714565b61028661035e3660046120ee565b61072f565b60095460ff1661021e565b61021e61037c3660046120ee565b6000908152600e602052604090205460ff1690565b61025b61039f3660046120ee565b61073b565b6102866103b23660046121fc565b610746565b6102a86103c536600461227d565b610967565b6102a87fa49807205ce4d355092ef5a8a18f56e8913cf4a201fbe287825b095693c2177581565b6102a86103ff3660046120ee565b6109af565b610286610a13565b610414610a73565b60405161022a9796959493929190612298565b61021e610435366004612184565b610ab9565b61023b610ae4565b6102a8600081565b61028661045836600461232e565b610af3565b61028661046b3660046123f6565b610afe565b6102a861047e366004612472565b610b16565b61023b6104913660046120ee565b610c12565b600c546102a8565b6102a860008051602061281083398151915281565b6102866104c1366004612184565b610c1d565b6102a86104d43660046124dd565b610c42565b61021e6104e7366004612518565b610eb9565b60006104f782610ee7565b92915050565b60606000805461050c90612542565b80601f016020809104026020016040519081016040528092919081815260200182805461053890612542565b80156105855780601f1061055a57610100808354040283529160200191610585565b820191906000526020600020905b81548152906001019060200180831161056857829003601f168201915b5050505050905090565b600061059a82610f0c565b506000828152600460205260409020546001600160a01b03166104f7565b6105c3828233610f45565b5050565b6001600160a01b0382166105f657604051633250574960e11b8152600060048201526024015b60405180910390fd5b6000610603838333610f52565b9050836001600160a01b0316816001600160a01b031614610651576040516364283d7b60e01b81526001600160a01b03808616600483015260248201849052821660448201526064016105ed565b50505050565b6000828152600760205260409020600101546106728161104b565b6106518383611058565b6001600160a01b03811633146106a55760405163334bd91960e11b815260040160405180910390fd5b6106af82826110ec565b505050565b7fa49807205ce4d355092ef5a8a18f56e8913cf4a201fbe287825b095693c217756106de8161104b565b6106e6611159565b60405133907f5b65b0c1363b3003db9bcc5e1fd8805a6d6bf5bf6dc9d3431ee4494cd7d1176690600090a250565b6106af83838360405180602001604052806000815250610afe565b6105c360008233610f52565b60006104f782610f0c565b60008051602061281083398151915261075e8161104b565b6107666111ab565b61076e6111d5565b6001600160a01b0386166107945760405162461bcd60e51b81526004016105ed9061257c565b8382146107db5760405162461bcd60e51b8152602060048201526015602482015274082e4e4c2f240d8cadccee8d040dad2e6dac2e8c6d605b1b60448201526064016105ed565b83158015906107eb575060648411155b61082c5760405162461bcd60e51b8152602060048201526012602482015271496e76616c69642062617463682073697a6560701b60448201526064016105ed565b600c5460005b8581101561090f57600c80546000918261084b836125a7565b91905055905061085b89826111fb565b6108bd81898985818110610871576108716125ce565b905060200281019061088391906125e4565b8080601f01602080910402602001604051908101604052809392919081815260200183838082843760009201919091525061121592505050565b8585838181106108cf576108cf6125ce565b6000938452600f602090815260408086209282029490940135909155600d9052509020805460ff1916600117905580610907816125a7565b915050610832565b5060408051828152602081018790526001600160a01b038916917f067fc5297e7400c0311c67165a421b5ef74cb22fa48f3bd73fe52f8187cf9819910160405180910390a25061095f6001600855565b505050505050565b60006001600160a01b038216610993576040516322718ad960e21b8152600060048201526024016105ed565b506001600160a01b031660009081526003602052604090205490565b6000818152600d602052604081205460ff16610a005760405162461bcd60e51b815260206004820152601060248201526f151bdad95b881b9bdd081b5a5b9d195960821b60448201526064016105ed565b506000908152600f602052604090205490565b7fa49807205ce4d355092ef5a8a18f56e8913cf4a201fbe287825b095693c21775610a3d8161104b565b610a45611265565b60405133907f81990fd9a5c552b8e3677917d8a03c07678f0d2cb68f88b634aca2022e9bd19f90600090a250565b600060608060008060006060610a876112a2565b610a8f6112d4565b60408051600080825260208201909252600f60f81b9b939a50919850469750309650945092509050565b60009182526007602090815260408084206001600160a01b0393909316845291905290205460ff1690565b60606001805461050c90612542565b6105c3338383611301565b610b098484846105c7565b61065133858585856113a0565b6000600080516020612810833981519152610b308161104b565b610b386111ab565b610b406111d5565b6001600160a01b038516610b665760405162461bcd60e51b81526004016105ed9061257c565b600c805460009182610b77836125a7565b919050559050610b8786826111fb565b610b918186611215565b6000818152600f60209081526040808320879055600d90915290819020805460ff191660011790555184906001600160a01b0388169083907fec0453641f8a38a2b043366c77bbc44080634e56c393346a911e2df03bbc4da090610bf6908a906120db565b60405180910390a49150610c0a6001600855565b509392505050565b60606104f7826114c9565b600082815260076020526040902060010154610c388161104b565b61065183836110ec565b6000610c4c6111ab565b610c546111d5565b81356000908152600d602052604090205460ff1615610cac5760405162461bcd60e51b8152602060048201526014602482015273151bdad95b88185b1c9958591e481b5a5b9d195960621b60448201526064016105ed565b60808201356000908152600e602052604090205460ff1615610d055760405162461bcd60e51b8152602060048201526012602482015271139bdb98d948185b1c9958591e481d5cd95960721b60448201526064016105ed565b6000610d17606084016040850161227d565b6001600160a01b031603610d3d5760405162461bcd60e51b81526004016105ed9061257c565b6000610d48836115da565b9050610d6260008051602061281083398151915282610ab9565b610dc45760405162461bcd60e51b815260206004820152602d60248201527f496e76616c6964207369676e61747572653a206e6f742066726f6d206175746860448201526c37b934bd32b21036b4b73a32b960991b60648201526084016105ed565b60808301356000908152600e602090815260408083208054600160ff19918216811790925587358552600d9093529281902080549092169092179055610e1b90610e14906060860190860161227d565b84356111fb565b610e2d833561088360208601866125e4565b82356000908152600f602052604090819020606085018035918290559091610e579190860161227d565b6001600160a01b031684357fec0453641f8a38a2b043366c77bbc44080634e56c393346a911e2df03bbc4da0610e9060208801886125e4565b604051610e9e92919061262b565b60405180910390a450508035610eb46001600855565b919050565b6001600160a01b03918216600090815260056020908152604080832093909416825291909152205460ff1690565b60006001600160e01b03198216637965db0b60e01b14806104f757506104f7826116f5565b6000818152600260205260408120546001600160a01b0316806104f757604051637e27328960e01b8152600481018490526024016105ed565b6106af838383600161171a565b6000828152600260205260408120546001600160a01b0390811690831615610f7f57610f7f818486611820565b6001600160a01b03811615610fbd57610f9c60008560008061171a565b6001600160a01b038116600090815260036020526040902080546000190190555b6001600160a01b03851615610fec576001600160a01b0385166000908152600360205260409020805460010190555b60008481526002602052604080822080546001600160a01b0319166001600160a01b0389811691821790925591518793918516917fddf252ad1be2c89b69c2b068fc378daa952ba7f163c4a11628f55a4df523b3ef91a4949350505050565b6110558133611884565b50565b60006110648383610ab9565b6110e45760008381526007602090815260408083206001600160a01b03861684529091529020805460ff1916600117905561109c3390565b6001600160a01b0316826001600160a01b0316847f2f8788117e7eff1d82e926ec794901d17c78024a50270940304540a733656f0d60405160405180910390a45060016104f7565b5060006104f7565b60006110f88383610ab9565b156110e45760008381526007602090815260408083206001600160a01b0386168085529252808320805460ff1916905551339286917ff6391f5c32d9c69d2a47ea670b442974b53935d1edc7fd64eb21e047a839171b9190a45060016104f7565b6111616118bd565b6009805460ff191690557f5db9ee0a495bf2e6ff9c91a7834c1ba4fdd244a5e8aa4e537bd38aeae4b073aa335b6040516001600160a01b03909116815260200160405180910390a1565b6002600854036111ce57604051633ee5aeb560e01b815260040160405180910390fd5b6002600855565b60095460ff16156111f95760405163d93c066560e01b815260040160405180910390fd5b565b6105c38282604051806020016040528060008152506118e0565b600082815260066020526040902061122d82826126a0565b506040518281527ff8e1a15aba9398e019f0b49df1a4fde98ee17ae345cb5f6b5e2c27f5033e8ce79060200160405180910390a15050565b61126d6111d5565b6009805460ff191660011790557f62e78cea01bee320cd4e420270b5ea74000d11b0c9f74754ebdbfc544b05a25861118e3390565b60606112cf7f0000000000000000000000000000000000000000000000000000000000000000600a6118f8565b905090565b60606112cf7f0000000000000000000000000000000000000000000000000000000000000000600b6118f8565b6001600160a01b03821661133357604051630b61174360e31b81526001600160a01b03831660048201526024016105ed565b6001600160a01b03838116600081815260056020908152604080832094871680845294825291829020805460ff191686151590811790915591519182527f17307eab39ab6107e8899845ad3d59bd9653f200f220920489ca2b5937696c31910160405180910390a3505050565b6001600160a01b0383163b156114c257604051630a85bd0160e11b81526001600160a01b0384169063150b7a02906113e2908890889087908790600401612760565b6020604051808303816000875af192505050801561141d575060408051601f3d908101601f1916820190925261141a9181019061279d565b60015b611486573d80801561144b576040519150601f19603f3d011682016040523d82523d6000602084013e611450565b606091505b50805160000361147e57604051633250574960e11b81526001600160a01b03851660048201526024016105ed565b805160208201fd5b6001600160e01b03198116630a85bd0160e11b1461095f57604051633250574960e11b81526001600160a01b03851660048201526024016105ed565b5050505050565b60606114d482610f0c565b50600082815260066020526040812080546114ee90612542565b80601f016020809104026020016040519081016040528092919081815260200182805461151a90612542565b80156115675780601f1061153c57610100808354040283529160200191611567565b820191906000526020600020905b81548152906001019060200180831161154a57829003601f168201915b50505050509050600061158560408051602081019091526000815290565b90508051600003611597575092915050565b8151156115c95780826040516020016115b19291906127ba565b60405160208183030381529060405292505050919050565b6115d2846119a3565b949350505050565b60008061169f7fc98960fe6790bc8277018131e568a0bc15eb0780ecfa7ef13b61efb6fe64b74b843561161060208701876125e4565b60405161161e9291906127e9565b6040518091039020866040016020810190611639919061227d565b8760600135886080013560405160200161168496959493929190958652602086019490945260408501929092526001600160a01b03166060840152608083015260a082015260c00190565b60405160208183030381529060405280519060200120611a17565b90506116ee6116b160a08501856125e4565b8080601f0160208091040260200160405190810160405280939291908181526020018383808284376000920191909152508593925050611a449050565b9392505050565b60006001600160e01b03198216632483248360e11b14806104f757506104f782611a6e565b808061172e57506001600160a01b03821615155b156117f057600061173e84610f0c565b90506001600160a01b0383161580159061176a5750826001600160a01b0316816001600160a01b031614155b801561177d575061177b8184610eb9565b155b156117a65760405163a9fbf51f60e01b81526001600160a01b03841660048201526024016105ed565b81156117ee5783856001600160a01b0316826001600160a01b03167f8c5be1e5ebec7d5bd14f71427d1e84f3dd0314c0f7b2291e5b200ac8c7c3b92560405160405180910390a45b505b5050600090815260046020526040902080546001600160a01b0319166001600160a01b0392909216919091179055565b61182b838383611abe565b6106af576001600160a01b03831661185957604051637e27328960e01b8152600481018290526024016105ed565b60405163177e802f60e01b81526001600160a01b0383166004820152602481018290526044016105ed565b61188e8282610ab9565b6105c35760405163e2517d3f60e01b81526001600160a01b0382166004820152602481018390526044016105ed565b60095460ff166111f957604051638dfc202b60e01b815260040160405180910390fd5b6118ea8383611b21565b6106af3360008585856113a0565b606060ff83146119125761190b83611b86565b90506104f7565b81805461191e90612542565b80601f016020809104026020016040519081016040528092919081815260200182805461194a90612542565b80156119975780601f1061196c57610100808354040283529160200191611997565b820191906000526020600020905b81548152906001019060200180831161197a57829003601f168201915b505050505090506104f7565b60606119ae82610f0c565b5060006119c660408051602081019091526000815290565b905060008151116119e657604051806020016040528060008152506116ee565b806119f084611bc5565b604051602001611a019291906127ba565b6040516020818303038152906040529392505050565b60006104f7611a24611c58565b8360405161190160f01b8152600281019290925260228201526042902090565b600080600080611a548686611d83565b925092509250611a648282611dd0565b5090949350505050565b60006001600160e01b031982166380ac58cd60e01b1480611a9f57506001600160e01b03198216635b5e139f60e01b145b806104f757506301ffc9a760e01b6001600160e01b03198316146104f7565b60006001600160a01b038316158015906115d25750826001600160a01b0316846001600160a01b03161480611af85750611af88484610eb9565b806115d25750506000908152600460205260409020546001600160a01b03908116911614919050565b6001600160a01b038216611b4b57604051633250574960e11b8152600060048201526024016105ed565b6000611b5983836000610f52565b90506001600160a01b038116156106af576040516339e3563760e11b8152600060048201526024016105ed565b60606000611b9383611e89565b604080516020808252818301909252919250600091906020820181803683375050509182525060208101929092525090565b60606000611bd283611eb1565b600101905060008167ffffffffffffffff811115611bf257611bf261236a565b6040519080825280601f01601f191660200182016040528015611c1c576020820181803683370190505b5090508181016020015b600019016f181899199a1a9b1b9c1cb0b131b232b360811b600a86061a8153600a8504945084611c2657509392505050565b6000306001600160a01b037f000000000000000000000000000000000000000000000000000000000000000016148015611cb157507f000000000000000000000000000000000000000000000000000000000000000046145b15611cdb57507f000000000000000000000000000000000000000000000000000000000000000090565b6112cf604080517f8b73c3c69bb8fe3d512ecc4cf759cc79239f7b179b0ffacaa9a75d522b39400f60208201527f0000000000000000000000000000000000000000000000000000000000000000918101919091527f000000000000000000000000000000000000000000000000000000000000000060608201524660808201523060a082015260009060c00160405160208183030381529060405280519060200120905090565b60008060008351604103611dbd5760208401516040850151606086015160001a611daf88828585611f89565b955095509550505050611dc9565b50508151600091506002905b9250925092565b6000826003811115611de457611de46127f9565b03611ded575050565b6001826003811115611e0157611e016127f9565b03611e1f5760405163f645eedf60e01b815260040160405180910390fd5b6002826003811115611e3357611e336127f9565b03611e545760405163fce698f760e01b8152600481018290526024016105ed565b6003826003811115611e6857611e686127f9565b036105c3576040516335e2f38360e21b8152600481018290526024016105ed565b600060ff8216601f8111156104f757604051632cd44ac360e21b815260040160405180910390fd5b60008072184f03e93ff9f4daa797ed6e38ed64bf6a1f0160401b8310611ef05772184f03e93ff9f4daa797ed6e38ed64bf6a1f0160401b830492506040015b6d04ee2d6d415b85acef81000000008310611f1c576d04ee2d6d415b85acef8100000000830492506020015b662386f26fc100008310611f3a57662386f26fc10000830492506010015b6305f5e1008310611f52576305f5e100830492506008015b6127108310611f6657612710830492506004015b60648310611f78576064830492506002015b600a83106104f75760010192915050565b600080807f7fffffffffffffffffffffffffffffff5d576e7357a4501ddfe92f46681b20a0841115611fc4575060009150600390508261204e565b604080516000808252602082018084528a905260ff891692820192909252606081018790526080810186905260019060a0016020604051602081039080840390855afa158015612018573d6000803e3d6000fd5b5050604051601f1901519150506001600160a01b0381166120445750600092506001915082905061204e565b9250600091508190505b9450945094915050565b6001600160e01b03198116811461105557600080fd5b60006020828403121561208057600080fd5b81356116ee81612058565b60005b838110156120a657818101518382015260200161208e565b50506000910152565b600081518084526120c781602086016020860161208b565b601f01601f19169290920160200192915050565b6020815260006116ee60208301846120af565b60006020828403121561210057600080fd5b5035919050565b80356001600160a01b0381168114610eb457600080fd5b6000806040838503121561213157600080fd5b61213a83612107565b946020939093013593505050565b60008060006060848603121561215d57600080fd5b61216684612107565b925061217460208501612107565b9150604084013590509250925092565b6000806040838503121561219757600080fd5b823591506121a760208401612107565b90509250929050565b60008083601f8401126121c257600080fd5b50813567ffffffffffffffff8111156121da57600080fd5b6020830191508360208260051b85010111156121f557600080fd5b9250929050565b60008060008060006060868803121561221457600080fd5b61221d86612107565b9450602086013567ffffffffffffffff8082111561223a57600080fd5b61224689838a016121b0565b9096509450604088013591508082111561225f57600080fd5b5061226c888289016121b0565b969995985093965092949392505050565b60006020828403121561228f57600080fd5b6116ee82612107565b60ff60f81b881681526000602060e0818401526122b860e084018a6120af565b83810360408501526122ca818a6120af565b606085018990526001600160a01b038816608086015260a0850187905284810360c0860152855180825283870192509083019060005b8181101561231c57835183529284019291840191600101612300565b50909c9b505050505050505050505050565b6000806040838503121561234157600080fd5b61234a83612107565b91506020830135801515811461235f57600080fd5b809150509250929050565b634e487b7160e01b600052604160045260246000fd5b600067ffffffffffffffff8084111561239b5761239b61236a565b604051601f8501601f19908116603f011681019082821181831017156123c3576123c361236a565b816040528093508581528686860111156123dc57600080fd5b858560208301376000602087830101525050509392505050565b6000806000806080858703121561240c57600080fd5b61241585612107565b935061242360208601612107565b925060408501359150606085013567ffffffffffffffff81111561244657600080fd5b8501601f8101871361245757600080fd5b61246687823560208401612380565b91505092959194509250565b60008060006060848603121561248757600080fd5b61249084612107565b9250602084013567ffffffffffffffff8111156124ac57600080fd5b8401601f810186136124bd57600080fd5b6124cc86823560208401612380565b925050604084013590509250925092565b6000602082840312156124ef57600080fd5b813567ffffffffffffffff81111561250657600080fd5b820160c081850312156116ee57600080fd5b6000806040838503121561252b57600080fd5b61253483612107565b91506121a760208401612107565b600181811c9082168061255657607f821691505b60208210810361257657634e487b7160e01b600052602260045260246000fd5b50919050565b602080825260119082015270125b9d985b1a59081c9958da5c1a595b9d607a1b604082015260600190565b6000600182016125c757634e487b7160e01b600052601160045260246000fd5b5060010190565b634e487b7160e01b600052603260045260246000fd5b6000808335601e198436030181126125fb57600080fd5b83018035915067ffffffffffffffff82111561261657600080fd5b6020019150368190038213156121f557600080fd5b60208152816020820152818360408301376000818301604090810191909152601f909201601f19160101919050565b601f8211156106af57600081815260208120601f850160051c810160208610156126815750805b601f850160051c820191505b8181101561095f5782815560010161268d565b815167ffffffffffffffff8111156126ba576126ba61236a565b6126ce816126c88454612542565b8461265a565b602080601f83116001811461270357600084156126eb5750858301515b600019600386901b1c1916600185901b17855561095f565b600085815260208120601f198616915b8281101561273257888601518255948401946001909101908401612713565b50858210156127505787850151600019600388901b60f8161c191681555b5050505050600190811b01905550565b6001600160a01b0385811682528416602082015260408101839052608060608201819052600090612793908301846120af565b9695505050505050565b6000602082840312156127af57600080fd5b81516116ee81612058565b600083516127cc81846020880161208b565b8351908301906127e081836020880161208b565b01949350505050565b8183823760009101908152919050565b634e487b7160e01b600052602160045260246000fdfe9f2df0fed2c77648de5860a4cc508cd0818c85b8b8a1ab4ceeef8d981c8956a6a26469706673582212203d49c597a63763ba6c326894aeec9dbeef15a808e5be337b919590013811a63264736f6c63430008140033",
  "linkReferences": {},
  "deployedLinkReferences": {}
}