{"contracts/LiquidSplitNFT.sol":{"LiquidSplitNFT":{"abi":[{"inputs":[{"internalType":"string","name":"_name","type":"string"},{"internalType":"string","name":"_symbol","type":"string"}],"stateMutability":"nonpayable","type":"constructor"},{"inputs":[],"name":"AccessControlBadConfirmation","type":"error"},{"inputs":[{"internalType":"address","name":"account","type":"address"},{"internalType":"bytes32","name":"neededRole","type":"bytes32"}],"name":"AccessControlUnauthorizedAccount","type":"error"},{"inputs":[],"name":"ECDSAInvalidSignature","type":"error"},{"inputs":[{"internalType":"uint256","name":"length","type":"uint256"}],"name":"ECDSAInvalidSignatureLength","type":"error"},{"inputs":[{"internalType":"bytes32","name":"s","type":"bytes32"}],"name":"ECDSAInvalidSignatureS","type":"error"},{"inputs":[{"internalType":"address","name":"sender","type":"address"},{"internalType":"uint256","name":"tokenId","type":"uint256"},{"internalType":"address","name":"owner","type":"address"}],"name":"ERC721IncorrectOwner","type":"error"},{"inputs":[{"internalType":"address","name":"operator","type":"address"},{"internalType":"uint256","name":"tokenId","type":"uint256"}],"name":"ERC721InsufficientApproval","type":"error"},{"inputs":[{"internalType":"address","name":"approver","type":"address"}],"name":"ERC721InvalidApprover","type":"error"},{"inputs":[{"internalType":"address","name":"operator","type":"address"}],"name":"ERC721InvalidOperator","type":"error"},{"inputs":[{"internalType":"address","name":"owner","type":"address"}],"name":"ERC721InvalidOwner","type":"error"},{"inputs":[{"internalType":"address","name":"receiver","type":"address"}],"name":"ERC721InvalidReceiver","type":"error"},{"inputs":[{"internalType":"address","name":"sender","type":"address"}],"name":"ERC721InvalidSender","type":"error"},{"inputs":[{"internalType":"uint256","name":"tokenId","type":"uint256"}],"name":"ERC721NonexistentToken","type":"error"},{"inputs":[],"name":"EnforcedPause","type":"error"},{"inputs":[],"name":"ExpectedPause","type":"error"},{"inputs":[],"name":"InvalidShortString","type":"error"},{"inputs":[],"name":"ReentrancyGuardReentrantCall","type":"error"},{"inputs":[{"internalType":"string","name":"str","type":"string"}],"name":"StringTooLong","type":"error"},{"anonymous":false,"inputs":[{"indexed":true,"internalType":"address","name":"owner","type":"address"},{"indexed":true,"internalType":"address","name":"approved","type":"address"},{"indexed":true,"internalType":"uint256","name":"tokenId","type":"uint256"}],"name":"Approval","type":"event"},{"anonymous":false,"inputs":[{"indexed":true,"internalType":"address","name":"owner","type":"address"},{"indexed":true,"internalType":"address","name":"operator","type":"address"},{"indexed":false,"internalType":"bool","name":"approved","type":"bool"}],"name":"ApprovalForAll","type":"event"},{"anonymous":false,"inputs":[{"indexed":false,"internalType":"uint256","name":"_fromTokenId","type":"uint256"},{"indexed":false,"internalType":"uint256","name":"_toTokenId","type":"uint256"}],"name":"BatchMetadataUpdate","type":"event"},{"anonymous":false,"inputs":[{"indexed":false,"internalType":"uint256","name":"startTokenId","type":"uint256"},{"indexed":false,"internalType":"uint256","name":"count","type":"uint256"},{"indexed":true,"internalType":"address","name":"recipient","type":"address"}],"name":"BatchMinted","type":"event"},{"anonymous":false,"inputs":[{"indexed":true,"internalType":"address","name":"admin","type":"address"}],"name":"ContractPaused","type":"event"},{"anonymous":false,"inputs":[{"indexed":true,"internalType":"address","name":"admin","type":"address"}],"name":"ContractUnpaused","type":"event"},{"anonymous":false,"inputs":[],"name":"EIP712DomainChanged","type":"event"},{"anonymous":false,"inputs":[{"indexed":false,"internalType":"uint256","name":"_tokenId","type":"uint256"}],"name":"MetadataUpdate","type":"event"},{"anonymous":false,"inputs":[{"indexed":true,"internalType":"uint256","name":"tokenId","type":"uint256"},{"indexed":true,"internalType":"address","name":"recipient","type":"address"},{"indexed":true,"internalType":"uint256","name":"receiptId","type":"uint256"},{"indexed":false,"internalType":"string","name":"tokenURI","type":"string"}],"name":"NFTLazyMinted","type":"event"},{"anonymous":false,"inputs":[{"indexed":false,"internalType":"address","name":"account","type":"address"}],"name":"Paused","type":"event"},{"anonymous":false,"inputs":[{"indexed":true,"internalType":"bytes32","name":"role","type":"bytes32"},{"indexed":true,"internalType":"bytes32","name":"previousAdminRole","type":"bytes32"},{"indexed":true,"internalType":"bytes32","name":"newAdminRole","type":"bytes32"}],"name":"RoleAdminChanged","type":"event"},{"anonymous":false,"inputs":[{"indexed":true,"internalType":"bytes32","name":"role","type":"bytes32"},{"indexed":true,"internalType":"address","name":"account","type":"address"},{"indexed":true,"internalType":"address","name":"sender","type":"address"}],"name":"RoleGranted","type":"event"},{"anonymous":false,"inputs":[{"indexed":true,"internalType":"bytes32","name":"role","type":"bytes32"},{"indexed":true,"internalType":"address","name":"account","type":"address"},{"indexed":true,"internalType":"address","name":"sender","type":"address"}],"name":"RoleRevoked","type":"event"},{"anonymous":false,"inputs":[{"indexed":true,"internalType":"address","name":"from","type":"address"},{"indexed":true,"internalType":"address","name":"to","type":"address"},{"indexed":true,"internalType":"uint256","name":"tokenId","type":"uint256"}],"name":"Transfer","type":"event"},{"anonymous":false,"inputs":[{"indexed":false,"internalType":"address","name":"account","type":"address"}],"name":"Unpaused","type":"event"},{"inputs":[],"name":"ADMIN_ROLE","outputs":[{"internalType":"bytes32","name":"","type":"bytes32"}],"stateMutability":"view","type":"function"},{"inputs":[],"name":"DEFAULT_ADMIN_ROLE","outputs":[{"internalType":"bytes32","name":"","type":"bytes32"}],"stateMutability":"view","type":"function"},{"inputs":[],"name":"MINTER_ROLE","outputs":[{"internalType":"bytes32","name":"","type":"bytes32"}],"stateMutability":"view","type":"function"},{"inputs":[{"internalType":"address","name":"to","type":"address"},{"internalType":"uint256","name":"tokenId","type":"uint256"}],"name":"approve","outputs":[],"stateMutability":"nonpayable","type":"function"},{"inputs":[{"internalType":"address","name":"owner","type":"address"}],"name":"balanceOf","outputs":[{"internalType":"uint256","name":"","type":"uint256"}],"stateMutability":"view","type":"function"},{"inputs":[{"internalType":"address","name":"recipient","type":"address"},{"internalType":"string[]","name":"uris","type":"string[]"},{"internalType":"uint256[]","name":"receiptIds","type":"uint256[]"}],"name":"batchMint","outputs":[],"stateMutability":"nonpayable","type":"function"},{"inputs":[{"internalType":"uint256","name":"tokenId","type":"uint256"}],"name":"burn","outputs":[],"stateMutability":"nonpayable","type":"function"},{"inputs":[],"name":"eip712Domain","outputs":[{"internalType":"bytes1","name":"fields","type":"bytes1"},{"internalType":"string","name":"name","type":"string"},{"internalType":"string","name":"version","type":"string"},{"internalType":"uint256","name":"chainId","type":"uint256"},{"internalType":"address","name":"verifyingContract","type":"address"},{"internalType":"bytes32","name":"salt","type":"bytes32"},{"internalType":"uint256[]","name":"extensions","type":"uint256[]"}],"stateMutability":"view","type":"function"},{"inputs":[{"internalType":"uint256","name":"tokenId","type":"uint256"}],"name":"getApproved","outputs":[{"internalType":"address","name":"","type":"address"}],"stateMutability":"view","type":"function"},{"inputs":[],"name":"getNextTokenId","outputs":[{"internalType":"uint256","name":"","type":"uint256"}],"stateMutability":"view","type":"function"},{"inputs":[{"internalType":"uint256","name":"tokenId","type":"uint256"}],"name":"getReceiptId","outputs":[{"internalType":"uint256","name":"","type":"uint256"}],"stateMutability":"view","type":"function"},{"inputs":[{"internalType":"bytes32","name":"role","type":"bytes32"}],"name":"getRoleAdmin","outputs":[{"internalType":"bytes32","name":"","type":"bytes32"}],"stateMutability":"view","type":"function"},{"inputs":[{"internalType":"bytes32","name":"role","type":"bytes32"},{"internalType":"address","name":"account","type":"address"}],"name":"grantRole","outputs":[],"stateMutability":"nonpayable","type":"function"},{"inputs":[{"internalType":"bytes32","name":"role","type":"bytes32"},{"internalType":"address","name":"account","type":"address"}],"name":"hasRole","outputs":[{"internalType":"bool","name":"","type":"bool"}],"stateMutability":"view","type":"function"},{"inputs":[{"internalType":"address","name":"owner","type":"address"},{"internalType":"address","name":"operator","type":"address"}],"name":"isApprovedForAll","outputs":[{"internalType":"bool","name":"","type":"bool"}],"stateMutability":"view","type":"function"},{"inputs":[{"internalType":"uint256","name":"tokenId","type":"uint256"}],"name":"isMinted","outputs":[{"internalType":"bool","name":"","type":"bool"}],"stateMutability":"view","type":"function"},{"inputs":[{"internalType":"uint256","name":"nonce","type":"uint256"}],"name":"isNonceUsed","outputs":[{"internalType":"bool","name":"","type":"bool"}],"stateMutability":"view","type":"function"},{"inputs":[{"components":[{"internalType":"uint256","name":"tokenId","type":"uint256"},{"internalType":"string","name":"uri","type":"string"},{"internalType":"address","name":"recipient","type":"address"},{"internalType":"uint256","name":"receiptId","type":"uint256"},{"internalType":"uint256","name":"nonce","type":"uint256"},{"internalType":"bytes","name":"signature","type":"bytes"}],"internalType":"struct LiquidSplitNFT.NFTVoucher","name":"voucher","type":"tuple"}],"name":"lazyMint","outputs":[{"internalType":"uint256","name":"","type":"uint256"}],"stateMutability":"nonpayable","type":"function"},{"inputs":[{"internalType":"address","name":"to","type":"address"},{"internalType":"string","name":"uri","type":"string"},{"internalType":"uint256","name":"receiptId","type":"uint256"}],"name":"mint","outputs":[{"internalType":"uint256","name":"","type":"uint256"}],"stateMutability":"nonpayable","type":"function"},{"inputs":[],"name":"name","outputs":[{"internalType":"string","name":"","type":"string"}],"stateMutability":"view","type":"function"},{"inputs":[{"internalType":"uint256","name":"tokenId","type":"uint256"}],"name":"ownerOf","outputs":[{"internalType":"address","name":"","type":"address"}],"stateMutability":"view","type":"function"},{"inputs":[],"name":"pause","outputs":[],"stateMutability":"nonpayable","type":"function"},{"inputs":[],"name":"paused","outputs":[{"internalType":"bool","name":"","type":"bool"}],"stateMutability":"view","type":"function"},{"inputs":[{"internalType":"bytes32","name":"role","type":"bytes32"},{"internalType":"address","name":"callerConfirmation","type":"address"}],"name":"renounceRole","outputs":[],"stateMutability":"nonpayable","type":"function"},{"inputs":[{"internalType":"bytes32","name":"role","type":"bytes32"},{"internalType":"address","name":"account","type":"address"}],"name":"revokeRole","outputs":[],"stateMutability":"nonpayable","type":"function"},{"inputs":[{"internalType":"address","name":"from","type":"address"},{"internalType":"address","name":"to","type":"address"},{"internalType":"uint256","name":"tokenId","type":"uint256"}],"name":"safeTransferFrom","outputs":[],"stateMutability":"nonpayable","type":"function"},{"inputs":[{"internalType":"address","name":"from","type":"address"},{"internalType":"address","name":"to","type":"address"},{"internalType":"uint256","name":"tokenId","type":"uint256"},{"internalType":"bytes","name":"data","type":"bytes"}],"name":"safeTransferFrom","outputs":[],"stateMutability":"nonpayable","type":"function"},{"inputs":[{"internalType":"address","name":"operator","type":"address"},{"internalType":"bool","name":"approved","type":"bool"}],"name":"setApprovalForAll","outputs":[],"stateMutability":"nonpayable","type":"function"},{"inputs":[{"internalType":"bytes4","name":"interfaceId","type":"bytes4"}],"name":"supportsInterface","outputs":[{"internalType":"bool","name":"","type":"bool"}],"stateMutability":"view","type":"function"},{"inputs":[],"name":"symbol","outputs":[{"internalType":"string","name":"","type":"string"}],"stateMutability":"view","type":"function"},{"inputs":[{"internalType":"uint256","name":"","type":"uint256"}],"name":"tokenIdToReceiptId","outputs":[{"internalType":"uint256","name":"","type":"uint256"}],"stateMutability":"view","type":"function"},{"inputs":[{"internalType":"uint256","name":"tokenId","type":"uint256"}],"name":"tokenURI","outputs":[{"internalType":"string","name":"","type":"string"}],"stateMutability":"view","type":"function"},{"inputs":[{"internalType":"address","name":"from","type":"address"},{"internalType":"address","name":"to","type":"address"},{"internalType":"uint256","name":"tokenId","type":"uint256"}],"name":"transferFrom","outputs":[],"stateMutability":"nonpayable","type":"function"},{"inputs":[],"name":"unpause","outputs":[],"stateMutability":"nonpayable","type":"function"}],"evm":{"bytecode":{"linkReferences":{},"object":"6101606040523480156200001257600080fd5b5060405162002e8338038062002e838339810160408190526200003591620003a4565b6040805180820190915260018152603160f81b60208201528290818360006200005f83826200049d565b5060016200006e82826200049d565b50506001600855506200008382600a620001a0565b610120526200009481600b620001a0565b61014052815160208084019190912060e052815190820120610100524660a0526200012260e05161010051604080517f8b73c3c69bb8fe3d512ecc4cf759cc79239f7b179b0ffacaa9a75d522b39400f60208201529081019290925260608201524660808201523060a082015260009060c00160405160208183030381529060405280519060200120905090565b60805250503060c05262000138600033620001d9565b50620001657fa49807205ce4d355092ef5a8a18f56e8913cf4a201fbe287825b095693c2177533620001d9565b50620001927f9f2df0fed2c77648de5860a4cc508cd0818c85b8b8a1ab4ceeef8d981c8956a633620001d9565b50506001600c5550620005c3565b6000602083511015620001c057620001b8836200028b565b9050620001d3565b81620001cd84826200049d565b5060ff90505b92915050565b60008281526007602090815260408083206001600160a01b038516845290915281205460ff16620002825760008381526007602090815260408083206001600160a01b03861684529091529020805460ff19166001179055620002393390565b6001600160a01b0316826001600160a01b0316847f2f8788117e7eff1d82e926ec794901d17c78024a50270940304540a733656f0d60405160405180910390a4506001620001d3565b506000620001d3565b600080829050601f81511115620002c2578260405163305a27a960e01b8152600401620002b9919062000569565b60405180910390fd5b8051620002cf826200059e565b179392505050565b634e487b7160e01b600052604160045260246000fd5b60005b838110156200030a578181015183820152602001620002f0565b50506000910152565b600082601f8301126200032557600080fd5b81516001600160401b0380821115620003425762000342620002d7565b604051601f8301601f19908116603f011681019082821181831017156200036d576200036d620002d7565b816040528381528660208588010111156200038757600080fd5b6200039a846020830160208901620002ed565b9695505050505050565b60008060408385031215620003b857600080fd5b82516001600160401b0380821115620003d057600080fd5b620003de8683870162000313565b93506020850151915080821115620003f557600080fd5b50620004048582860162000313565b9150509250929050565b600181811c908216806200042357607f821691505b6020821081036200044457634e487b7160e01b600052602260045260246000fd5b50919050565b601f8211156200049857600081815260208120601f850160051c81016020861015620004735750805b601f850160051c820191505b8181101562000494578281556001016200047f565b5050505b505050565b81516001600160401b03811115620004b957620004b9620002d7565b620004d181620004ca84546200040e565b846200044a565b602080601f831160018114620005095760008415620004f05750858301515b600019600386901b1c1916600185901b17855562000494565b600085815260208120601f198616915b828110156200053a5788860151825594840194600190910190840162000519565b5085821015620005595787850151600019600388901b60f8161c191681555b5050505050600190811b01905550565b60208152600082518060208401526200058a816040850160208701620002ed565b601f01601f19169190910160400192915050565b80516020808301519190811015620004445760001960209190910360031b1b16919050565b60805160a05160c05160e0516101005161012051610140516128656200061e60003960006112db015260006112a901526000611d3201526000611d0a01526000611c6501526000611c8f01526000611cb901526128656000f3fe608060405234801561001057600080fd5b50600436106102065760003560e01c806370a082311161011a578063a22cb465116100ad578063caa0f92a1161007c578063caa0f92a14610496578063d53913931461049e578063d547741f146104b3578063e70095a3146104c6578063e985e9c5146104d957600080fd5b8063a22cb4651461044a578063b88d4fde1461045d578063ba7aef4314610470578063c87b56dd1461048357600080fd5b806384b0196e116100e957806384b0196e1461040c57806391d148541461042757806395d89b411461043a578063a217fddf1461044257600080fd5b806370a08231146103b757806375b238fc146103ca578063828edbce146103f15780638456cb591461040457600080fd5b806333c41a901161019d57806342966c681161016c57806342966c68146103505780635c975abb146103635780635d00bb121461036e5780636352211e14610391578063650bcee0146103a457600080fd5b806333c41a90146102ff57806336568abe146103225780633f4ba83a1461033557806342842e0e1461033d57600080fd5b806319ab5b60116101d957806319ab5b601461028857806323b872dd146102b6578063248a9ca3146102c95780632f2ff15d146102ec57600080fd5b806301ffc9a71461020b57806306fdde0314610233578063081812fc14610248578063095ea7b314610273575b600080fd5b61021e61021936600461206e565b6104ec565b60405190151581526020015b60405180910390f35b61023b6104fd565b60405161022a91906120db565b61025b6102563660046120ee565b61058f565b6040516001600160a01b03909116815260200161022a565b61028661028136600461211e565b6105b8565b005b6102a86102963660046120ee565b600f6020526000908152604090205481565b60405190815260200161022a565b6102866102c4366004612148565b6105c7565b6102a86102d73660046120ee565b60009081526007602052604090206001015490565b6102866102fa366004612184565b610657565b61021e61030d3660046120ee565b6000908152600d602052604090205460ff1690565b610286610330366004612184565b61067c565b6102866106b4565b61028661034b366004612148565b610714565b61028661035e3660046120ee565b61072f565b60095460ff1661021e565b61021e61037c3660046120ee565b6000908152600e602052604090205460ff1690565b61025b61039f3660046120ee565b61073b565b6102866103b23660046121fc565b610746565b6102a86103c536600461227d565b610967565b6102a87fa49807205ce4d355092ef5a8a18f56e8913cf4a201fbe287825b095693c2177581565b6102a86103ff3660046120ee565b6109af565b610286610a13565b610414610a73565b60405161022a9796959493929190612298565b61021e610435366004612184565b610ab9565b61023b610ae4565b6102a8600081565b61028661045836600461232e565b610af3565b61028661046b3660046123f6565b610afe565b6102a861047e366004612472565b610b16565b61023b6104913660046120ee565b610c12565b600c546102a8565b6102a860008051602061281083398151915281565b6102866104c1366004612184565b610c1d565b6102a86104d43660046124dd565b610c42565b61021e6104e7366004612518565b610eb9565b60006104f782610ee7565b92915050565b60606000805461050c90612542565b80601f016020809104026020016040519081016040528092919081815260200182805461053890612542565b80156105855780601f1061055a57610100808354040283529160200191610585565b820191906000526020600020905b81548152906001019060200180831161056857829003601f168201915b5050505050905090565b600061059a82610f0c565b506000828152600460205260409020546001600160a01b03166104f7565b6105c3828233610f45565b5050565b6001600160a01b0382166105f657604051633250574960e11b8152600060048201526024015b60405180910390fd5b6000610603838333610f52565b9050836001600160a01b0316816001600160a01b031614610651576040516364283d7b60e01b81526001600160a01b03808616600483015260248201849052821660448201526064016105ed565b50505050565b6000828152600760205260409020600101546106728161104b565b6106518383611058565b6001600160a01b03811633146106a55760405163334bd91960e11b815260040160405180910390fd5b6106af82826110ec565b505050565b7fa49807205ce4d355092ef5a8a18f56e8913cf4a201fbe287825b095693c217756106de8161104b565b6106e6611159565b60405133907f5b65b0c1363b3003db9bcc5e1fd8805a6d6bf5bf6dc9d3431ee4494cd7d1176690600090a250565b6106af83838360405180602001604052806000815250610afe565b6105c360008233610f52565b60006104f782610f0c565b60008051602061281083398151915261075e8161104b565b6107666111ab565b61076e6111d5565b6001600160a01b0386166107945760405162461bcd60e51b81526004016105ed9061257c565b8382146107db5760405162461bcd60e51b8152602060048201526015602482015274082e4e4c2f240d8cadccee8d040dad2e6dac2e8c6d605b1b60448201526064016105ed565b83158015906107eb575060648411155b61082c5760405162461bcd60e51b8152602060048201526012602482015271496e76616c69642062617463682073697a6560701b60448201526064016105ed565b600c5460005b8581101561090f57600c80546000918261084b836125a7565b91905055905061085b89826111fb565b6108bd81898985818110610871576108716125ce565b905060200281019061088391906125e4565b8080601f01602080910402602001604051908101604052809392919081815260200183838082843760009201919091525061121592505050565b8585838181106108cf576108cf6125ce565b6000938452600f602090815260408086209282029490940135909155600d9052509020805460ff1916600117905580610907816125a7565b915050610832565b5060408051828152602081018790526001600160a01b038916917f067fc5297e7400c0311c67165a421b5ef74cb22fa48f3bd73fe52f8187cf9819910160405180910390a25061095f6001600855565b505050505050565b60006001600160a01b038216610993576040516322718ad960e21b8152600060048201526024016105ed565b506001600160a01b031660009081526003602052604090205490565b6000818152600d602052604081205460ff16610a005760405162461bcd60e51b815260206004820152601060248201526f151bdad95b881b9bdd081b5a5b9d195960821b60448201526064016105ed565b506000908152600f602052604090205490565b7fa49807205ce4d355092ef5a8a18f56e8913cf4a201fbe287825b095693c21775610a3d8161104b565b610a45611265565b60405133907f81990fd9a5c552b8e3677917d8a03c07678f0d2cb68f88b634aca2022e9bd19f90600090a250565b600060608060008060006060610a876112a2565b610a8f6112d4565b60408051600080825260208201909252600f60f81b9b939a50919850469750309650945092509050565b60009182526007602090815260408084206001600160a01b0393909316845291905290205460ff1690565b60606001805461050c90612542565b6105c3338383611301565b610b098484846105c7565b61065133858585856113a0565b6000600080516020612810833981519152610b308161104b565b610b386111ab565b610b406111d5565b6001600160a01b038516610b665760405162461bcd60e51b81526004016105ed9061257c565b600c805460009182610b77836125a7565b919050559050610b8786826111fb565b610b918186611215565b6000818152600f60209081526040808320879055600d90915290819020805460ff191660011790555184906001600160a01b0388169083907fec0453641f8a38a2b043366c77bbc44080634e56c393346a911e2df03bbc4da090610bf6908a906120db565b60405180910390a49150610c0a6001600855565b509392505050565b60606104f7826114c9565b600082815260076020526040902060010154610c388161104b565b61065183836110ec565b6000610c4c6111ab565b610c546111d5565b81356000908152600d602052604090205460ff1615610cac5760405162461bcd60e51b8152602060048201526014602482015273151bdad95b88185b1c9958591e481b5a5b9d195960621b60448201526064016105ed565b60808201356000908152600e602052604090205460ff1615610d055760405162461bcd60e51b8152602060048201526012602482015271139bdb98d948185b1c9958591e481d5cd95960721b60448201526064016105ed565b6000610d17606084016040850161227d565b6001600160a01b031603610d3d5760405162461bcd60e51b81526004016105ed9061257c565b6000610d48836115da565b9050610d6260008051602061281083398151915282610ab9565b610dc45760405162461bcd60e51b815260206004820152602d60248201527f496e76616c6964207369676e61747572653a206e6f742066726f6d206175746860448201526c37b934bd32b21036b4b73a32b960991b60648201526084016105ed565b60808301356000908152600e602090815260408083208054600160ff19918216811790925587358552600d9093529281902080549092169092179055610e1b90610e14906060860190860161227d565b84356111fb565b610e2d833561088360208601866125e4565b82356000908152600f602052604090819020606085018035918290559091610e579190860161227d565b6001600160a01b031684357fec0453641f8a38a2b043366c77bbc44080634e56c393346a911e2df03bbc4da0610e9060208801886125e4565b604051610e9e92919061262b565b60405180910390a450508035610eb46001600855565b919050565b6001600160a01b03918216600090815260056020908152604080832093909416825291909152205460ff1690565b60006001600160e01b03198216637965db0b60e01b14806104f757506104f7826116f5565b6000818152600260205260408120546001600160a01b0316806104f757604051637e27328960e01b8152600481018490526024016105ed565b6106af838383600161171a565b6000828152600260205260408120546001600160a01b0390811690831615610f7f57610f7f818486611820565b6001600160a01b03811615610fbd57610f9c60008560008061171a565b6001600160a01b038116600090815260036020526040902080546000190190555b6001600160a01b03851615610fec576001600160a01b0385166000908152600360205260409020805460010190555b60008481526002602052604080822080546001600160a01b0319166001600160a01b0389811691821790925591518793918516917fddf252ad1be2c89b69c2b068fc378daa952ba7f163c4a11628f55a4df523b3ef91a4949350505050565b6110558133611884565b50565b60006110648383610ab9565b6110e45760008381526007602090815260408083206001600160a01b03861684529091529020805460ff1916600117905561109c3390565b6001600160a01b0316826001600160a01b0316847f2f8788117e7eff1d82e926ec794901d17c78024a50270940304540a733656f0d60405160405180910390a45060016104f7565b5060006104f7565b60006110f88383610ab9565b156110e45760008381526007602090815260408083206001600160a01b0386168085529252808320805460ff1916905551339286917ff6391f5c32d9c69d2a47ea670b442974b53935d1edc7fd64eb21e047a839171b9190a45060016104f7565b6111616118bd565b6009805460ff191690557f5db9ee0a495bf2e6ff9c91a7834c1ba4fdd244a5e8aa4e537bd38aeae4b073aa335b6040516001600160a01b03909116815260200160405180910390a1565b6002600854036111ce57604051633ee5aeb560e01b815260040160405180910390fd5b6002600855565b60095460ff16156111f95760405163d93c066560e01b815260040160405180910390fd5b565b6105c38282604051806020016040528060008152506118e0565b600082815260066020526040902061122d82826126a0565b506040518281527ff8e1a15aba9398e019f0b49df1a4fde98ee17ae345cb5f6b5e2c27f5033e8ce79060200160405180910390a15050565b61126d6111d5565b6009805460ff191660011790557f62e78cea01bee320cd4e420270b5ea74000d11b0c9f74754ebdbfc544b05a25861118e3390565b60606112cf7f0000000000000000000000000000000000000000000000000000000000000000600a6118f8565b905090565b60606112cf7f0000000000000000000000000000000000000000000000000000000000000000600b6118f8565b6001600160a01b03821661133357604051630b61174360e31b81526001600160a01b03831660048201526024016105ed565b6001600160a01b03838116600081815260056020908152604080832094871680845294825291829020805460ff191686151590811790915591519182527f17307eab39ab6107e8899845ad3d59bd9653f200f220920489ca2b5937696c31910160405180910390a3505050565b6001600160a01b0383163b156114c257604051630a85bd0160e11b81526001600160a01b0384169063150b7a02906113e2908890889087908790600401612760565b6020604051808303816000875af192505050801561141d575060408051601f3d908101601f1916820190925261141a9181019061279d565b60015b611486573d80801561144b576040519150601f19603f3d011682016040523d82523d6000602084013e611450565b606091505b50805160000361147e57604051633250574960e11b81526001600160a01b03851660048201526024016105ed565b805160208201fd5b6001600160e01b03198116630a85bd0160e11b1461095f57604051633250574960e11b81526001600160a01b03851660048201526024016105ed565b5050505050565b60606114d482610f0c565b50600082815260066020526040812080546114ee90612542565b80601f016020809104026020016040519081016040528092919081815260200182805461151a90612542565b80156115675780601f1061153c57610100808354040283529160200191611567565b820191906000526020600020905b81548152906001019060200180831161154a57829003601f168201915b50505050509050600061158560408051602081019091526000815290565b90508051600003611597575092915050565b8151156115c95780826040516020016115b19291906127ba565b60405160208183030381529060405292505050919050565b6115d2846119a3565b949350505050565b60008061169f7fc98960fe6790bc8277018131e568a0bc15eb0780ecfa7ef13b61efb6fe64b74b843561161060208701876125e4565b60405161161e9291906127e9565b6040518091039020866040016020810190611639919061227d565b8760600135886080013560405160200161168496959493929190958652602086019490945260408501929092526001600160a01b03166060840152608083015260a082015260c00190565b60405160208183030381529060405280519060200120611a17565b90506116ee6116b160a08501856125e4565b8080601f0160208091040260200160405190810160405280939291908181526020018383808284376000920191909152508593925050611a449050565b9392505050565b60006001600160e01b03198216632483248360e11b14806104f757506104f782611a6e565b808061172e57506001600160a01b03821615155b156117f057600061173e84610f0c565b90506001600160a01b0383161580159061176a5750826001600160a01b0316816001600160a01b031614155b801561177d575061177b8184610eb9565b155b156117a65760405163a9fbf51f60e01b81526001600160a01b03841660048201526024016105ed565b81156117ee5783856001600160a01b0316826001600160a01b03167f8c5be1e5ebec7d5bd14f71427d1e84f3dd0314c0f7b2291e5b200ac8c7c3b92560405160405180910390a45b505b5050600090815260046020526040902080546001600160a01b0319166001600160a01b0392909216919091179055565b61182b838383611abe565b6106af576001600160a01b03831661185957604051637e27328960e01b8152600481018290526024016105ed565b60405163177e802f60e01b81526001600160a01b0383166004820152602481018290526044016105ed565b61188e8282610ab9565b6105c35760405163e2517d3f60e01b81526001600160a01b0382166004820152602481018390526044016105ed565b60095460ff166111f957604051638dfc202b60e01b815260040160405180910390fd5b6118ea8383611b21565b6106af3360008585856113a0565b606060ff83146119125761190b83611b86565b90506104f7565b81805461191e90612542565b80601f016020809104026020016040519081016040528092919081815260200182805461194a90612542565b80156119975780601f1061196c57610100808354040283529160200191611997565b820191906000526020600020905b81548152906001019060200180831161197a57829003601f168201915b505050505090506104f7565b60606119ae82610f0c565b5060006119c660408051602081019091526000815290565b905060008151116119e657604051806020016040528060008152506116ee565b806119f084611bc5565b604051602001611a019291906127ba565b6040516020818303038152906040529392505050565b60006104f7611a24611c58565b8360405161190160f01b8152600281019290925260228201526042902090565b600080600080611a548686611d83565b925092509250611a648282611dd0565b5090949350505050565b60006001600160e01b031982166380ac58cd60e01b1480611a9f57506001600160e01b03198216635b5e139f60e01b145b806104f757506301ffc9a760e01b6001600160e01b03198316146104f7565b60006001600160a01b038316158015906115d25750826001600160a01b0316846001600160a01b03161480611af85750611af88484610eb9565b806115d25750506000908152600460205260409020546001600160a01b03908116911614919050565b6001600160a01b038216611b4b57604051633250574960e11b8152600060048201526024016105ed565b6000611b5983836000610f52565b90506001600160a01b038116156106af576040516339e3563760e11b8152600060048201526024016105ed565b60606000611b9383611e89565b604080516020808252818301909252919250600091906020820181803683375050509182525060208101929092525090565b60606000611bd283611eb1565b600101905060008167ffffffffffffffff811115611bf257611bf261236a565b6040519080825280601f01601f191660200182016040528015611c1c576020820181803683370190505b5090508181016020015b600019016f181899199a1a9b1b9c1cb0b131b232b360811b600a86061a8153600a8504945084611c2657509392505050565b6000306001600160a01b037f000000000000000000000000000000000000000000000000000000000000000016148015611cb157507f000000000000000000000000000000000000000000000000000000000000000046145b15611cdb57507f000000000000000000000000000000000000000000000000000000000000000090565b6112cf604080517f8b73c3c69bb8fe3d512ecc4cf759cc79239f7b179b0ffacaa9a75d522b39400f60208201527f0000000000000000000000000000000000000000000000000000000000000000918101919091527f000000000000000000000000000000000000000000000000000000000000000060608201524660808201523060a082015260009060c00160405160208183030381529060405280519060200120905090565b60008060008351604103611dbd5760208401516040850151606086015160001a611daf88828585611f89565b955095509550505050611dc9565b50508151600091506002905b9250925092565b6000826003811115611de457611de46127f9565b03611ded575050565b6001826003811115611e0157611e016127f9565b03611e1f5760405163f645eedf60e01b815260040160405180910390fd5b6002826003811115611e3357611e336127f9565b03611e545760405163fce698f760e01b8152600481018290526024016105ed565b6003826003811115611e6857611e686127f9565b036105c3576040516335e2f38360e21b8152600481018290526024016105ed565b600060ff8216601f8111156104f757604051632cd44ac360e21b815260040160405180910390fd5b60008072184f03e93ff9f4daa797ed6e38ed64bf6a1f0160401b8310611ef05772184f03e93ff9f4daa797ed6e38ed64bf6a1f0160401b830492506040015b6d04ee2d6d415b85acef81000000008310611f1c576d04ee2d6d415b85acef8100000000830492506020015b662386f26fc100008310611f3a57662386f26fc10000830492506010015b6305f5e1008310611f52576305f5e100830492506008015b6127108310611f6657612710830492506004015b60648310611f78576064830492506002015b600a83106104f75760010192915050565b600080807f7fffffffffffffffffffffffffffffff5d576e7357a4501ddfe92f46681b20a0841115611fc4575060009150600390508261204e565b604080516000808252602082018084528a905260ff891692820192909252606081018790526080810186905260019060a0016020604051602081039080840390855afa158015612018573d6000803e3d6000fd5b5050604051601f1901519150506001600160a01b0381166120445750600092506001915082905061204e565b9250600091508190505b9450945094915050565b6001600160e01b03198116811461105557600080fd5b60006020828403121561208057600080fd5b81356116ee81612058565b60005b838110156120a657818101518382015260200161208e565b50506000910152565b600081518084526120c781602086016020860161208b565b601f01601f19169290920160200192915050565b6020815260006116ee60208301846120af565b60006020828403121561210057600080fd5b5035919050565b80356001600160a01b0381168114610eb457600080fd5b6000806040838503121561213157600080fd5b61213a83612107565b946020939093013593505050565b60008060006060848603121561215d57600080fd5b61216684612107565b925061217460208501612107565b9150604084013590509250925092565b6000806040838503121561219757600080fd5b823591506121a760208401612107565b90509250929050565b60008083601f8401126121c257600080fd5b50813567ffffffffffffffff8111156121da57600080fd5b6020830191508360208260051b85010111156121f557600080fd5b9250929050565b60008060008060006060868803121561221457600080fd5b61221d86612107565b9450602086013567ffffffffffffffff8082111561223a57600080fd5b61224689838a016121b0565b9096509450604088013591508082111561225f57600080fd5b5061226c888289016121b0565b969995985093965092949392505050565b60006020828403121561228f57600080fd5b6116ee82612107565b60ff60f81b881681526000602060e0818401526122b860e084018a6120af565b83810360408501526122ca818a6120af565b606085018990526001600160a01b038816608086015260a0850187905284810360c0860152855180825283870192509083019060005b8181101561231c57835183529284019291840191600101612300565b50909c9b505050505050505050505050565b6000806040838503121561234157600080fd5b61234a83612107565b91506020830135801515811461235f57600080fd5b809150509250929050565b634e487b7160e01b600052604160045260246000fd5b600067ffffffffffffffff8084111561239b5761239b61236a565b604051601f8501601f19908116603f011681019082821181831017156123c3576123c361236a565b816040528093508581528686860111156123dc57600080fd5b858560208301376000602087830101525050509392505050565b6000806000806080858703121561240c57600080fd5b61241585612107565b935061242360208601612107565b925060408501359150606085013567ffffffffffffffff81111561244657600080fd5b8501601f8101871361245757600080fd5b61246687823560208401612380565b91505092959194509250565b60008060006060848603121561248757600080fd5b61249084612107565b9250602084013567ffffffffffffffff8111156124ac57600080fd5b8401601f810186136124bd57600080fd5b6124cc86823560208401612380565b925050604084013590509250925092565b6000602082840312156124ef57600080fd5b813567ffffffffffffffff81111561250657600080fd5b820160c081850312156116ee57600080fd5b6000806040838503121561252b57600080fd5b61253483612107565b91506121a760208401612107565b600181811c9082168061255657607f821691505b60208210810361257657634e487b7160e01b600052602260045260246000fd5b50919050565b602080825260119082015270125b9d985b1a59081c9958da5c1a595b9d607a1b604082015260600190565b6000600182016125c757634e487b7160e01b600052601160045260246000fd5b5060010190565b634e487b7160e01b600052603260045260246000fd5b6000808335601e198436030181126125fb57600080fd5b83018035915067ffffffffffffffff82111561261657600080fd5b6020019150368190038213156121f557600080fd5b60208152816020820152818360408301376000818301604090810191909152601f909201601f19160101919050565b601f8211156106af57600081815260208120601f850160051c810160208610156126815750805b601f850160051c820191505b8181101561095f5782815560010161268d565b815167ffffffffffffffff8111156126ba576126ba61236a565b6126ce816126c88454612542565b8461265a565b602080601f83116001811461270357600084156126eb5750858301515b600019600386901b1c1916600185901b17855561095f565b600085815260208120601f198616915b8281101561273257888601518255948401946001909101908401612713565b50858210156127505787850151600019600388901b60f8161c191681555b5050505050600190811b01905550565b6001600160a01b0385811682528416602082015260408101839052608060608201819052600090612793908301846120af565b9695505050505050565b6000602082840312156127af57600080fd5b81516116ee81612058565b600083516127cc81846020880161208b565b8351908301906127e081836020880161208b565b01949350505050565b8183823760009101908152919050565b634e487b7160e01b600052602160045260246000fdfe9f2df0fed2c77648de5860a4cc508cd0818c85b8b8a1ab4ceeef8d981c8956a6a26469706673582212203d49c597a63763ba6c326894aeec9dbeef15a808e5be337b919590013811a63264736f6c63430008140033","opcodes":"PUSH2 0x160 PUSH1 0x40 MSTORE CALLVALUE DUP1 ISZERO PUSH3 0x12 JUMPI PUSH1 0x0 DUP1 REVERT JUMPDEST POP PUSH1 0x40 MLOAD PUSH3 0x2E83 CODESIZE SUB DUP1 PUSH3 0x2E83 DUP4 CODECOPY DUP2 ADD PUSH1 0x40 DUP2 SWAP1 MSTORE PUSH3 0x35 SWAP2 PUSH3 0x3A4 JUMP JUMPDEST PUSH1 0x40 DUP1 MLOAD DUP1 DUP3 ADD SWAP1 SWAP2 MSTORE PUSH1 0x1 DUP2 MSTORE PUSH1 0x31 PUSH1 0xF8 SHL PUSH1 0x20 DUP3 ADD MSTORE DUP3 SWAP1 DUP2 DUP4 PUSH1 0x0 PUSH3 0x5F DUP4 DUP3 PUSH3 0x49D JUMP JUMPDEST POP PUSH1 0x1 PUSH3 0x6E DUP3 DUP3 PUSH3 0x49D JUMP JUMPDEST POP POP PUSH1 0x1 PUSH1 0x8 SSTORE POP PUSH3 0x83 DUP3 PUSH1 0xA PUSH3 0x1A0 JUMP JUMPDEST PUSH2 0x120 MSTORE PUSH3 0x94 DUP2 PUSH1 0xB PUSH3 0x1A0 JUMP JUMPDEST PUSH2 0x140 MSTORE DUP2 MLOAD PUSH1 0x20 DUP1 DUP5 ADD SWAP2 SWAP1 SWAP2 KECCAK256 PUSH1 0xE0 MSTORE DUP2 MLOAD SWAP1 DUP3 ADD KECCAK256 PUSH2 0x100 MSTORE CHAINID PUSH1 0xA0 MSTORE PUSH3 0x122 PUSH1 0xE0 MLOAD PUSH2 0x100 MLOAD PUSH1 0x40 DUP1 MLOAD PUSH32 0x8B73C3C69BB8FE3D512ECC4CF759CC79239F7B179B0FFACAA9A75D522B39400F PUSH1 0x20 DUP3 ADD MSTORE SWAP1 DUP2 ADD SWAP3 SWAP1 SWAP3 MSTORE PUSH1 0x60 DUP3 ADD MSTORE CHAINID PUSH1 0x80 DUP3 ADD MSTORE ADDRESS PUSH1 0xA0 DUP3 ADD MSTORE PUSH1 0x0 SWAP1 PUSH1 0xC0 ADD PUSH1 0x40 MLOAD PUSH1 0x20 DUP2 DUP4 SUB SUB DUP2 MSTORE SWAP1 PUSH1 0x40 MSTORE DUP1 MLOAD SWAP1 PUSH1 0x20 ADD KECCAK256 SWAP1 POP SWAP1 JUMP JUMPDEST PUSH1 0x80 MSTORE POP POP ADDRESS PUSH1 0xC0 MSTORE PUSH3 0x138 PUSH1 0x0 CALLER PUSH3 0x1D9 JUMP JUMPDEST POP PUSH3 0x165 PUSH32 0xA49807205CE4D355092EF5A8A18F56E8913CF4A201FBE287825B095693C21775 CALLER PUSH3 0x1D9 JUMP JUMPDEST POP PUSH3 0x192 PUSH32 0x9F2DF0FED2C77648DE5860A4CC508CD0818C85B8B8A1AB4CEEEF8D981C8956A6 CALLER PUSH3 0x1D9 JUMP JUMPDEST POP POP PUSH1 0x1 PUSH1 0xC SSTORE POP PUSH3 0x5C3 JUMP JUMPDEST PUSH1 0x0 PUSH1 0x20 DUP4 MLOAD LT ISZERO PUSH3 0x1C0 JUMPI PUSH3 0x1B8 DUP4 PUSH3 0x28B JUMP JUMPDEST SWAP1 POP PUSH3 0x1D3 JUMP JUMPDEST DUP2 PUSH3 0x1CD DUP5 DUP3 PUSH3 0x49D JUMP JUMPDEST POP PUSH1 0xFF SWAP1 POP JUMPDEST SWAP3 SWAP2 POP POP JUMP JUMPDEST PUSH1 0x0 DUP3 DUP2 MSTORE PUSH1 0x7 PUSH1 0x20 SWAP1 DUP2 MSTORE PUSH1 0x40 DUP1 DUP4 KECCAK256 PUSH1 0x1 PUSH1 0x1 PUSH1 0xA0 SHL SUB DUP6 AND DUP5 MSTORE SWAP1 SWAP2 MSTORE DUP2 KECCAK256 SLOAD PUSH1 0xFF AND PUSH3 0x282 JUMPI PUSH1 0x0 DUP4 DUP2 MSTORE PUSH1 0x7 PUSH1 0x20 SWAP1 DUP2 MSTORE PUSH1 0x40 DUP1 DUP4 KECCAK256 PUSH1 0x1 PUSH1 0x1 PUSH1 0xA0 SHL SUB DUP7 AND DUP5 MSTORE SWAP1 SWAP2 MSTORE SWAP1 KECCAK256 DUP1 SLOAD PUSH1 0xFF NOT AND PUSH1 0x1 OR SWAP1 SSTORE PUSH3 0x239 CALLER SWAP1 JUMP JUMPDEST PUSH1 0x1 PUSH1 0x1 PUSH1 0xA0 SHL SUB AND DUP3 PUSH1 0x1 PUSH1 0x1 PUSH1 0xA0 SHL SUB AND DUP5 PUSH32 0x2F8788117E7EFF1D82E926EC794901D17C78024A50270940304540A733656F0D PUSH1 0x40 MLOAD PUSH1 0x40 MLOAD DUP1 SWAP2 SUB SWAP1 LOG4 POP PUSH1 0x1 PUSH3 0x1D3 JUMP JUMPDEST POP PUSH1 0x0 PUSH3 0x1D3 JUMP JUMPDEST PUSH1 0x0 DUP1 DUP3 SWAP1 POP PUSH1 0x1F DUP2 MLOAD GT ISZERO PUSH3 0x2C2 JUMPI DUP3 PUSH1 0x40 MLOAD PUSH4 0x305A27A9 PUSH1 0xE0 SHL DUP2 MSTORE PUSH1 0x4 ADD PUSH3 0x2B9 SWAP2 SWAP1 PUSH3 0x569 JUMP JUMPDEST PUSH1 0x40 MLOAD DUP1 SWAP2 SUB SWAP1 REVERT JUMPDEST DUP1 MLOAD PUSH3 0x2CF DUP3 PUSH3 0x59E JUMP JUMPDEST OR SWAP4 SWAP3 POP POP POP JUMP JUMPDEST PUSH4 0x4E487B71 PUSH1 0xE0 SHL PUSH1 0x0 MSTORE PUSH1 0x41 PUSH1 0x4 MSTORE PUSH1 0x24 PUSH1 0x0 REVERT JUMPDEST PUSH1 0x0 JUMPDEST DUP4 DUP2 LT ISZERO PUSH3 0x30A JUMPI DUP2 DUP2 ADD MLOAD DUP4 DUP3 ADD MSTORE PUSH1 0x20 ADD PUSH3 0x2F0 JUMP JUMPDEST POP POP PUSH1 0x0 SWAP2 ADD MSTORE JUMP JUMPDEST PUSH1 0x0 DUP3 PUSH1 0x1F DUP4 ADD SLT PUSH3 0x325 JUMPI PUSH1 0x0 DUP1 REVERT JUMPDEST DUP2 MLOAD PUSH1 0x1 PUSH1 0x1 PUSH1 0x40 SHL SUB DUP1 DUP3 GT ISZERO PUSH3 0x342 JUMPI PUSH3 0x342 PUSH3 0x2D7 JUMP JUMPDEST PUSH1 0x40 MLOAD PUSH1 0x1F DUP4 ADD PUSH1 0x1F NOT SWAP1 DUP2 AND PUSH1 0x3F ADD AND DUP2 ADD SWAP1 DUP3 DUP3 GT DUP2 DUP4 LT OR ISZERO PUSH3 0x36D JUMPI PUSH3 0x36D PUSH3 0x2D7 JUMP JUMPDEST DUP2 PUSH1 0x40 MSTORE DUP4 DUP2 MSTORE DUP7 PUSH1 0x20 DUP6 DUP9 ADD ADD GT ISZERO PUSH3 0x387 JUMPI PUSH1 0x0 DUP1 REVERT JUMPDEST PUSH3 0x39A DUP5 PUSH1 0x20 DUP4 ADD PUSH1 0x20 DUP10 ADD PUSH3 0x2ED JUMP JUMPDEST SWAP7 SWAP6 POP POP POP POP POP POP JUMP JUMPDEST PUSH1 0x0 DUP1 PUSH1 0x40 DUP4 DUP6 SUB SLT ISZERO PUSH3 0x3B8 JUMPI PUSH1 0x0 DUP1 REVERT JUMPDEST DUP3 MLOAD PUSH1 0x1 PUSH1 0x1 PUSH1 0x40 SHL SUB DUP1 DUP3 GT ISZERO PUSH3 0x3D0 JUMPI PUSH1 0x0 DUP1 REVERT JUMPDEST PUSH3 0x3DE DUP7 DUP4 DUP8 ADD PUSH3 0x313 JUMP JUMPDEST SWAP4 POP PUSH1 0x20 DUP6 ADD MLOAD SWAP2 POP DUP1 DUP3 GT ISZERO PUSH3 0x3F5 JUMPI PUSH1 0x0 DUP1 REVERT JUMPDEST POP PUSH3 0x404 DUP6 DUP3 DUP7 ADD PUSH3 0x313 JUMP JUMPDEST SWAP2 POP POP SWAP3 POP SWAP3 SWAP1 POP JUMP JUMPDEST PUSH1 0x1 DUP2 DUP2 SHR SWAP1 DUP3 AND DUP1 PUSH3 0x423 JUMPI PUSH1 0x7F DUP3 AND SWAP2 POP JUMPDEST PUSH1 0x20 DUP3 LT DUP2 SUB PUSH3 0x444 JUMPI PUSH4 0x4E487B71 PUSH1 0xE0 SHL PUSH1 0x0 MSTORE PUSH1 0x22 PUSH1 0x4 MSTORE PUSH1 0x24 PUSH1 0x0 REVERT JUMPDEST POP SWAP2 SWAP1 POP JUMP JUMPDEST PUSH1 0x1F DUP3 GT ISZERO PUSH3 0x498 JUMPI PUSH1 0x0 DUP2 DUP2 MSTORE PUSH1 0x20 DUP2 KECCAK256 PUSH1 0x1F DUP6 ADD PUSH1 0x5 SHR DUP2 ADD PUSH1 0x20 DUP7 LT ISZERO PUSH3 0x473 JUMPI POP DUP1 JUMPDEST PUSH1 0x1F DUP6 ADD PUSH1 0x5 SHR DUP3 ADD SWAP2 POP JUMPDEST DUP2 DUP2 LT ISZERO PUSH3 0x494 JUMPI DUP3 DUP2 SSTORE PUSH1 0x1 ADD PUSH3 0x47F JUMP JUMPDEST POP POP POP JUMPDEST POP POP POP JUMP JUMPDEST DUP2 MLOAD PUSH1 0x1 PUSH1 0x1 PUSH1 0x40 SHL SUB DUP2 GT ISZERO PUSH3 0x4B9 JUMPI PUSH3 0x4B9 PUSH3 0x2D7 JUMP JUMPDEST PUSH3 0x4D1 DUP2 PUSH3 0x4CA DUP5 SLOAD PUSH3 0x40E JUMP JUMPDEST DUP5 PUSH3 0x44A JUMP JUMPDEST PUSH1 0x20 DUP1 PUSH1 0x1F DUP4 GT PUSH1 0x1 DUP2 EQ PUSH3 0x509 JUMPI PUSH1 0x0 DUP5 ISZERO PUSH3 0x4F0 JUMPI POP DUP6 DUP4 ADD MLOAD JUMPDEST PUSH1 0x0 NOT PUSH1 0x3 DUP7 SWAP1 SHL SHR NOT AND PUSH1 0x1 DUP6 SWAP1 SHL OR DUP6 SSTORE PUSH3 0x494 JUMP JUMPDEST PUSH1 0x0 DUP6 DUP2 MSTORE PUSH1 0x20 DUP2 KECCAK256 PUSH1 0x1F NOT DUP7 AND SWAP2 JUMPDEST DUP3 DUP2 LT ISZERO PUSH3 0x53A JUMPI DUP9 DUP7 ADD MLOAD DUP3 SSTORE SWAP5 DUP5 ADD SWAP5 PUSH1 0x1 SWAP1 SWAP2 ADD SWAP1 DUP5 ADD PUSH3 0x519 JUMP JUMPDEST POP DUP6 DUP3 LT ISZERO PUSH3 0x559 JUMPI DUP8 DUP6 ADD MLOAD PUSH1 0x0 NOT PUSH1 0x3 DUP9 SWAP1 SHL PUSH1 0xF8 AND SHR NOT AND DUP2 SSTORE JUMPDEST POP POP POP POP POP PUSH1 0x1 SWAP1 DUP2 SHL ADD SWAP1 SSTORE POP JUMP JUMPDEST PUSH1 0x20 DUP2 MSTORE PUSH1 0x0 DUP3 MLOAD DUP1 PUSH1 0x20 DUP5 ADD MSTORE PUSH3 0x58A DUP2 PUSH1 0x40 DUP6 ADD PUSH1 0x20 DUP8 ADD PUSH3 0x2ED JUMP JUMPDEST PUSH1 0x1F ADD PUSH1 0x1F NOT AND SWAP2 SWAP1 SWAP2 ADD PUSH1 0x40 ADD SWAP3 SWAP2 POP POP JUMP JUMPDEST DUP1 MLOAD PUSH1 0x20 DUP1 DUP4 ADD MLOAD SWAP2 SWAP1 DUP2 LT ISZERO PUSH3 0x444 JUMPI PUSH1 0x0 NOT PUSH1 0x20 SWAP2 SWAP1 SWAP2 SUB PUSH1 0x3 SHL SHL AND SWAP2 SWAP1 POP JUMP JUMPDEST PUSH1 0x80 MLOAD PUSH1 0xA0 MLOAD PUSH1 0xC0 MLOAD PUSH1 0xE0 MLOAD PUSH2 0x100 MLOAD PUSH2 0x120 MLOAD PUSH2 0x140 MLOAD PUSH2 0x2865 PUSH3 0x61E PUSH1 0x0 CODECOPY PUSH1 0x0 PUSH2 0x12DB ADD MSTORE PUSH1 0x0 PUSH2 0x12A9 ADD MSTORE PUSH1 0x0 PUSH2 0x1D32 ADD MSTORE PUSH1 0x0 PUSH2 0x1D0A ADD MSTORE PUSH1 0x0 PUSH2 0x1C65 ADD MSTORE PUSH1 0x0 PUSH2 0x1C8F ADD MSTORE PUSH1 0x0 PUSH2 0x1CB9 ADD MSTORE PUSH2 0x2865 PUSH1 0x0 RETURN INVALID PUSH1 0x80 PUSH1 0x40 MSTORE CALLVALUE DUP1 ISZERO PUSH2 0x10 JUMPI PUSH1 0x0 DUP1 REVERT JUMPDEST POP PUSH1 0x4 CALLDATASIZE LT PUSH2 0x206 JUMPI PUSH1 0x0 CALLDATALOAD PUSH1 0xE0 SHR DUP1 PUSH4 0x70A08231 GT PUSH2 0x11A JUMPI DUP1 PUSH4 0xA22CB465 GT PUSH2 0xAD JUMPI DUP1 PUSH4 0xCAA0F92A GT PUSH2 0x7C JUMPI DUP1 PUSH4 0xCAA0F92A EQ PUSH2 0x496 JUMPI DUP1 PUSH4 0xD5391393 EQ PUSH2 0x49E JUMPI DUP1 PUSH4 0xD547741F EQ PUSH2 0x4B3 JUMPI DUP1 PUSH4 0xE70095A3 EQ PUSH2 0x4C6 JUMPI DUP1 PUSH4 0xE985E9C5 EQ PUSH2 0x4D9 JUMPI PUSH1 0x0 DUP1 REVERT JUMPDEST DUP1 PUSH4 0xA22CB465 EQ PUSH2 0x44A JUMPI DUP1 PUSH4 0xB88D4FDE EQ PUSH2 0x45D JUMPI DUP1 PUSH4 0xBA7AEF43 EQ PUSH2 0x470 JUMPI DUP1 PUSH4 0xC87B56DD EQ PUSH2 0x483 JUMPI PUSH1 0x0 DUP1 REVERT JUMPDEST DUP1 PUSH4 0x84B0196E GT PUSH2 0xE9 JUMPI DUP1 PUSH4 0x84B0196E EQ PUSH2 0x40C JUMPI DUP1 PUSH4 0x91D14854 EQ PUSH2 0x427 JUMPI DUP1 PUSH4 0x95D89B41 EQ PUSH2 0x43A JUMPI DUP1 PUSH4 0xA217FDDF EQ PUSH2 0x442 JUMPI PUSH1 0x0 DUP1 REVERT JUMPDEST DUP1 PUSH4 0x70A08231 EQ PUSH2 0x3B7 JUMPI DUP1 PUSH4 0x75B238FC EQ PUSH2 0x3CA JUMPI DUP1 PUSH4 0x828EDBCE EQ PUSH2 0x3F1 JUMPI DUP1 PUSH4 0x8456CB59 EQ PUSH2 0x404 JUMPI PUSH1 0x0 DUP1 REVERT JUMPDEST DUP1 PUSH4 0x33C41A90 GT PUSH2 0x19D JUMPI DUP1 PUSH4 0x42966C68 GT PUSH2 0x16C JUMPI DUP1 PUSH4 0x42966C68 EQ PUSH2 0x350 JUMPI DUP1 PUSH4 0x5C975ABB EQ PUSH2 0x363 JUMPI DUP1 PUSH4 0x5D00BB12 EQ PUSH2 0x36E JUMPI DUP1 PUSH4 0x6352211E EQ PUSH2 0x391 JUMPI DUP1 PUSH4 0x650BCEE0 EQ PUSH2 0x3A4 JUMPI PUSH1 0x0 DUP1 REVERT JUMPDEST DUP1 PUSH4 0x33C41A90 EQ PUSH2 0x2FF JUMPI DUP1 PUSH4 0x36568ABE EQ PUSH2 0x322 JUMPI DUP1 PUSH4 0x3F4BA83A EQ PUSH2 0x335 JUMPI DUP1 PUSH4 0x42842E0E EQ PUSH2 0x33D JUMPI PUSH1 0x0 DUP1 REVERT JUMPDEST DUP1 PUSH4 0x19AB5B60 GT PUSH2 0x1D9 JUMPI DUP1 PUSH4 0x19AB5B60 EQ PUSH2 0x288 JUMPI DUP1 PUSH4 0x23B872DD EQ PUSH2 0x2B6 JUMPI DUP1 PUSH4 0x248A9CA3 EQ PUSH2 0x2C9 JUMPI DUP1 PUSH4 0x2F2FF15D EQ PUSH2 0x2EC JUMPI PUSH1 0x0 DUP1 REVERT JUMPDEST DUP1 PUSH4 0x1FFC9A7 EQ PUSH2 0x20B JUMPI DUP1 PUSH4 0x6FDDE03 EQ PUSH2 0x233 JUMPI DUP1 PUSH4 0x81812FC EQ PUSH2 0x248 JUMPI DUP1 PUSH4 0x95EA7B3 EQ PUSH2 0x273 JUMPI JUMPDEST PUSH1 0x0 DUP1 REVERT JUMPDEST PUSH2 0x21E PUSH2 0x219 CALLDATASIZE PUSH1 0x4 PUSH2 0x206E JUMP JUMPDEST PUSH2 0x4EC JUMP JUMPDEST PUSH1 0x40 MLOAD SWAP1 ISZERO ISZERO DUP2 MSTORE PUSH1 0x20 ADD JUMPDEST PUSH1 0x40 MLOAD DUP1 SWAP2 SUB SWAP1 RETURN JUMPDEST PUSH2 0x23B PUSH2 0x4FD JUMP JUMPDEST PUSH1 0x40 MLOAD PUSH2 0x22A SWAP2 SWAP1 PUSH2 0x20DB JUMP JUMPDEST PUSH2 0x25B PUSH2 0x256 CALLDATASIZE PUSH1 0x4 PUSH2 0x20EE JUMP JUMPDEST PUSH2 0x58F JUMP JUMPDEST PUSH1 0x40 MLOAD PUSH1 0x1 PUSH1 0x1 PUSH1 0xA0 SHL SUB SWAP1 SWAP2 AND DUP2 MSTORE PUSH1 0x20 ADD PUSH2 0x22A JUMP JUMPDEST PUSH2 0x286 PUSH2 0x281 CALLDATASIZE PUSH1 0x4 PUSH2 0x211E JUMP JUMPDEST PUSH2 0x5B8 JUMP JUMPDEST STOP JUMPDEST PUSH2 0x2A8 PUSH2 0x296 CALLDATASIZE PUSH1 0x4 PUSH2 0x20EE JUMP JUMPDEST PUSH1 0xF PUSH1 0x20 MSTORE PUSH1 0x0 SWAP1 DUP2 MSTORE PUSH1 0x40 SWAP1 KECCAK256 SLOAD DUP2 JUMP JUMPDEST PUSH1 0x40 MLOAD SWAP1 DUP2 MSTORE PUSH1 0x20 ADD PUSH2 0x22A JUMP JUMPDEST PUSH2 0x286 PUSH2 0x2C4 CALLDATASIZE PUSH1 0x4 PUSH2 0x2148 JUMP JUMPDEST PUSH2 0x5C7 JUMP JUMPDEST PUSH2 0x2A8 PUSH2 0x2D7 CALLDATASIZE PUSH1 0x4 PUSH2 0x20EE JUMP JUMPDEST PUSH1 0x0 SWAP1 DUP2 MSTORE PUSH1 0x7 PUSH1 0x20 MSTORE PUSH1 0x40 SWAP1 KECCAK256 PUSH1 0x1 ADD SLOAD SWAP1 JUMP JUMPDEST PUSH2 0x286 PUSH2 0x2FA CALLDATASIZE PUSH1 0x4 PUSH2 0x2184 JUMP JUMPDEST PUSH2 0x657 JUMP JUMPDEST PUSH2 0x21E PUSH2 0x30D CALLDATASIZE PUSH1 0x4 PUSH2 0x20EE JUMP JUMPDEST PUSH1 0x0 SWAP1 DUP2 MSTORE PUSH1 0xD PUSH1 0x20 MSTORE PUSH1 0x40 SWAP1 KECCAK256 SLOAD PUSH1 0xFF AND SWAP1 JUMP JUMPDEST PUSH2 0x286 PUSH2 0x330 CALLDATASIZE PUSH1 0x4 PUSH2 0x2184 JUMP JUMPDEST PUSH2 0x67C JUMP JUMPDEST PUSH2 0x286 PUSH2 0x6B4 JUMP JUMPDEST PUSH2 0x286 PUSH2 0x34B CALLDATASIZE PUSH1 0x4 PUSH2 0x2148 JUMP JUMPDEST PUSH2 0x714 JUMP JUMPDEST PUSH2 0x286 PUSH2 0x35E CALLDATASIZE PUSH1 0x4 PUSH2 0x20EE JUMP JUMPDEST PUSH2 0x72F JUMP JUMPDEST PUSH1 0x9 SLOAD PUSH1 0xFF AND PUSH2 0x21E JUMP JUMPDEST PUSH2 0x21E PUSH2 0x37C CALLDATASIZE PUSH1 0x4 PUSH2 0x20EE JUMP JUMPDEST PUSH1 0x0 SWAP1 DUP2 MSTORE PUSH1 0xE PUSH1 0x20 MSTORE PUSH1 0x40 SWAP1 KECCAK256 SLOAD PUSH1 0xFF AND SWAP1 JUMP JUMPDEST PUSH2 0x25B PUSH2 0x39F CALLDATASIZE PUSH1 0x4 PUSH2 0x20EE JUMP JUMPDEST PUSH2 0x73B JUMP JUMPDEST PUSH2 0x286 PUSH2 0x3B2 CALLDATASIZE PUSH1 0x4 PUSH2 0x21FC JUMP JUMPDEST PUSH2 0x746 JUMP JUMPDEST PUSH2 0x2A8 PUSH2 0x3C5 CALLDATASIZE PUSH1 0x4 PUSH2 0x227D JUMP JUMPDEST PUSH2 0x967 JUMP JUMPDEST PUSH2 0x2A8 PUSH32 0xA49807205CE4D355092EF5A8A18F56E8913CF4A201FBE287825B095693C21775 DUP2 JUMP JUMPDEST PUSH2 0x2A8 PUSH2 0x3FF CALLDATASIZE PUSH1 0x4 PUSH2 0x20EE JUMP JUMPDEST PUSH2 0x9AF JUMP JUMPDEST PUSH2 0x286 PUSH2 0xA13 JUMP JUMPDEST PUSH2 0x414 PUSH2 0xA73 JUMP JUMPDEST PUSH1 0x40 MLOAD PUSH2 0x22A SWAP8 SWAP7 SWAP6 SWAP5 SWAP4 SWAP3 SWAP2 SWAP1 PUSH2 0x2298 JUMP JUMPDEST PUSH2 0x21E PUSH2 0x435 CALLDATASIZE PUSH1 0x4 PUSH2 0x2184 JUMP JUMPDEST PUSH2 0xAB9 JUMP JUMPDEST PUSH2 0x23B PUSH2 0xAE4 JUMP JUMPDEST PUSH2 0x2A8 PUSH1 0x0 DUP2 JUMP JUMPDEST PUSH2 0x286 PUSH2 0x458 CALLDATASIZE PUSH1 0x4 PUSH2 0x232E JUMP JUMPDEST PUSH2 0xAF3 JUMP JUMPDEST PUSH2 0x286 PUSH2 0x46B CALLDATASIZE PUSH1 0x4 PUSH2 0x23F6 JUMP JUMPDEST PUSH2 0xAFE JUMP JUMPDEST PUSH2 0x2A8 PUSH2 0x47E CALLDATASIZE PUSH1 0x4 PUSH2 0x2472 JUMP JUMPDEST PUSH2 0xB16 JUMP JUMPDEST PUSH2 0x23B PUSH2 0x491 CALLDATASIZE PUSH1 0x4 PUSH2 0x20EE JUMP JUMPDEST PUSH2 0xC12 JUMP JUMPDEST PUSH1 0xC SLOAD PUSH2 0x2A8 JUMP JUMPDEST PUSH2 0x2A8 PUSH1 0x0 DUP1 MLOAD PUSH1 0x20 PUSH2 0x2810 DUP4 CODECOPY DUP2 MLOAD SWAP2 MSTORE DUP2 JUMP JUMPDEST PUSH2 0x286 PUSH2 0x4C1 CALLDATASIZE PUSH1 0x4 PUSH2 0x2184 JUMP JUMPDEST PUSH2 0xC1D JUMP JUMPDEST PUSH2 0x2A8 PUSH2 0x4D4 CALLDATASIZE PUSH1 0x4 PUSH2 0x24DD JUMP JUMPDEST PUSH2 0xC42 JUMP JUMPDEST PUSH2 0x21E PUSH2 0x4E7 CALLDATASIZE PUSH1 0x4 PUSH2 0x2518 JUMP JUMPDEST PUSH2 0xEB9 JUMP JUMPDEST PUSH1 0x0 PUSH2 0x4F7 DUP3 PUSH2 0xEE7 JUMP JUMPDEST SWAP3 SWAP2 POP POP JUMP JUMPDEST PUSH1 0x60 PUSH1 0x0 DUP1 SLOAD PUSH2 0x50C SWAP1 PUSH2 0x2542 JUMP JUMPDEST DUP1 PUSH1 0x1F ADD PUSH1 0x20 DUP1 SWAP2 DIV MUL PUSH1 0x20 ADD PUSH1 0x40 MLOAD SWAP1 DUP2 ADD PUSH1 0x40 MSTORE DUP1 SWAP3 SWAP2 SWAP1 DUP2 DUP2 MSTORE PUSH1 0x20 ADD DUP3 DUP1 SLOAD PUSH2 0x538 SWAP1 PUSH2 0x2542 JUMP JUMPDEST DUP1 ISZERO PUSH2 0x585 JUMPI DUP1 PUSH1 0x1F LT PUSH2 0x55A JUMPI PUSH2 0x100 DUP1 DUP4 SLOAD DIV MUL DUP4 MSTORE SWAP2 PUSH1 0x20 ADD SWAP2 PUSH2 0x585 JUMP JUMPDEST DUP3 ADD SWAP2 SWAP1 PUSH1 0x0 MSTORE PUSH1 0x20 PUSH1 0x0 KECCAK256 SWAP1 JUMPDEST DUP2 SLOAD DUP2 MSTORE SWAP1 PUSH1 0x1 ADD SWAP1 PUSH1 0x20 ADD DUP1 DUP4 GT PUSH2 0x568 JUMPI DUP3 SWAP1 SUB PUSH1 0x1F AND DUP3 ADD SWAP2 JUMPDEST POP POP POP POP POP SWAP1 POP SWAP1 JUMP JUMPDEST PUSH1 0x0 PUSH2 0x59A DUP3 PUSH2 0xF0C JUMP JUMPDEST POP PUSH1 0x0 DUP3 DUP2 MSTORE PUSH1 0x4 PUSH1 0x20 MSTORE PUSH1 0x40 SWAP1 KECCAK256 SLOAD PUSH1 0x1 PUSH1 0x1 PUSH1 0xA0 SHL SUB AND PUSH2 0x4F7 JUMP JUMPDEST PUSH2 0x5C3 DUP3 DUP3 CALLER PUSH2 0xF45 JUMP JUMPDEST POP POP JUMP JUMPDEST PUSH1 0x1 PUSH1 0x1 PUSH1 0xA0 SHL SUB DUP3 AND PUSH2 0x5F6 JUMPI PUSH1 0x40 MLOAD PUSH4 0x32505749 PUSH1 0xE1 SHL DUP2 MSTORE PUSH1 0x0 PUSH1 0x4 DUP3 ADD MSTORE PUSH1 0x24 ADD JUMPDEST PUSH1 0x40 MLOAD DUP1 SWAP2 SUB SWAP1 REVERT JUMPDEST PUSH1 0x0 PUSH2 0x603 DUP4 DUP4 CALLER PUSH2 0xF52 JUMP JUMPDEST SWAP1 POP DUP4 PUSH1 0x1 PUSH1 0x1 PUSH1 0xA0 SHL SUB AND DUP2 PUSH1 0x1 PUSH1 0x1 PUSH1 0xA0 SHL SUB AND EQ PUSH2 0x651 JUMPI PUSH1 0x40 MLOAD PUSH4 0x64283D7B PUSH1 0xE0 SHL DUP2 MSTORE PUSH1 0x1 PUSH1 0x1 PUSH1 0xA0 SHL SUB DUP1 DUP7 AND PUSH1 0x4 DUP4 ADD MSTORE PUSH1 0x24 DUP3 ADD DUP5 SWAP1 MSTORE DUP3 AND PUSH1 0x44 DUP3 ADD MSTORE PUSH1 0x64 ADD PUSH2 0x5ED JUMP JUMPDEST POP POP POP POP JUMP JUMPDEST PUSH1 0x0 DUP3 DUP2 MSTORE PUSH1 0x7 PUSH1 0x20 MSTORE PUSH1 0x40 SWAP1 KECCAK256 PUSH1 0x1 ADD SLOAD PUSH2 0x672 DUP2 PUSH2 0x104B JUMP JUMPDEST PUSH2 0x651 DUP4 DUP4 PUSH2 0x1058 JUMP JUMPDEST PUSH1 0x1 PUSH1 0x1 PUSH1 0xA0 SHL SUB DUP2 AND CALLER EQ PUSH2 0x6A5 JUMPI PUSH1 0x40 MLOAD PUSH4 0x334BD919 PUSH1 0xE1 SHL DUP2 MSTORE PUSH1 0x4 ADD PUSH1 0x40 MLOAD DUP1 SWAP2 SUB SWAP1 REVERT JUMPDEST PUSH2 0x6AF DUP3 DUP3 PUSH2 0x10EC JUMP JUMPDEST POP POP POP JUMP JUMPDEST PUSH32 0xA49807205CE4D355092EF5A8A18F56E8913CF4A201FBE287825B095693C21775 PUSH2 0x6DE DUP2 PUSH2 0x104B JUMP JUMPDEST PUSH2 0x6E6 PUSH2 0x1159 JUMP JUMPDEST PUSH1 0x40 MLOAD CALLER SWAP1 PUSH32 0x5B65B0C1363B3003DB9BCC5E1FD8805A6D6BF5BF6DC9D3431EE4494CD7D11766 SWAP1 PUSH1 0x0 SWAP1 LOG2 POP JUMP JUMPDEST PUSH2 0x6AF DUP4 DUP4 DUP4 PUSH1 0x40 MLOAD DUP1 PUSH1 0x20 ADD PUSH1 0x40 MSTORE DUP1 PUSH1 0x0 DUP2 MSTORE POP PUSH2 0xAFE JUMP JUMPDEST PUSH2 0x5C3 PUSH1 0x0 DUP3 CALLER PUSH2 0xF52 JUMP JUMPDEST PUSH1 0x0 PUSH2 0x4F7 DUP3 PUSH2 0xF0C JUMP JUMPDEST PUSH1 0x0 DUP1 MLOAD PUSH1 0x20 PUSH2 0x2810 DUP4 CODECOPY DUP2 MLOAD SWAP2 MSTORE PUSH2 0x75E DUP2 PUSH2 0x104B JUMP JUMPDEST PUSH2 0x766 PUSH2 0x11AB JUMP JUMPDEST PUSH2 0x76E PUSH2 0x11D5 JUMP JUMPDEST PUSH1 0x1 PUSH1 0x1 PUSH1 0xA0 SHL SUB DUP7 AND PUSH2 0x794 JUMPI PUSH1 0x40 MLOAD PUSH3 0x461BCD PUSH1 0xE5 SHL DUP2 MSTORE PUSH1 0x4 ADD PUSH2 0x5ED SWAP1 PUSH2 0x257C JUMP JUMPDEST DUP4 DUP3 EQ PUSH2 0x7DB JUMPI PUSH1 0x40 MLOAD PUSH3 0x461BCD PUSH1 0xE5 SHL DUP2 MSTORE PUSH1 0x20 PUSH1 0x4 DUP3 ADD MSTORE PUSH1 0x15 PUSH1 0x24 DUP3 ADD MSTORE PUSH21 0x82E4E4C2F240D8CADCCEE8D040DAD2E6DAC2E8C6D PUSH1 0x5B SHL PUSH1 0x44 DUP3 ADD MSTORE PUSH1 0x64 ADD PUSH2 0x5ED JUMP JUMPDEST DUP4 ISZERO DUP1 ISZERO SWAP1 PUSH2 0x7EB JUMPI POP PUSH1 0x64 DUP5 GT ISZERO JUMPDEST PUSH2 0x82C JUMPI PUSH1 0x40 MLOAD PUSH3 0x461BCD PUSH1 0xE5 SHL DUP2 MSTORE PUSH1 0x20 PUSH1 0x4 DUP3 ADD MSTORE PUSH1 0x12 PUSH1 0x24 DUP3 ADD MSTORE PUSH18 0x496E76616C69642062617463682073697A65 PUSH1 0x70 SHL PUSH1 0x44 DUP3 ADD MSTORE PUSH1 0x64 ADD PUSH2 0x5ED JUMP JUMPDEST PUSH1 0xC SLOAD PUSH1 0x0 JUMPDEST DUP6 DUP2 LT ISZERO PUSH2 0x90F JUMPI PUSH1 0xC DUP1 SLOAD PUSH1 0x0 SWAP2 DUP3 PUSH2 0x84B DUP4 PUSH2 0x25A7 JUMP JUMPDEST SWAP2 SWAP1 POP SSTORE SWAP1 POP PUSH2 0x85B DUP10 DUP3 PUSH2 0x11FB JUMP JUMPDEST PUSH2 0x8BD DUP2 DUP10 DUP10 DUP6 DUP2 DUP2 LT PUSH2 0x871 JUMPI PUSH2 0x871 PUSH2 0x25CE JUMP JUMPDEST SWAP1 POP PUSH1 0x20 MUL DUP2 ADD SWAP1 PUSH2 0x883 SWAP2 SWAP1 PUSH2 0x25E4 JUMP JUMPDEST DUP1 DUP1 PUSH1 0x1F ADD PUSH1 0x20 DUP1 SWAP2 DIV MUL PUSH1 0x20 ADD PUSH1 0x40 MLOAD SWAP1 DUP2 ADD PUSH1 0x40 MSTORE DUP1 SWAP4 SWAP3 SWAP2 SWAP1 DUP2 DUP2 MSTORE PUSH1 0x20 ADD DUP4 DUP4 DUP1 DUP3 DUP5 CALLDATACOPY PUSH1 0x0 SWAP3 ADD SWAP2 SWAP1 SWAP2 MSTORE POP PUSH2 0x1215 SWAP3 POP POP POP JUMP JUMPDEST DUP6 DUP6 DUP4 DUP2 DUP2 LT PUSH2 0x8CF JUMPI PUSH2 0x8CF PUSH2 0x25CE JUMP JUMPDEST PUSH1 0x0 SWAP4 DUP5 MSTORE PUSH1 0xF PUSH1 0x20 SWAP1 DUP2 MSTORE PUSH1 0x40 DUP1 DUP7 KECCAK256 SWAP3 DUP3 MUL SWAP5 SWAP1 SWAP5 ADD CALLDATALOAD SWAP1 SWAP2 SSTORE PUSH1 0xD SWAP1 MSTORE POP SWAP1 KECCAK256 DUP1 SLOAD PUSH1 0xFF NOT AND PUSH1 0x1 OR SWAP1 SSTORE DUP1 PUSH2 0x907 DUP2 PUSH2 0x25A7 JUMP JUMPDEST SWAP2 POP POP PUSH2 0x832 JUMP JUMPDEST POP PUSH1 0x40 DUP1 MLOAD DUP3 DUP2 MSTORE PUSH1 0x20 DUP2 ADD DUP8 SWAP1 MSTORE PUSH1 0x1 PUSH1 0x1 PUSH1 0xA0 SHL SUB DUP10 AND SWAP2 PUSH32 0x67FC5297E7400C0311C67165A421B5EF74CB22FA48F3BD73FE52F8187CF9819 SWAP2 ADD PUSH1 0x40 MLOAD DUP1 SWAP2 SUB SWAP1 LOG2 POP PUSH2 0x95F PUSH1 0x1 PUSH1 0x8 SSTORE JUMP JUMPDEST POP POP POP POP POP POP JUMP JUMPDEST PUSH1 0x0 PUSH1 0x1 PUSH1 0x1 PUSH1 0xA0 SHL SUB DUP3 AND PUSH2 0x993 JUMPI PUSH1 0x40 MLOAD PUSH4 0x22718AD9 PUSH1 0xE2 SHL DUP2 MSTORE PUSH1 0x0 PUSH1 0x4 DUP3 ADD MSTORE PUSH1 0x24 ADD PUSH2 0x5ED JUMP JUMPDEST POP PUSH1 0x1 PUSH1 0x1 PUSH1 0xA0 SHL SUB AND PUSH1 0x0 SWAP1 DUP2 MSTORE PUSH1 0x3 PUSH1 0x20 MSTORE PUSH1 0x40 SWAP1 KECCAK256 SLOAD SWAP1 JUMP JUMPDEST PUSH1 0x0 DUP2 DUP2 MSTORE PUSH1 0xD PUSH1 0x20 MSTORE PUSH1 0x40 DUP2 KECCAK256 SLOAD PUSH1 0xFF AND PUSH2 0xA00 JUMPI PUSH1 0x40 MLOAD PUSH3 0x461BCD PUSH1 0xE5 SHL DUP2 MSTORE PUSH1 0x20 PUSH1 0x4 DUP3 ADD MSTORE PUSH1 0x10 PUSH1 0x24 DUP3 ADD MSTORE PUSH16 0x151BDAD95B881B9BDD081B5A5B9D1959 PUSH1 0x82 SHL PUSH1 0x44 DUP3 ADD MSTORE PUSH1 0x64 ADD PUSH2 0x5ED JUMP JUMPDEST POP PUSH1 0x0 SWAP1 DUP2 MSTORE PUSH1 0xF PUSH1 0x20 MSTORE PUSH1 0x40 SWAP1 KECCAK256 SLOAD SWAP1 JUMP JUMPDEST PUSH32 0xA49807205CE4D355092EF5A8A18F56E8913CF4A201FBE287825B095693C21775 PUSH2 0xA3D DUP2 PUSH2 0x104B JUMP JUMPDEST PUSH2 0xA45 PUSH2 0x1265 JUMP JUMPDEST PUSH1 0x40 MLOAD CALLER SWAP1 PUSH32 0x81990FD9A5C552B8E3677917D8A03C07678F0D2CB68F88B634ACA2022E9BD19F SWAP1 PUSH1 0x0 SWAP1 LOG2 POP JUMP JUMPDEST PUSH1 0x0 PUSH1 0x60 DUP1 PUSH1 0x0 DUP1 PUSH1 0x0 PUSH1 0x60 PUSH2 0xA87 PUSH2 0x12A2 JUMP JUMPDEST PUSH2 0xA8F PUSH2 0x12D4 JUMP JUMPDEST PUSH1 0x40 DUP1 MLOAD PUSH1 0x0 DUP1 DUP3 MSTORE PUSH1 0x20 DUP3 ADD SWAP1 SWAP3 MSTORE PUSH1 0xF PUSH1 0xF8 SHL SWAP12 SWAP4 SWAP11 POP SWAP2 SWAP9 POP CHAINID SWAP8 POP ADDRESS SWAP7 POP SWAP5 POP SWAP3 POP SWAP1 POP JUMP JUMPDEST PUSH1 0x0 SWAP2 DUP3 MSTORE PUSH1 0x7 PUSH1 0x20 SWAP1 DUP2 MSTORE PUSH1 0x40 DUP1 DUP5 KECCAK256 PUSH1 0x1 PUSH1 0x1 PUSH1 0xA0 SHL SUB SWAP4 SWAP1 SWAP4 AND DUP5 MSTORE SWAP2 SWAP1 MSTORE SWAP1 KECCAK256 SLOAD PUSH1 0xFF AND SWAP1 JUMP JUMPDEST PUSH1 0x60 PUSH1 0x1 DUP1 SLOAD PUSH2 0x50C SWAP1 PUSH2 0x2542 JUMP JUMPDEST PUSH2 0x5C3 CALLER DUP4 DUP4 PUSH2 0x1301 JUMP JUMPDEST PUSH2 0xB09 DUP5 DUP5 DUP5 PUSH2 0x5C7 JUMP JUMPDEST PUSH2 0x651 CALLER DUP6 DUP6 DUP6 DUP6 PUSH2 0x13A0 JUMP JUMPDEST PUSH1 0x0 PUSH1 0x0 DUP1 MLOAD PUSH1 0x20 PUSH2 0x2810 DUP4 CODECOPY DUP2 MLOAD SWAP2 MSTORE PUSH2 0xB30 DUP2 PUSH2 0x104B JUMP JUMPDEST PUSH2 0xB38 PUSH2 0x11AB JUMP JUMPDEST PUSH2 0xB40 PUSH2 0x11D5 JUMP JUMPDEST PUSH1 0x1 PUSH1 0x1 PUSH1 0xA0 SHL SUB DUP6 AND PUSH2 0xB66 JUMPI PUSH1 0x40 MLOAD PUSH3 0x461BCD PUSH1 0xE5 SHL DUP2 MSTORE PUSH1 0x4 ADD PUSH2 0x5ED SWAP1 PUSH2 0x257C JUMP JUMPDEST PUSH1 0xC DUP1 SLOAD PUSH1 0x0 SWAP2 DUP3 PUSH2 0xB77 DUP4 PUSH2 0x25A7 JUMP JUMPDEST SWAP2 SWAP1 POP SSTORE SWAP1 POP PUSH2 0xB87 DUP7 DUP3 PUSH2 0x11FB JUMP JUMPDEST PUSH2 0xB91 DUP2 DUP7 PUSH2 0x1215 JUMP JUMPDEST PUSH1 0x0 DUP2 DUP2 MSTORE PUSH1 0xF PUSH1 0x20 SWAP1 DUP2 MSTORE PUSH1 0x40 DUP1 DUP4 KECCAK256 DUP8 SWAP1 SSTORE PUSH1 0xD SWAP1 SWAP2 MSTORE SWAP1 DUP2 SWAP1 KECCAK256 DUP1 SLOAD PUSH1 0xFF NOT AND PUSH1 0x1 OR SWAP1 SSTORE MLOAD DUP5 SWAP1 PUSH1 0x1 PUSH1 0x1 PUSH1 0xA0 SHL SUB DUP9 AND SWAP1 DUP4 SWAP1 PUSH32 0xEC0453641F8A38A2B043366C77BBC44080634E56C393346A911E2DF03BBC4DA0 SWAP1 PUSH2 0xBF6 SWAP1 DUP11 SWAP1 PUSH2 0x20DB JUMP JUMPDEST PUSH1 0x40 MLOAD DUP1 SWAP2 SUB SWAP1 LOG4 SWAP2 POP PUSH2 0xC0A PUSH1 0x1 PUSH1 0x8 SSTORE JUMP JUMPDEST POP SWAP4 SWAP3 POP POP POP JUMP JUMPDEST PUSH1 0x60 PUSH2 0x4F7 DUP3 PUSH2 0x14C9 JUMP JUMPDEST PUSH1 0x0 DUP3 DUP2 MSTORE PUSH1 0x7 PUSH1 0x20 MSTORE PUSH1 0x40 SWAP1 KECCAK256 PUSH1 0x1 ADD SLOAD PUSH2 0xC38 DUP2 PUSH2 0x104B JUMP JUMPDEST PUSH2 0x651 DUP4 DUP4 PUSH2 0x10EC JUMP JUMPDEST PUSH1 0x0 PUSH2 0xC4C PUSH2 0x11AB JUMP JUMPDEST PUSH2 0xC54 PUSH2 0x11D5 JUMP JUMPDEST DUP2 CALLDATALOAD PUSH1 0x0 SWAP1 DUP2 MSTORE PUSH1 0xD PUSH1 0x20 MSTORE PUSH1 0x40 SWAP1 KECCAK256 SLOAD PUSH1 0xFF AND ISZERO PUSH2 0xCAC JUMPI PUSH1 0x40 MLOAD PUSH3 0x461BCD PUSH1 0xE5 SHL DUP2 MSTORE PUSH1 0x20 PUSH1 0x4 DUP3 ADD MSTORE PUSH1 0x14 PUSH1 0x24 DUP3 ADD MSTORE PUSH20 0x151BDAD95B88185B1C9958591E481B5A5B9D1959 PUSH1 0x62 SHL PUSH1 0x44 DUP3 ADD MSTORE PUSH1 0x64 ADD PUSH2 0x5ED JUMP JUMPDEST PUSH1 0x80 DUP3 ADD CALLDATALOAD PUSH1 0x0 SWAP1 DUP2 MSTORE PUSH1 0xE PUSH1 0x20 MSTORE PUSH1 0x40 SWAP1 KECCAK256 SLOAD PUSH1 0xFF AND ISZERO PUSH2 0xD05 JUMPI PUSH1 0x40 MLOAD PUSH3 0x461BCD PUSH1 0xE5 SHL DUP2 MSTORE PUSH1 0x20 PUSH1 0x4 DUP3 ADD MSTORE PUSH1 0x12 PUSH1 0x24 DUP3 ADD MSTORE PUSH18 0x139BDB98D948185B1C9958591E481D5CD959 PUSH1 0x72 SHL PUSH1 0x44 DUP3 ADD MSTORE PUSH1 0x64 ADD PUSH2 0x5ED JUMP JUMPDEST PUSH1 0x0 PUSH2 0xD17 PUSH1 0x60 DUP5 ADD PUSH1 0x40 DUP6 ADD PUSH2 0x227D JUMP JUMPDEST PUSH1 0x1 PUSH1 0x1 PUSH1 0xA0 SHL SUB AND SUB PUSH2 0xD3D JUMPI PUSH1 0x40 MLOAD PUSH3 0x461BCD PUSH1 0xE5 SHL DUP2 MSTORE PUSH1 0x4 ADD PUSH2 0x5ED SWAP1 PUSH2 0x257C JUMP JUMPDEST PUSH1 0x0 PUSH2 0xD48 DUP4 PUSH2 0x15DA JUMP JUMPDEST SWAP1 POP PUSH2 0xD62 PUSH1 0x0 DUP1 MLOAD PUSH1 0x20 PUSH2 0x2810 DUP4 CODECOPY DUP2 MLOAD SWAP2 MSTORE DUP3 PUSH2 0xAB9 JUMP JUMPDEST PUSH2 0xDC4 JUMPI PUSH1 0x40 MLOAD PUSH3 0x461BCD PUSH1 0xE5 SHL DUP2 MSTORE PUSH1 0x20 PUSH1 0x4 DUP3 ADD MSTORE PUSH1 0x2D PUSH1 0x24 DUP3 ADD MSTORE PUSH32 0x496E76616C6964207369676E61747572653A206E6F742066726F6D2061757468 PUSH1 0x44 DUP3 ADD MSTORE PUSH13 0x37B934BD32B21036B4B73A32B9 PUSH1 0x99 SHL PUSH1 0x64 DUP3 ADD MSTORE PUSH1 0x84 ADD PUSH2 0x5ED JUMP JUMPDEST PUSH1 0x80 DUP4 ADD CALLDATALOAD PUSH1 0x0 SWAP1 DUP2 MSTORE PUSH1 0xE PUSH1 0x20 SWAP1 DUP2 MSTORE PUSH1 0x40 DUP1 DUP4 KECCAK256 DUP1 SLOAD PUSH1 0x1 PUSH1 0xFF NOT SWAP2 DUP3 AND DUP2 OR SWAP1 SWAP3 SSTORE DUP8 CALLDATALOAD DUP6 MSTORE PUSH1 0xD SWAP1 SWAP4 MSTORE SWAP3 DUP2 SWAP1 KECCAK256 DUP1 SLOAD SWAP1 SWAP3 AND SWAP1 SWAP3 OR SWAP1 SSTORE PUSH2 0xE1B SWAP1 PUSH2 0xE14 SWAP1 PUSH1 0x60 DUP7 ADD SWAP1 DUP7 ADD PUSH2 0x227D JUMP JUMPDEST DUP5 CALLDATALOAD PUSH2 0x11FB JUMP JUMPDEST PUSH2 0xE2D DUP4 CALLDATALOAD PUSH2 0x883 PUSH1 0x20 DUP7 ADD DUP7 PUSH2 0x25E4 JUMP JUMPDEST DUP3 CALLDATALOAD PUSH1 0x0 SWAP1 DUP2 MSTORE PUSH1 0xF PUSH1 0x20 MSTORE PUSH1 0x40 SWAP1 DUP2 SWAP1 KECCAK256 PUSH1 0x60 DUP6 ADD DUP1 CALLDATALOAD SWAP2 DUP3 SWAP1 SSTORE SWAP1 SWAP2 PUSH2 0xE57 SWAP2 SWAP1 DUP7 ADD PUSH2 0x227D JUMP JUMPDEST PUSH1 0x1 PUSH1 0x1 PUSH1 0xA0 SHL SUB AND DUP5 CALLDATALOAD PUSH32 0xEC0453641F8A38A2B043366C77BBC44080634E56C393346A911E2DF03BBC4DA0 PUSH2 0xE90 PUSH1 0x20 DUP9 ADD DUP9 PUSH2 0x25E4 JUMP JUMPDEST PUSH1 0x40 MLOAD PUSH2 0xE9E SWAP3 SWAP2 SWAP1 PUSH2 0x262B JUMP JUMPDEST PUSH1 0x40 MLOAD DUP1 SWAP2 SUB SWAP1 LOG4 POP POP DUP1 CALLDATALOAD PUSH2 0xEB4 PUSH1 0x1 PUSH1 0x8 SSTORE JUMP JUMPDEST SWAP2 SWAP1 POP JUMP JUMPDEST PUSH1 0x1 PUSH1 0x1 PUSH1 0xA0 SHL SUB SWAP2 DUP3 AND PUSH1 0x0 SWAP1 DUP2 MSTORE PUSH1 0x5 PUSH1 0x20 SWAP1 DUP2 MSTORE PUSH1 0x40 DUP1 DUP4 KECCAK256 SWAP4 SWAP1 SWAP5 AND DUP3 MSTORE SWAP2 SWAP1 SWAP2 MSTORE KECCAK256 SLOAD PUSH1 0xFF AND SWAP1 JUMP JUMPDEST PUSH1 0x0 PUSH1 0x1 PUSH1 0x1 PUSH1 0xE0 SHL SUB NOT DUP3 AND PUSH4 0x7965DB0B PUSH1 0xE0 SHL EQ DUP1 PUSH2 0x4F7 JUMPI POP PUSH2 0x4F7 DUP3 PUSH2 0x16F5 JUMP JUMPDEST PUSH1 0x0 DUP2 DUP2 MSTORE PUSH1 0x2 PUSH1 0x20 MSTORE PUSH1 0x40 DUP2 KECCAK256 SLOAD PUSH1 0x1 PUSH1 0x1 PUSH1 0xA0 SHL SUB AND DUP1 PUSH2 0x4F7 JUMPI PUSH1 0x40 MLOAD PUSH4 0x7E273289 PUSH1 0xE0 SHL DUP2 MSTORE PUSH1 0x4 DUP2 ADD DUP5 SWAP1 MSTORE PUSH1 0x24 ADD PUSH2 0x5ED JUMP JUMPDEST PUSH2 0x6AF DUP4 DUP4 DUP4 PUSH1 0x1 PUSH2 0x171A JUMP JUMPDEST PUSH1 0x0 DUP3 DUP2 MSTORE PUSH1 0x2 PUSH1 0x20 MSTORE PUSH1 0x40 DUP2 KECCAK256 SLOAD PUSH1 0x1 PUSH1 0x1 PUSH1 0xA0 SHL SUB SWAP1 DUP2 AND SWAP1 DUP4 AND ISZERO PUSH2 0xF7F JUMPI PUSH2 0xF7F DUP2 DUP5 DUP7 PUSH2 0x1820 JUMP JUMPDEST PUSH1 0x1 PUSH1 0x1 PUSH1 0xA0 SHL SUB DUP2 AND ISZERO PUSH2 0xFBD JUMPI PUSH2 0xF9C PUSH1 0x0 DUP6 PUSH1 0x0 DUP1 PUSH2 0x171A JUMP JUMPDEST PUSH1 0x1 PUSH1 0x1 PUSH1 0xA0 SHL SUB DUP2 AND PUSH1 0x0 SWAP1 DUP2 MSTORE PUSH1 0x3 PUSH1 0x20 MSTORE PUSH1 0x40 SWAP1 KECCAK256 DUP1 SLOAD PUSH1 0x0 NOT ADD SWAP1 SSTORE JUMPDEST PUSH1 0x1 PUSH1 0x1 PUSH1 0xA0 SHL SUB DUP6 AND ISZERO PUSH2 0xFEC JUMPI PUSH1 0x1 PUSH1 0x1 PUSH1 0xA0 SHL SUB DUP6 AND PUSH1 0x0 SWAP1 DUP2 MSTORE PUSH1 0x3 PUSH1 0x20 MSTORE PUSH1 0x40 SWAP1 KECCAK256 DUP1 SLOAD PUSH1 0x1 ADD SWAP1 SSTORE JUMPDEST PUSH1 0x0 DUP5 DUP2 MSTORE PUSH1 0x2 PUSH1 0x20 MSTORE PUSH1 0x40 DUP1 DUP3 KECCAK256 DUP1 SLOAD PUSH1 0x1 PUSH1 0x1 PUSH1 0xA0 SHL SUB NOT AND PUSH1 0x1 PUSH1 0x1 PUSH1 0xA0 SHL SUB DUP10 DUP2 AND SWAP2 DUP3 OR SWAP1 SWAP3 SSTORE SWAP2 MLOAD DUP8 SWAP4 SWAP2 DUP6 AND SWAP2 PUSH32 0xDDF252AD1BE2C89B69C2B068FC378DAA952BA7F163C4A11628F55A4DF523B3EF SWAP2 LOG4 SWAP5 SWAP4 POP POP POP POP JUMP JUMPDEST PUSH2 0x1055 DUP2 CALLER PUSH2 0x1884 JUMP JUMPDEST POP JUMP JUMPDEST PUSH1 0x0 PUSH2 0x1064 DUP4 DUP4 PUSH2 0xAB9 JUMP JUMPDEST PUSH2 0x10E4 JUMPI PUSH1 0x0 DUP4 DUP2 MSTORE PUSH1 0x7 PUSH1 0x20 SWAP1 DUP2 MSTORE PUSH1 0x40 DUP1 DUP4 KECCAK256 PUSH1 0x1 PUSH1 0x1 PUSH1 0xA0 SHL SUB DUP7 AND DUP5 MSTORE SWAP1 SWAP2 MSTORE SWAP1 KECCAK256 DUP1 SLOAD PUSH1 0xFF NOT AND PUSH1 0x1 OR SWAP1 SSTORE PUSH2 0x109C CALLER SWAP1 JUMP JUMPDEST PUSH1 0x1 PUSH1 0x1 PUSH1 0xA0 SHL SUB AND DUP3 PUSH1 0x1 PUSH1 0x1 PUSH1 0xA0 SHL SUB AND DUP5 PUSH32 0x2F8788117E7EFF1D82E926EC794901D17C78024A50270940304540A733656F0D PUSH1 0x40 MLOAD PUSH1 0x40 MLOAD DUP1 SWAP2 SUB SWAP1 LOG4 POP PUSH1 0x1 PUSH2 0x4F7 JUMP JUMPDEST POP PUSH1 0x0 PUSH2 0x4F7 JUMP JUMPDEST PUSH1 0x0 PUSH2 0x10F8 DUP4 DUP4 PUSH2 0xAB9 JUMP JUMPDEST ISZERO PUSH2 0x10E4 JUMPI PUSH1 0x0 DUP4 DUP2 MSTORE PUSH1 0x7 PUSH1 0x20 SWAP1 DUP2 MSTORE PUSH1 0x40 DUP1 DUP4 KECCAK256 PUSH1 0x1 PUSH1 0x1 PUSH1 0xA0 SHL SUB DUP7 AND DUP1 DUP6 MSTORE SWAP3 MSTORE DUP1 DUP4 KECCAK256 DUP1 SLOAD PUSH1 0xFF NOT AND SWAP1 SSTORE MLOAD CALLER SWAP3 DUP7 SWAP2 PUSH32 0xF6391F5C32D9C69D2A47EA670B442974B53935D1EDC7FD64EB21E047A839171B SWAP2 SWAP1 LOG4 POP PUSH1 0x1 PUSH2 0x4F7 JUMP JUMPDEST PUSH2 0x1161 PUSH2 0x18BD JUMP JUMPDEST PUSH1 0x9 DUP1 SLOAD PUSH1 0xFF NOT AND SWAP1 SSTORE PUSH32 0x5DB9EE0A495BF2E6FF9C91A7834C1BA4FDD244A5E8AA4E537BD38AEAE4B073AA CALLER JUMPDEST PUSH1 0x40 MLOAD PUSH1 0x1 PUSH1 0x1 PUSH1 0xA0 SHL SUB SWAP1 SWAP2 AND DUP2 MSTORE PUSH1 0x20 ADD PUSH1 0x40 MLOAD DUP1 SWAP2 SUB SWAP1 LOG1 JUMP JUMPDEST PUSH1 0x2 PUSH1 0x8 SLOAD SUB PUSH2 0x11CE JUMPI PUSH1 0x40 MLOAD PUSH4 0x3EE5AEB5 PUSH1 0xE0 SHL DUP2 MSTORE PUSH1 0x4 ADD PUSH1 0x40 MLOAD DUP1 SWAP2 SUB SWAP1 REVERT JUMPDEST PUSH1 0x2 PUSH1 0x8 SSTORE JUMP JUMPDEST PUSH1 0x9 SLOAD PUSH1 0xFF AND ISZERO PUSH2 0x11F9 JUMPI PUSH1 0x40 MLOAD PUSH4 0xD93C0665 PUSH1 0xE0 SHL DUP2 MSTORE PUSH1 0x4 ADD PUSH1 0x40 MLOAD DUP1 SWAP2 SUB SWAP1 REVERT JUMPDEST JUMP JUMPDEST PUSH2 0x5C3 DUP3 DUP3 PUSH1 0x40 MLOAD DUP1 PUSH1 0x20 ADD PUSH1 0x40 MSTORE DUP1 PUSH1 0x0 DUP2 MSTORE POP PUSH2 0x18E0 JUMP JUMPDEST PUSH1 0x0 DUP3 DUP2 MSTORE PUSH1 0x6 PUSH1 0x20 MSTORE PUSH1 0x40 SWAP1 KECCAK256 PUSH2 0x122D DUP3 DUP3 PUSH2 0x26A0 JUMP JUMPDEST POP PUSH1 0x40 MLOAD DUP3 DUP2 MSTORE PUSH32 0xF8E1A15ABA9398E019F0B49DF1A4FDE98EE17AE345CB5F6B5E2C27F5033E8CE7 SWAP1 PUSH1 0x20 ADD PUSH1 0x40 MLOAD DUP1 SWAP2 SUB SWAP1 LOG1 POP POP JUMP JUMPDEST PUSH2 0x126D PUSH2 0x11D5 JUMP JUMPDEST PUSH1 0x9 DUP1 SLOAD PUSH1 0xFF NOT AND PUSH1 0x1 OR SWAP1 SSTORE PUSH32 0x62E78CEA01BEE320CD4E420270B5EA74000D11B0C9F74754EBDBFC544B05A258 PUSH2 0x118E CALLER SWAP1 JUMP JUMPDEST PUSH1 0x60 PUSH2 0x12CF PUSH32 0x0 PUSH1 0xA PUSH2 0x18F8 JUMP JUMPDEST SWAP1 POP SWAP1 JUMP JUMPDEST PUSH1 0x60 PUSH2 0x12CF PUSH32 0x0 PUSH1 0xB PUSH2 0x18F8 JUMP JUMPDEST PUSH1 0x1 PUSH1 0x1 PUSH1 0xA0 SHL SUB DUP3 AND PUSH2 0x1333 JUMPI PUSH1 0x40 MLOAD PUSH4 0xB611743 PUSH1 0xE3 SHL DUP2 MSTORE PUSH1 0x1 PUSH1 0x1 PUSH1 0xA0 SHL SUB DUP4 AND PUSH1 0x4 DUP3 ADD MSTORE PUSH1 0x24 ADD PUSH2 0x5ED JUMP JUMPDEST PUSH1 0x1 PUSH1 0x1 PUSH1 0xA0 SHL SUB DUP4 DUP2 AND PUSH1 0x0 DUP2 DUP2 MSTORE PUSH1 0x5 PUSH1 0x20 SWAP1 DUP2 MSTORE PUSH1 0x40 DUP1 DUP4 KECCAK256 SWAP5 DUP8 AND DUP1 DUP5 MSTORE SWAP5 DUP3 MSTORE SWAP2 DUP3 SWAP1 KECCAK256 DUP1 SLOAD PUSH1 0xFF NOT AND DUP7 ISZERO ISZERO SWAP1 DUP2 OR SWAP1 SWAP2 SSTORE SWAP2 MLOAD SWAP2 DUP3 MSTORE PUSH32 0x17307EAB39AB6107E8899845AD3D59BD9653F200F220920489CA2B5937696C31 SWAP2 ADD PUSH1 0x40 MLOAD DUP1 SWAP2 SUB SWAP1 LOG3 POP POP POP JUMP JUMPDEST PUSH1 0x1 PUSH1 0x1 PUSH1 0xA0 SHL SUB DUP4 AND EXTCODESIZE ISZERO PUSH2 0x14C2 JUMPI PUSH1 0x40 MLOAD PUSH4 0xA85BD01 PUSH1 0xE1 SHL DUP2 MSTORE PUSH1 0x1 PUSH1 0x1 PUSH1 0xA0 SHL SUB DUP5 AND SWAP1 PUSH4 0x150B7A02 SWAP1 PUSH2 0x13E2 SWAP1 DUP9 SWAP1 DUP9 SWAP1 DUP8 SWAP1 DUP8 SWAP1 PUSH1 0x4 ADD PUSH2 0x2760 JUMP JUMPDEST PUSH1 0x20 PUSH1 0x40 MLOAD DUP1 DUP4 SUB DUP2 PUSH1 0x0 DUP8 GAS CALL SWAP3 POP POP POP DUP1 ISZERO PUSH2 0x141D JUMPI POP PUSH1 0x40 DUP1 MLOAD PUSH1 0x1F RETURNDATASIZE SWAP1 DUP2 ADD PUSH1 0x1F NOT AND DUP3 ADD SWAP1 SWAP3 MSTORE PUSH2 0x141A SWAP2 DUP2 ADD SWAP1 PUSH2 0x279D JUMP JUMPDEST PUSH1 0x1 JUMPDEST PUSH2 0x1486 JUMPI RETURNDATASIZE DUP1 DUP1 ISZERO PUSH2 0x144B JUMPI PUSH1 0x40 MLOAD SWAP2 POP PUSH1 0x1F NOT PUSH1 0x3F RETURNDATASIZE ADD AND DUP3 ADD PUSH1 0x40 MSTORE RETURNDATASIZE DUP3 MSTORE RETURNDATASIZE PUSH1 0x0 PUSH1 0x20 DUP5 ADD RETURNDATACOPY PUSH2 0x1450 JUMP JUMPDEST PUSH1 0x60 SWAP2 POP JUMPDEST POP DUP1 MLOAD PUSH1 0x0 SUB PUSH2 0x147E JUMPI PUSH1 0x40 MLOAD PUSH4 0x32505749 PUSH1 0xE1 SHL DUP2 MSTORE PUSH1 0x1 PUSH1 0x1 PUSH1 0xA0 SHL SUB DUP6 AND PUSH1 0x4 DUP3 ADD MSTORE PUSH1 0x24 ADD PUSH2 0x5ED JUMP JUMPDEST DUP1 MLOAD PUSH1 0x20 DUP3 ADD REVERT JUMPDEST PUSH1 0x1 PUSH1 0x1 PUSH1 0xE0 SHL SUB NOT DUP2 AND PUSH4 0xA85BD01 PUSH1 0xE1 SHL EQ PUSH2 0x95F JUMPI PUSH1 0x40 MLOAD PUSH4 0x32505749 PUSH1 0xE1 SHL DUP2 MSTORE PUSH1 0x1 PUSH1 0x1 PUSH1 0xA0 SHL SUB DUP6 AND PUSH1 0x4 DUP3 ADD MSTORE PUSH1 0x24 ADD PUSH2 0x5ED JUMP JUMPDEST POP POP POP POP POP JUMP JUMPDEST PUSH1 0x60 PUSH2 0x14D4 DUP3 PUSH2 0xF0C JUMP JUMPDEST POP PUSH1 0x0 DUP3 DUP2 MSTORE PUSH1 0x6 PUSH1 0x20 MSTORE PUSH1 0x40 DUP2 KECCAK256 DUP1 SLOAD PUSH2 0x14EE SWAP1 PUSH2 0x2542 JUMP JUMPDEST DUP1 PUSH1 0x1F ADD PUSH1 0x20 DUP1 SWAP2 DIV MUL PUSH1 0x20 ADD PUSH1 0x40 MLOAD SWAP1 DUP2 ADD PUSH1 0x40 MSTORE DUP1 SWAP3 SWAP2 SWAP1 DUP2 DUP2 MSTORE PUSH1 0x20 ADD DUP3 DUP1 SLOAD PUSH2 0x151A SWAP1 PUSH2 0x2542 JUMP JUMPDEST DUP1 ISZERO PUSH2 0x1567 JUMPI DUP1 PUSH1 0x1F LT PUSH2 0x153C JUMPI PUSH2 0x100 DUP1 DUP4 SLOAD DIV MUL DUP4 MSTORE SWAP2 PUSH1 0x20 ADD SWAP2 PUSH2 0x1567 JUMP JUMPDEST DUP3 ADD SWAP2 SWAP1 PUSH1 0x0 MSTORE PUSH1 0x20 PUSH1 0x0 KECCAK256 SWAP1 JUMPDEST DUP2 SLOAD DUP2 MSTORE SWAP1 PUSH1 0x1 ADD SWAP1 PUSH1 0x20 ADD DUP1 DUP4 GT PUSH2 0x154A JUMPI DUP3 SWAP1 SUB PUSH1 0x1F AND DUP3 ADD SWAP2 JUMPDEST POP POP POP POP POP SWAP1 POP PUSH1 0x0 PUSH2 0x1585 PUSH1 0x40 DUP1 MLOAD PUSH1 0x20 DUP2 ADD SWAP1 SWAP2 MSTORE PUSH1 0x0 DUP2 MSTORE SWAP1 JUMP JUMPDEST SWAP1 POP DUP1 MLOAD PUSH1 0x0 SUB PUSH2 0x1597 JUMPI POP SWAP3 SWAP2 POP POP JUMP JUMPDEST DUP2 MLOAD ISZERO PUSH2 0x15C9 JUMPI DUP1 DUP3 PUSH1 0x40 MLOAD PUSH1 0x20 ADD PUSH2 0x15B1 SWAP3 SWAP2 SWAP1 PUSH2 0x27BA JUMP JUMPDEST PUSH1 0x40 MLOAD PUSH1 0x20 DUP2 DUP4 SUB SUB DUP2 MSTORE SWAP1 PUSH1 0x40 MSTORE SWAP3 POP POP POP SWAP2 SWAP1 POP JUMP JUMPDEST PUSH2 0x15D2 DUP5 PUSH2 0x19A3 JUMP JUMPDEST SWAP5 SWAP4 POP POP POP POP JUMP JUMPDEST PUSH1 0x0 DUP1 PUSH2 0x169F PUSH32 0xC98960FE6790BC8277018131E568A0BC15EB0780ECFA7EF13B61EFB6FE64B74B DUP5 CALLDATALOAD PUSH2 0x1610 PUSH1 0x20 DUP8 ADD DUP8 PUSH2 0x25E4 JUMP JUMPDEST PUSH1 0x40 MLOAD PUSH2 0x161E SWAP3 SWAP2 SWAP1 PUSH2 0x27E9 JUMP JUMPDEST PUSH1 0x40 MLOAD DUP1 SWAP2 SUB SWAP1 KECCAK256 DUP7 PUSH1 0x40 ADD PUSH1 0x20 DUP2 ADD SWAP1 PUSH2 0x1639 SWAP2 SWAP1 PUSH2 0x227D JUMP JUMPDEST DUP8 PUSH1 0x60 ADD CALLDATALOAD DUP9 PUSH1 0x80 ADD CALLDATALOAD PUSH1 0x40 MLOAD PUSH1 0x20 ADD PUSH2 0x1684 SWAP7 SWAP6 SWAP5 SWAP4 SWAP3 SWAP2 SWAP1 SWAP6 DUP7 MSTORE PUSH1 0x20 DUP7 ADD SWAP5 SWAP1 SWAP5 MSTORE PUSH1 0x40 DUP6 ADD SWAP3 SWAP1 SWAP3 MSTORE PUSH1 0x1 PUSH1 0x1 PUSH1 0xA0 SHL SUB AND PUSH1 0x60 DUP5 ADD MSTORE PUSH1 0x80 DUP4 ADD MSTORE PUSH1 0xA0 DUP3 ADD MSTORE PUSH1 0xC0 ADD SWAP1 JUMP JUMPDEST PUSH1 0x40 MLOAD PUSH1 0x20 DUP2 DUP4 SUB SUB DUP2 MSTORE SWAP1 PUSH1 0x40 MSTORE DUP1 MLOAD SWAP1 PUSH1 0x20 ADD KECCAK256 PUSH2 0x1A17 JUMP JUMPDEST SWAP1 POP PUSH2 0x16EE PUSH2 0x16B1 PUSH1 0xA0 DUP6 ADD DUP6 PUSH2 0x25E4 JUMP JUMPDEST DUP1 DUP1 PUSH1 0x1F ADD PUSH1 0x20 DUP1 SWAP2 DIV MUL PUSH1 0x20 ADD PUSH1 0x40 MLOAD SWAP1 DUP2 ADD PUSH1 0x40 MSTORE DUP1 SWAP4 SWAP3 SWAP2 SWAP1 DUP2 DUP2 MSTORE PUSH1 0x20 ADD DUP4 DUP4 DUP1 DUP3 DUP5 CALLDATACOPY PUSH1 0x0 SWAP3 ADD SWAP2 SWAP1 SWAP2 MSTORE POP DUP6 SWAP4 SWAP3 POP POP PUSH2 0x1A44 SWAP1 POP JUMP JUMPDEST SWAP4 SWAP3 POP POP POP JUMP JUMPDEST PUSH1 0x0 PUSH1 0x1 PUSH1 0x1 PUSH1 0xE0 SHL SUB NOT DUP3 AND PUSH4 0x24832483 PUSH1 0xE1 SHL EQ DUP1 PUSH2 0x4F7 JUMPI POP PUSH2 0x4F7 DUP3 PUSH2 0x1A6E JUMP JUMPDEST DUP1 DUP1 PUSH2 0x172E JUMPI POP PUSH1 0x1 PUSH1 0x1 PUSH1 0xA0 SHL SUB DUP3 AND ISZERO ISZERO JUMPDEST ISZERO PUSH2 0x17F0 JUMPI PUSH1 0x0 PUSH2 0x173E DUP5 PUSH2 0xF0C JUMP JUMPDEST SWAP1 POP PUSH1 0x1 PUSH1 0x1 PUSH1 0xA0 SHL SUB DUP4 AND ISZERO DUP1 ISZERO SWAP1 PUSH2 0x176A JUMPI POP DUP3 PUSH1 0x1 PUSH1 0x1 PUSH1 0xA0 SHL SUB AND DUP2 PUSH1 0x1 PUSH1 0x1 PUSH1 0xA0 SHL SUB AND EQ ISZERO JUMPDEST DUP1 ISZERO PUSH2 0x177D JUMPI POP PUSH2 0x177B DUP2 DUP5 PUSH2 0xEB9 JUMP JUMPDEST ISZERO JUMPDEST ISZERO PUSH2 0x17A6 JUMPI PUSH1 0x40 MLOAD PUSH4 0xA9FBF51F PUSH1 0xE0 SHL DUP2 MSTORE PUSH1 0x1 PUSH1 0x1 PUSH1 0xA0 SHL SUB DUP5 AND PUSH1 0x4 DUP3 ADD MSTORE PUSH1 0x24 ADD PUSH2 0x5ED JUMP JUMPDEST DUP2 ISZERO PUSH2 0x17EE JUMPI DUP4 DUP6 PUSH1 0x1 PUSH1 0x1 PUSH1 0xA0 SHL SUB AND DUP3 PUSH1 0x1 PUSH1 0x1 PUSH1 0xA0 SHL SUB AND PUSH32 0x8C5BE1E5EBEC7D5BD14F71427D1E84F3DD0314C0F7B2291E5B200AC8C7C3B925 PUSH1 0x40 MLOAD PUSH1 0x40 MLOAD DUP1 SWAP2 SUB SWAP1 LOG4 JUMPDEST POP JUMPDEST POP POP PUSH1 0x0 SWAP1 DUP2 MSTORE PUSH1 0x4 PUSH1 0x20 MSTORE PUSH1 0x40 SWAP1 KECCAK256 DUP1 SLOAD PUSH1 0x1 PUSH1 0x1 PUSH1 0xA0 SHL SUB NOT AND PUSH1 0x1 PUSH1 0x1 PUSH1 0xA0 SHL SUB SWAP3 SWAP1 SWAP3 AND SWAP2 SWAP1 SWAP2 OR SWAP1 SSTORE JUMP JUMPDEST PUSH2 0x182B DUP4 DUP4 DUP4 PUSH2 0x1ABE JUMP JUMPDEST PUSH2 0x6AF JUMPI PUSH1 0x1 PUSH1 0x1 PUSH1 0xA0 SHL SUB DUP4 AND PUSH2 0x1859 JUMPI PUSH1 0x40 MLOAD PUSH4 0x7E273289 PUSH1 0xE0 SHL DUP2 MSTORE PUSH1 0x4 DUP2 ADD DUP3 SWAP1 MSTORE PUSH1 0x24 ADD PUSH2 0x5ED JUMP JUMPDEST PUSH1 0x40 MLOAD PUSH4 0x177E802F PUSH1 0xE0 SHL DUP2 MSTORE PUSH1 0x1 PUSH1 0x1 PUSH1 0xA0 SHL SUB DUP4 AND PUSH1 0x4 DUP3 ADD MSTORE PUSH1 0x24 DUP2 ADD DUP3 SWAP1 MSTORE PUSH1 0x44 ADD PUSH2 0x5ED JUMP JUMPDEST PUSH2 0x188E DUP3 DUP3 PUSH2 0xAB9 JUMP JUMPDEST PUSH2 0x5C3 JUMPI PUSH1 0x40 MLOAD PUSH4 0xE2517D3F PUSH1 0xE0 SHL DUP2 MSTORE PUSH1 0x1 PUSH1 0x1 PUSH1 0xA0 SHL SUB DUP3 AND PUSH1 0x4 DUP3 ADD MSTORE PUSH1 0x24 DUP2 ADD DUP4 SWAP1 MSTORE PUSH1 0x44 ADD PUSH2 0x5ED JUMP JUMPDEST PUSH1 0x9 SLOAD PUSH1 0xFF AND PUSH2 0x11F9 JUMPI PUSH1 0x40 MLOAD PUSH4 0x8DFC202B PUSH1 0xE0 SHL DUP2 MSTORE PUSH1 0x4 ADD PUSH1 0x40 MLOAD DUP1 SWAP2 SUB SWAP1 REVERT JUMPDEST PUSH2 0x18EA DUP4 DUP4 PUSH2 0x1B21 JUMP JUMPDEST PUSH2 0x6AF CALLER PUSH1 0x0 DUP6 DUP6 DUP6 PUSH2 0x13A0 JUMP JUMPDEST PUSH1 0x60 PUSH1 0xFF DUP4 EQ PUSH2 0x1912 JUMPI PUSH2 0x190B DUP4 PUSH2 0x1B86 JUMP JUMPDEST SWAP1 POP PUSH2 0x4F7 JUMP JUMPDEST DUP2 DUP1 SLOAD PUSH2 0x191E SWAP1 PUSH2 0x2542 JUMP JUMPDEST DUP1 PUSH1 0x1F ADD PUSH1 0x20 DUP1 SWAP2 DIV MUL PUSH1 0x20 ADD PUSH1 0x40 MLOAD SWAP1 DUP2 ADD PUSH1 0x40 MSTORE DUP1 SWAP3 SWAP2 SWAP1 DUP2 DUP2 MSTORE PUSH1 0x20 ADD DUP3 DUP1 SLOAD PUSH2 0x194A SWAP1 PUSH2 0x2542 JUMP JUMPDEST DUP1 ISZERO PUSH2 0x1997 JUMPI DUP1 PUSH1 0x1F LT PUSH2 0x196C JUMPI PUSH2 0x100 DUP1 DUP4 SLOAD DIV MUL DUP4 MSTORE SWAP2 PUSH1 0x20 ADD SWAP2 PUSH2 0x1997 JUMP JUMPDEST DUP3 ADD SWAP2 SWAP1 PUSH1 0x0 MSTORE PUSH1 0x20 PUSH1 0x0 KECCAK256 SWAP1 JUMPDEST DUP2 SLOAD DUP2 MSTORE SWAP1 PUSH1 0x1 ADD SWAP1 PUSH1 0x20 ADD DUP1 DUP4 GT PUSH2 0x197A JUMPI DUP3 SWAP1 SUB PUSH1 0x1F AND DUP3 ADD SWAP2 JUMPDEST POP POP POP POP POP SWAP1 POP PUSH2 0x4F7 JUMP JUMPDEST PUSH1 0x60 PUSH2 0x19AE DUP3 PUSH2 0xF0C JUMP JUMPDEST POP PUSH1 0x0 PUSH2 0x19C6 PUSH1 0x40 DUP1 MLOAD PUSH1 0x20 DUP2 ADD SWAP1 SWAP2 MSTORE PUSH1 0x0 DUP2 MSTORE SWAP1 JUMP JUMPDEST SWAP1 POP PUSH1 0x0 DUP2 MLOAD GT PUSH2 0x19E6 JUMPI PUSH1 0x40 MLOAD DUP1 PUSH1 0x20 ADD PUSH1 0x40 MSTORE DUP1 PUSH1 0x0 DUP2 MSTORE POP PUSH2 0x16EE JUMP JUMPDEST DUP1 PUSH2 0x19F0 DUP5 PUSH2 0x1BC5 JUMP JUMPDEST PUSH1 0x40 MLOAD PUSH1 0x20 ADD PUSH2 0x1A01 SWAP3 SWAP2 SWAP1 PUSH2 0x27BA JUMP JUMPDEST PUSH1 0x40 MLOAD PUSH1 0x20 DUP2 DUP4 SUB SUB DUP2 MSTORE SWAP1 PUSH1 0x40 MSTORE SWAP4 SWAP3 POP POP POP JUMP JUMPDEST PUSH1 0x0 PUSH2 0x4F7 PUSH2 0x1A24 PUSH2 0x1C58 JUMP JUMPDEST DUP4 PUSH1 0x40 MLOAD PUSH2 0x1901 PUSH1 0xF0 SHL DUP2 MSTORE PUSH1 0x2 DUP2 ADD SWAP3 SWAP1 SWAP3 MSTORE PUSH1 0x22 DUP3 ADD MSTORE PUSH1 0x42 SWAP1 KECCAK256 SWAP1 JUMP JUMPDEST PUSH1 0x0 DUP1 PUSH1 0x0 DUP1 PUSH2 0x1A54 DUP7 DUP7 PUSH2 0x1D83 JUMP JUMPDEST SWAP3 POP SWAP3 POP SWAP3 POP PUSH2 0x1A64 DUP3 DUP3 PUSH2 0x1DD0 JUMP JUMPDEST POP SWAP1 SWAP5 SWAP4 POP POP POP POP JUMP JUMPDEST PUSH1 0x0 PUSH1 0x1 PUSH1 0x1 PUSH1 0xE0 SHL SUB NOT DUP3 AND PUSH4 0x80AC58CD PUSH1 0xE0 SHL EQ DUP1 PUSH2 0x1A9F JUMPI POP PUSH1 0x1 PUSH1 0x1 PUSH1 0xE0 SHL SUB NOT DUP3 AND PUSH4 0x5B5E139F PUSH1 0xE0 SHL EQ JUMPDEST DUP1 PUSH2 0x4F7 JUMPI POP PUSH4 0x1FFC9A7 PUSH1 0xE0 SHL PUSH1 0x1 PUSH1 0x1 PUSH1 0xE0 SHL SUB NOT DUP4 AND EQ PUSH2 0x4F7 JUMP JUMPDEST PUSH1 0x0 PUSH1 0x1 PUSH1 0x1 PUSH1 0xA0 SHL SUB DUP4 AND ISZERO DUP1 ISZERO SWAP1 PUSH2 0x15D2 JUMPI POP DUP3 PUSH1 0x1 PUSH1 0x1 PUSH1 0xA0 SHL SUB AND DUP5 PUSH1 0x1 PUSH1 0x1 PUSH1 0xA0 SHL SUB AND EQ DUP1 PUSH2 0x1AF8 JUMPI POP PUSH2 0x1AF8 DUP5 DUP5 PUSH2 0xEB9 JUMP JUMPDEST DUP1 PUSH2 0x15D2 JUMPI POP POP PUSH1 0x0 SWAP1 DUP2 MSTORE PUSH1 0x4 PUSH1 0x20 MSTORE PUSH1 0x40 SWAP1 KECCAK256 SLOAD PUSH1 0x1 PUSH1 0x1 PUSH1 0xA0 SHL SUB SWAP1 DUP2 AND SWAP2 AND EQ SWAP2 SWAP1 POP JUMP JUMPDEST PUSH1 0x1 PUSH1 0x1 PUSH1 0xA0 SHL SUB DUP3 AND PUSH2 0x1B4B JUMPI PUSH1 0x40 MLOAD PUSH4 0x32505749 PUSH1 0xE1 SHL DUP2 MSTORE PUSH1 0x0 PUSH1 0x4 DUP3 ADD MSTORE PUSH1 0x24 ADD PUSH2 0x5ED JUMP JUMPDEST PUSH1 0x0 PUSH2 0x1B59 DUP4 DUP4 PUSH1 0x0 PUSH2 0xF52 JUMP JUMPDEST SWAP1 POP PUSH1 0x1 PUSH1 0x1 PUSH1 0xA0 SHL SUB DUP2 AND ISZERO PUSH2 0x6AF JUMPI PUSH1 0x40 MLOAD PUSH4 0x39E35637 PUSH1 0xE1 SHL DUP2 MSTORE PUSH1 0x0 PUSH1 0x4 DUP3 ADD MSTORE PUSH1 0x24 ADD PUSH2 0x5ED JUMP JUMPDEST PUSH1 0x60 PUSH1 0x0 PUSH2 0x1B93 DUP4 PUSH2 0x1E89 JUMP JUMPDEST PUSH1 0x40 DUP1 MLOAD PUSH1 0x20 DUP1 DUP3 MSTORE DUP2 DUP4 ADD SWAP1 SWAP3 MSTORE SWAP2 SWAP3 POP PUSH1 0x0 SWAP2 SWAP1 PUSH1 0x20 DUP3 ADD DUP2 DUP1 CALLDATASIZE DUP4 CALLDATACOPY POP POP POP SWAP2 DUP3 MSTORE POP PUSH1 0x20 DUP2 ADD SWAP3 SWAP1 SWAP3 MSTORE POP SWAP1 JUMP JUMPDEST PUSH1 0x60 PUSH1 0x0 PUSH2 0x1BD2 DUP4 PUSH2 0x1EB1 JUMP JUMPDEST PUSH1 0x1 ADD SWAP1 POP PUSH1 0x0 DUP2 PUSH8 0xFFFFFFFFFFFFFFFF DUP2 GT ISZERO PUSH2 0x1BF2 JUMPI PUSH2 0x1BF2 PUSH2 0x236A JUMP JUMPDEST PUSH1 0x40 MLOAD SWAP1 DUP1 DUP3 MSTORE DUP1 PUSH1 0x1F ADD PUSH1 0x1F NOT AND PUSH1 0x20 ADD DUP3 ADD PUSH1 0x40 MSTORE DUP1 ISZERO PUSH2 0x1C1C JUMPI PUSH1 0x20 DUP3 ADD DUP2 DUP1 CALLDATASIZE DUP4 CALLDATACOPY ADD SWAP1 POP JUMPDEST POP SWAP1 POP DUP2 DUP2 ADD PUSH1 0x20 ADD JUMPDEST PUSH1 0x0 NOT ADD PUSH16 0x181899199A1A9B1B9C1CB0B131B232B3 PUSH1 0x81 SHL PUSH1 0xA DUP7 MOD BYTE DUP2 MSTORE8 PUSH1 0xA DUP6 DIV SWAP5 POP DUP5 PUSH2 0x1C26 JUMPI POP SWAP4 SWAP3 POP POP POP JUMP JUMPDEST PUSH1 0x0 ADDRESS PUSH1 0x1 PUSH1 0x1 PUSH1 0xA0 SHL SUB PUSH32 0x0 AND EQ DUP1 ISZERO PUSH2 0x1CB1 JUMPI POP PUSH32 0x0 CHAINID EQ JUMPDEST ISZERO PUSH2 0x1CDB JUMPI POP PUSH32 0x0 SWAP1 JUMP JUMPDEST PUSH2 0x12CF PUSH1 0x40 DUP1 MLOAD PUSH32 0x8B73C3C69BB8FE3D512ECC4CF759CC79239F7B179B0FFACAA9A75D522B39400F PUSH1 0x20 DUP3 ADD MSTORE PUSH32 0x0 SWAP2 DUP2 ADD SWAP2 SWAP1 SWAP2 MSTORE PUSH32 0x0 PUSH1 0x60 DUP3 ADD MSTORE CHAINID PUSH1 0x80 DUP3 ADD MSTORE ADDRESS PUSH1 0xA0 DUP3 ADD MSTORE PUSH1 0x0 SWAP1 PUSH1 0xC0 ADD PUSH1 0x40 MLOAD PUSH1 0x20 DUP2 DUP4 SUB SUB DUP2 MSTORE SWAP1 PUSH1 0x40 MSTORE DUP1 MLOAD SWAP1 PUSH1 0x20 ADD KECCAK256 SWAP1 POP SWAP1 JUMP JUMPDEST PUSH1 0x0 DUP1 PUSH1 0x0 DUP4 MLOAD PUSH1 0x41 SUB PUSH2 0x1DBD JUMPI PUSH1 0x20 DUP5 ADD MLOAD PUSH1 0x40 DUP6 ADD MLOAD PUSH1 0x60 DUP7 ADD MLOAD PUSH1 0x0 BYTE PUSH2 0x1DAF DUP9 DUP3 DUP6 DUP6 PUSH2 0x1F89 JUMP JUMPDEST SWAP6 POP SWAP6 POP SWAP6 POP POP POP POP PUSH2 0x1DC9 JUMP JUMPDEST POP POP DUP2 MLOAD PUSH1 0x0 SWAP2 POP PUSH1 0x2 SWAP1 JUMPDEST SWAP3 POP SWAP3 POP SWAP3 JUMP JUMPDEST PUSH1 0x0 DUP3 PUSH1 0x3 DUP2 GT ISZERO PUSH2 0x1DE4 JUMPI PUSH2 0x1DE4 PUSH2 0x27F9 JUMP JUMPDEST SUB PUSH2 0x1DED JUMPI POP POP JUMP JUMPDEST PUSH1 0x1 DUP3 PUSH1 0x3 DUP2 GT ISZERO PUSH2 0x1E01 JUMPI PUSH2 0x1E01 PUSH2 0x27F9 JUMP JUMPDEST SUB PUSH2 0x1E1F JUMPI PUSH1 0x40 MLOAD PUSH4 0xF645EEDF PUSH1 0xE0 SHL DUP2 MSTORE PUSH1 0x4 ADD PUSH1 0x40 MLOAD DUP1 SWAP2 SUB SWAP1 REVERT JUMPDEST PUSH1 0x2 DUP3 PUSH1 0x3 DUP2 GT ISZERO PUSH2 0x1E33 JUMPI PUSH2 0x1E33 PUSH2 0x27F9 JUMP JUMPDEST SUB PUSH2 0x1E54 JUMPI PUSH1 0x40 MLOAD PUSH4 0xFCE698F7 PUSH1 0xE0 SHL DUP2 MSTORE PUSH1 0x4 DUP2 ADD DUP3 SWAP1 MSTORE PUSH1 0x24 ADD PUSH2 0x5ED JUMP JUMPDEST PUSH1 0x3 DUP3 PUSH1 0x3 DUP2 GT ISZERO PUSH2 0x1E68 JUMPI PUSH2 0x1E68 PUSH2 0x27F9 JUMP JUMPDEST SUB PUSH2 0x5C3 JUMPI PUSH1 0x40 MLOAD PUSH4 0x35E2F383 PUSH1 0xE2 SHL DUP2 MSTORE PUSH1 0x4 DUP2 ADD DUP3 SWAP1 MSTORE PUSH1 0x24 ADD PUSH2 0x5ED JUMP JUMPDEST PUSH1 0x0 PUSH1 0xFF DUP3 AND PUSH1 0x1F DUP2 GT ISZERO PUSH2 0x4F7 JUMPI PUSH1 0x40 MLOAD PUSH4 0x2CD44AC3 PUSH1 0xE2 SHL DUP2 MSTORE PUSH1 0x4 ADD PUSH1 0x40 MLOAD DUP1 SWAP2 SUB SWAP1 REVERT JUMPDEST PUSH1 0x0 DUP1 PUSH19 0x184F03E93FF9F4DAA797ED6E38ED64BF6A1F01 PUSH1 0x40 SHL DUP4 LT PUSH2 0x1EF0 JUMPI PUSH19 0x184F03E93FF9F4DAA797ED6E38ED64BF6A1F01 PUSH1 0x40 SHL DUP4 DIV SWAP3 POP PUSH1 0x40 ADD JUMPDEST PUSH14 0x4EE2D6D415B85ACEF8100000000 DUP4 LT PUSH2 0x1F1C JUMPI PUSH14 0x4EE2D6D415B85ACEF8100000000 DUP4 DIV SWAP3 POP PUSH1 0x20 ADD JUMPDEST PUSH7 0x2386F26FC10000 DUP4 LT PUSH2 0x1F3A JUMPI PUSH7 0x2386F26FC10000 DUP4 DIV SWAP3 POP PUSH1 0x10 ADD JUMPDEST PUSH4 0x5F5E100 DUP4 LT PUSH2 0x1F52 JUMPI PUSH4 0x5F5E100 DUP4 DIV SWAP3 POP PUSH1 0x8 ADD JUMPDEST PUSH2 0x2710 DUP4 LT PUSH2 0x1F66 JUMPI PUSH2 0x2710 DUP4 DIV SWAP3 POP PUSH1 0x4 ADD JUMPDEST PUSH1 0x64 DUP4 LT PUSH2 0x1F78 JUMPI PUSH1 0x64 DUP4 DIV SWAP3 POP PUSH1 0x2 ADD JUMPDEST PUSH1 0xA DUP4 LT PUSH2 0x4F7 JUMPI PUSH1 0x1 ADD SWAP3 SWAP2 POP POP JUMP JUMPDEST PUSH1 0x0 DUP1 DUP1 PUSH32 0x7FFFFFFFFFFFFFFFFFFFFFFFFFFFFFFF5D576E7357A4501DDFE92F46681B20A0 DUP5 GT ISZERO PUSH2 0x1FC4 JUMPI POP PUSH1 0x0 SWAP2 POP PUSH1 0x3 SWAP1 POP DUP3 PUSH2 0x204E JUMP JUMPDEST PUSH1 0x40 DUP1 MLOAD PUSH1 0x0 DUP1 DUP3 MSTORE PUSH1 0x20 DUP3 ADD DUP1 DUP5 MSTORE DUP11 SWAP1 MSTORE PUSH1 0xFF DUP10 AND SWAP3 DUP3 ADD SWAP3 SWAP1 SWAP3 MSTORE PUSH1 0x60 DUP2 ADD DUP8 SWAP1 MSTORE PUSH1 0x80 DUP2 ADD DUP7 SWAP1 MSTORE PUSH1 0x1 SWAP1 PUSH1 0xA0 ADD PUSH1 0x20 PUSH1 0x40 MLOAD PUSH1 0x20 DUP2 SUB SWAP1 DUP1 DUP5 SUB SWAP1 DUP6 GAS STATICCALL ISZERO DUP1 ISZERO PUSH2 0x2018 JUMPI RETURNDATASIZE PUSH1 0x0 DUP1 RETURNDATACOPY RETURNDATASIZE PUSH1 0x0 REVERT JUMPDEST POP POP PUSH1 0x40 MLOAD PUSH1 0x1F NOT ADD MLOAD SWAP2 POP POP PUSH1 0x1 PUSH1 0x1 PUSH1 0xA0 SHL SUB DUP2 AND PUSH2 0x2044 JUMPI POP PUSH1 0x0 SWAP3 POP PUSH1 0x1 SWAP2 POP DUP3 SWAP1 POP PUSH2 0x204E JUMP JUMPDEST SWAP3 POP PUSH1 0x0 SWAP2 POP DUP2 SWAP1 POP JUMPDEST SWAP5 POP SWAP5 POP SWAP5 SWAP2 POP POP JUMP JUMPDEST PUSH1 0x1 PUSH1 0x1 PUSH1 0xE0 SHL SUB NOT DUP2 AND DUP2 EQ PUSH2 0x1055 JUMPI PUSH1 0x0 DUP1 REVERT JUMPDEST PUSH1 0x0 PUSH1 0x20 DUP3 DUP5 SUB SLT ISZERO PUSH2 0x2080 JUMPI PUSH1 0x0 DUP1 REVERT JUMPDEST DUP2 CALLDATALOAD PUSH2 0x16EE DUP2 PUSH2 0x2058 JUMP JUMPDEST PUSH1 0x0 JUMPDEST DUP4 DUP2 LT ISZERO PUSH2 0x20A6 JUMPI DUP2 DUP2 ADD MLOAD DUP4 DUP3 ADD MSTORE PUSH1 0x20 ADD PUSH2 0x208E JUMP JUMPDEST POP POP PUSH1 0x0 SWAP2 ADD MSTORE JUMP JUMPDEST PUSH1 0x0 DUP2 MLOAD DUP1 DUP5 MSTORE PUSH2 0x20C7 DUP2 PUSH1 0x20 DUP7 ADD PUSH1 0x20 DUP7 ADD PUSH2 0x208B JUMP JUMPDEST PUSH1 0x1F ADD PUSH1 0x1F NOT AND SWAP3 SWAP1 SWAP3 ADD PUSH1 0x20 ADD SWAP3 SWAP2 POP POP JUMP JUMPDEST PUSH1 0x20 DUP2 MSTORE PUSH1 0x0 PUSH2 0x16EE PUSH1 0x20 DUP4 ADD DUP5 PUSH2 0x20AF JUMP JUMPDEST PUSH1 0x0 PUSH1 0x20 DUP3 DUP5 SUB SLT ISZERO PUSH2 0x2100 JUMPI PUSH1 0x0 DUP1 REVERT JUMPDEST POP CALLDATALOAD SWAP2 SWAP1 POP JUMP JUMPDEST DUP1 CALLDATALOAD PUSH1 0x1 PUSH1 0x1 PUSH1 0xA0 SHL SUB DUP2 AND DUP2 EQ PUSH2 0xEB4 JUMPI PUSH1 0x0 DUP1 REVERT JUMPDEST PUSH1 0x0 DUP1 PUSH1 0x40 DUP4 DUP6 SUB SLT ISZERO PUSH2 0x2131 JUMPI PUSH1 0x0 DUP1 REVERT JUMPDEST PUSH2 0x213A DUP4 PUSH2 0x2107 JUMP JUMPDEST SWAP5 PUSH1 0x20 SWAP4 SWAP1 SWAP4 ADD CALLDATALOAD SWAP4 POP POP POP JUMP JUMPDEST PUSH1 0x0 DUP1 PUSH1 0x0 PUSH1 0x60 DUP5 DUP7 SUB SLT ISZERO PUSH2 0x215D JUMPI PUSH1 0x0 DUP1 REVERT JUMPDEST PUSH2 0x2166 DUP5 PUSH2 0x2107 JUMP JUMPDEST SWAP3 POP PUSH2 0x2174 PUSH1 0x20 DUP6 ADD PUSH2 0x2107 JUMP JUMPDEST SWAP2 POP PUSH1 0x40 DUP5 ADD CALLDATALOAD SWAP1 POP SWAP3 POP SWAP3 POP SWAP3 JUMP JUMPDEST PUSH1 0x0 DUP1 PUSH1 0x40 DUP4 DUP6 SUB SLT ISZERO PUSH2 0x2197 JUMPI PUSH1 0x0 DUP1 REVERT JUMPDEST DUP3 CALLDATALOAD SWAP2 POP PUSH2 0x21A7 PUSH1 0x20 DUP5 ADD PUSH2 0x2107 JUMP JUMPDEST SWAP1 POP SWAP3 POP SWAP3 SWAP1 POP JUMP JUMPDEST PUSH1 0x0 DUP1 DUP4 PUSH1 0x1F DUP5 ADD SLT PUSH2 0x21C2 JUMPI PUSH1 0x0 DUP1 REVERT JUMPDEST POP DUP2 CALLDATALOAD PUSH8 0xFFFFFFFFFFFFFFFF DUP2 GT ISZERO PUSH2 0x21DA JUMPI PUSH1 0x0 DUP1 REVERT JUMPDEST PUSH1 0x20 DUP4 ADD SWAP2 POP DUP4 PUSH1 0x20 DUP3 PUSH1 0x5 SHL DUP6 ADD ADD GT ISZERO PUSH2 0x21F5 JUMPI PUSH1 0x0 DUP1 REVERT JUMPDEST SWAP3 POP SWAP3 SWAP1 POP JUMP JUMPDEST PUSH1 0x0 DUP1 PUSH1 0x0 DUP1 PUSH1 0x0 PUSH1 0x60 DUP7 DUP9 SUB SLT ISZERO PUSH2 0x2214 JUMPI PUSH1 0x0 DUP1 REVERT JUMPDEST PUSH2 0x221D DUP7 PUSH2 0x2107 JUMP JUMPDEST SWAP5 POP PUSH1 0x20 DUP7 ADD CALLDATALOAD PUSH8 0xFFFFFFFFFFFFFFFF DUP1 DUP3 GT ISZERO PUSH2 0x223A JUMPI PUSH1 0x0 DUP1 REVERT JUMPDEST PUSH2 0x2246 DUP10 DUP4 DUP11 ADD PUSH2 0x21B0 JUMP JUMPDEST SWAP1 SWAP7 POP SWAP5 POP PUSH1 0x40 DUP9 ADD CALLDATALOAD SWAP2 POP DUP1 DUP3 GT ISZERO PUSH2 0x225F JUMPI PUSH1 0x0 DUP1 REVERT JUMPDEST POP PUSH2 0x226C DUP9 DUP3 DUP10 ADD PUSH2 0x21B0 JUMP JUMPDEST SWAP7 SWAP10 SWAP6 SWAP9 POP SWAP4 SWAP7 POP SWAP3 SWAP5 SWAP4 SWAP3 POP POP POP JUMP JUMPDEST PUSH1 0x0 PUSH1 0x20 DUP3 DUP5 SUB SLT ISZERO PUSH2 0x228F JUMPI PUSH1 0x0 DUP1 REVERT JUMPDEST PUSH2 0x16EE DUP3 PUSH2 0x2107 JUMP JUMPDEST PUSH1 0xFF PUSH1 0xF8 SHL DUP9 AND DUP2 MSTORE PUSH1 0x0 PUSH1 0x20 PUSH1 0xE0 DUP2 DUP5 ADD MSTORE PUSH2 0x22B8 PUSH1 0xE0 DUP5 ADD DUP11 PUSH2 0x20AF JUMP JUMPDEST DUP4 DUP2 SUB PUSH1 0x40 DUP6 ADD MSTORE PUSH2 0x22CA DUP2 DUP11 PUSH2 0x20AF JUMP JUMPDEST PUSH1 0x60 DUP6 ADD DUP10 SWAP1 MSTORE PUSH1 0x1 PUSH1 0x1 PUSH1 0xA0 SHL SUB DUP9 AND PUSH1 0x80 DUP7 ADD MSTORE PUSH1 0xA0 DUP6 ADD DUP8 SWAP1 MSTORE DUP5 DUP2 SUB PUSH1 0xC0 DUP7 ADD MSTORE DUP6 MLOAD DUP1 DUP3 MSTORE DUP4 DUP8 ADD SWAP3 POP SWAP1 DUP4 ADD SWAP1 PUSH1 0x0 JUMPDEST DUP2 DUP2 LT ISZERO PUSH2 0x231C JUMPI DUP4 MLOAD DUP4 MSTORE SWAP3 DUP5 ADD SWAP3 SWAP2 DUP5 ADD SWAP2 PUSH1 0x1 ADD PUSH2 0x2300 JUMP JUMPDEST POP SWAP1 SWAP13 SWAP12 POP POP POP POP POP POP POP POP POP POP POP POP JUMP JUMPDEST PUSH1 0x0 DUP1 PUSH1 0x40 DUP4 DUP6 SUB SLT ISZERO PUSH2 0x2341 JUMPI PUSH1 0x0 DUP1 REVERT JUMPDEST PUSH2 0x234A DUP4 PUSH2 0x2107 JUMP JUMPDEST SWAP2 POP PUSH1 0x20 DUP4 ADD CALLDATALOAD DUP1 ISZERO ISZERO DUP2 EQ PUSH2 0x235F JUMPI PUSH1 0x0 DUP1 REVERT JUMPDEST DUP1 SWAP2 POP POP SWAP3 POP SWAP3 SWAP1 POP JUMP JUMPDEST PUSH4 0x4E487B71 PUSH1 0xE0 SHL PUSH1 0x0 MSTORE PUSH1 0x41 PUSH1 0x4 MSTORE PUSH1 0x24 PUSH1 0x0 REVERT JUMPDEST PUSH1 0x0 PUSH8 0xFFFFFFFFFFFFFFFF DUP1 DUP5 GT ISZERO PUSH2 0x239B JUMPI PUSH2 0x239B PUSH2 0x236A JUMP JUMPDEST PUSH1 0x40 MLOAD PUSH1 0x1F DUP6 ADD PUSH1 0x1F NOT SWAP1 DUP2 AND PUSH1 0x3F ADD AND DUP2 ADD SWAP1 DUP3 DUP3 GT DUP2 DUP4 LT OR ISZERO PUSH2 0x23C3 JUMPI PUSH2 0x23C3 PUSH2 0x236A JUMP JUMPDEST DUP2 PUSH1 0x40 MSTORE DUP1 SWAP4 POP DUP6 DUP2 MSTORE DUP7 DUP7 DUP7 ADD GT ISZERO PUSH2 0x23DC JUMPI PUSH1 0x0 DUP1 REVERT JUMPDEST DUP6 DUP6 PUSH1 0x20 DUP4 ADD CALLDATACOPY PUSH1 0x0 PUSH1 0x20 DUP8 DUP4 ADD ADD MSTORE POP POP POP SWAP4 SWAP3 POP POP POP JUMP JUMPDEST PUSH1 0x0 DUP1 PUSH1 0x0 DUP1 PUSH1 0x80 DUP6 DUP8 SUB SLT ISZERO PUSH2 0x240C JUMPI PUSH1 0x0 DUP1 REVERT JUMPDEST PUSH2 0x2415 DUP6 PUSH2 0x2107 JUMP JUMPDEST SWAP4 POP PUSH2 0x2423 PUSH1 0x20 DUP7 ADD PUSH2 0x2107 JUMP JUMPDEST SWAP3 POP PUSH1 0x40 DUP6 ADD CALLDATALOAD SWAP2 POP PUSH1 0x60 DUP6 ADD CALLDATALOAD PUSH8 0xFFFFFFFFFFFFFFFF DUP2 GT ISZERO PUSH2 0x2446 JUMPI PUSH1 0x0 DUP1 REVERT JUMPDEST DUP6 ADD PUSH1 0x1F DUP2 ADD DUP8 SGT PUSH2 0x2457 JUMPI PUSH1 0x0 DUP1 REVERT JUMPDEST PUSH2 0x2466 DUP8 DUP3 CALLDATALOAD PUSH1 0x20 DUP5 ADD PUSH2 0x2380 JUMP JUMPDEST SWAP2 POP POP SWAP3 SWAP6 SWAP2 SWAP5 POP SWAP3 POP JUMP JUMPDEST PUSH1 0x0 DUP1 PUSH1 0x0 PUSH1 0x60 DUP5 DUP7 SUB SLT ISZERO PUSH2 0x2487 JUMPI PUSH1 0x0 DUP1 REVERT JUMPDEST PUSH2 0x2490 DUP5 PUSH2 0x2107 JUMP JUMPDEST SWAP3 POP PUSH1 0x20 DUP5 ADD CALLDATALOAD PUSH8 0xFFFFFFFFFFFFFFFF DUP2 GT ISZERO PUSH2 0x24AC JUMPI PUSH1 0x0 DUP1 REVERT JUMPDEST DUP5 ADD PUSH1 0x1F DUP2 ADD DUP7 SGT PUSH2 0x24BD JUMPI PUSH1 0x0 DUP1 REVERT JUMPDEST PUSH2 0x24CC DUP7 DUP3 CALLDATALOAD PUSH1 0x20 DUP5 ADD PUSH2 0x2380 JUMP JUMPDEST SWAP3 POP POP PUSH1 0x40 DUP5 ADD CALLDATALOAD SWAP1 POP SWAP3 POP SWAP3 POP SWAP3 JUMP JUMPDEST PUSH1 0x0 PUSH1 0x20 DUP3 DUP5 SUB SLT ISZERO PUSH2 0x24EF JUMPI PUSH1 0x0 DUP1 REVERT JUMPDEST DUP2 CALLDATALOAD PUSH8 0xFFFFFFFFFFFFFFFF DUP2 GT ISZERO PUSH2 0x2506 JUMPI PUSH1 0x0 DUP1 REVERT JUMPDEST DUP3 ADD PUSH1 0xC0 DUP2 DUP6 SUB SLT ISZERO PUSH2 0x16EE JUMPI PUSH1 0x0 DUP1 REVERT JUMPDEST PUSH1 0x0 DUP1 PUSH1 0x40 DUP4 DUP6 SUB SLT ISZERO PUSH2 0x252B JUMPI PUSH1 0x0 DUP1 REVERT JUMPDEST PUSH2 0x2534 DUP4 PUSH2 0x2107 JUMP JUMPDEST SWAP2 POP PUSH2 0x21A7 PUSH1 0x20 DUP5 ADD PUSH2 0x2107 JUMP JUMPDEST PUSH1 0x1 DUP2 DUP2 SHR SWAP1 DUP3 AND DUP1 PUSH2 0x2556 JUMPI PUSH1 0x7F DUP3 AND SWAP2 POP JUMPDEST PUSH1 0x20 DUP3 LT DUP2 SUB PUSH2 0x2576 JUMPI PUSH4 0x4E487B71 PUSH1 0xE0 SHL PUSH1 0x0 MSTORE PUSH1 0x22 PUSH1 0x4 MSTORE PUSH1 0x24 PUSH1 0x0 REVERT JUMPDEST POP SWAP2 SWAP1 POP JUMP JUMPDEST PUSH1 0x20 DUP1 DUP3 MSTORE PUSH1 0x11 SWAP1 DUP3 ADD MSTORE PUSH17 0x125B9D985B1A59081C9958DA5C1A595B9D PUSH1 0x7A SHL PUSH1 0x40 DUP3 ADD MSTORE PUSH1 0x60 ADD SWAP1 JUMP JUMPDEST PUSH1 0x0 PUSH1 0x1 DUP3 ADD PUSH2 0x25C7 JUMPI PUSH4 0x4E487B71 PUSH1 0xE0 SHL PUSH1 0x0 MSTORE PUSH1 0x11 PUSH1 0x4 MSTORE PUSH1 0x24 PUSH1 0x0 REVERT JUMPDEST POP PUSH1 0x1 ADD SWAP1 JUMP JUMPDEST PUSH4 0x4E487B71 PUSH1 0xE0 SHL PUSH1 0x0 MSTORE PUSH1 0x32 PUSH1 0x4 MSTORE PUSH1 0x24 PUSH1 0x0 REVERT JUMPDEST PUSH1 0x0 DUP1 DUP4 CALLDATALOAD PUSH1 0x1E NOT DUP5 CALLDATASIZE SUB ADD DUP2 SLT PUSH2 0x25FB JUMPI PUSH1 0x0 DUP1 REVERT JUMPDEST DUP4 ADD DUP1 CALLDATALOAD SWAP2 POP PUSH8 0xFFFFFFFFFFFFFFFF DUP3 GT ISZERO PUSH2 0x2616 JUMPI PUSH1 0x0 DUP1 REVERT JUMPDEST PUSH1 0x20 ADD SWAP2 POP CALLDATASIZE DUP2 SWAP1 SUB DUP3 SGT ISZERO PUSH2 0x21F5 JUMPI PUSH1 0x0 DUP1 REVERT JUMPDEST PUSH1 0x20 DUP2 MSTORE DUP2 PUSH1 0x20 DUP3 ADD MSTORE DUP2 DUP4 PUSH1 0x40 DUP4 ADD CALLDATACOPY PUSH1 0x0 DUP2 DUP4 ADD PUSH1 0x40 SWAP1 DUP2 ADD SWAP2 SWAP1 SWAP2 MSTORE PUSH1 0x1F SWAP1 SWAP3 ADD PUSH1 0x1F NOT AND ADD ADD SWAP2 SWAP1 POP JUMP JUMPDEST PUSH1 0x1F DUP3 GT ISZERO PUSH2 0x6AF JUMPI PUSH1 0x0 DUP2 DUP2 MSTORE PUSH1 0x20 DUP2 KECCAK256 PUSH1 0x1F DUP6 ADD PUSH1 0x5 SHR DUP2 ADD PUSH1 0x20 DUP7 LT ISZERO PUSH2 0x2681 JUMPI POP DUP1 JUMPDEST PUSH1 0x1F DUP6 ADD PUSH1 0x5 SHR DUP3 ADD SWAP2 POP JUMPDEST DUP2 DUP2 LT ISZERO PUSH2 0x95F JUMPI DUP3 DUP2 SSTORE PUSH1 0x1 ADD PUSH2 0x268D JUMP JUMPDEST DUP2 MLOAD PUSH8 0xFFFFFFFFFFFFFFFF DUP2 GT ISZERO PUSH2 0x26BA JUMPI PUSH2 0x26BA PUSH2 0x236A JUMP JUMPDEST PUSH2 0x26CE DUP2 PUSH2 0x26C8 DUP5 SLOAD PUSH2 0x2542 JUMP JUMPDEST DUP5 PUSH2 0x265A JUMP JUMPDEST PUSH1 0x20 DUP1 PUSH1 0x1F DUP4 GT PUSH1 0x1 DUP2 EQ PUSH2 0x2703 JUMPI PUSH1 0x0 DUP5 ISZERO PUSH2 0x26EB JUMPI POP DUP6 DUP4 ADD MLOAD JUMPDEST PUSH1 0x0 NOT PUSH1 0x3 DUP7 SWAP1 SHL SHR NOT AND PUSH1 0x1 DUP6 SWAP1 SHL OR DUP6 SSTORE PUSH2 0x95F JUMP JUMPDEST PUSH1 0x0 DUP6 DUP2 MSTORE PUSH1 0x20 DUP2 KECCAK256 PUSH1 0x1F NOT DUP7 AND SWAP2 JUMPDEST DUP3 DUP2 LT ISZERO PUSH2 0x2732 JUMPI DUP9 DUP7 ADD MLOAD DUP3 SSTORE SWAP5 DUP5 ADD SWAP5 PUSH1 0x1 SWAP1 SWAP2 ADD SWAP1 DUP5 ADD PUSH2 0x2713 JUMP JUMPDEST POP DUP6 DUP3 LT ISZERO PUSH2 0x2750 JUMPI DUP8 DUP6 ADD MLOAD PUSH1 0x0 NOT PUSH1 0x3 DUP9 SWAP1 SHL PUSH1 0xF8 AND SHR NOT AND DUP2 SSTORE JUMPDEST POP POP POP POP POP PUSH1 0x1 SWAP1 DUP2 SHL ADD SWAP1 SSTORE POP JUMP JUMPDEST PUSH1 0x1 PUSH1 0x1 PUSH1 0xA0 SHL SUB DUP6 DUP2 AND DUP3 MSTORE DUP5 AND PUSH1 0x20 DUP3 ADD MSTORE PUSH1 0x40 DUP2 ADD DUP4 SWAP1 MSTORE PUSH1 0x80 PUSH1 0x60 DUP3 ADD DUP2 SWAP1 MSTORE PUSH1 0x0 SWAP1 PUSH2 0x2793 SWAP1 DUP4 ADD DUP5 PUSH2 0x20AF JUMP JUMPDEST SWAP7 SWAP6 POP POP POP POP POP POP JUMP JUMPDEST PUSH1 0x0 PUSH1 0x20 DUP3 DUP5 SUB SLT ISZERO PUSH2 0x27AF JUMPI PUSH1 0x0 DUP1 REVERT JUMPDEST DUP2 MLOAD PUSH2 0x16EE DUP2 PUSH2 0x2058 JUMP JUMPDEST PUSH1 0x0 DUP4 MLOAD PUSH2 0x27CC DUP2 DUP5 PUSH1 0x20 DUP9 ADD PUSH2 0x208B JUMP JUMPDEST DUP4 MLOAD SWAP1 DUP4 ADD SWAP1 PUSH2 0x27E0 DUP2 DUP4 PUSH1 0x20 DUP9 ADD PUSH2 0x208B JUMP JUMPDEST ADD SWAP5 SWAP4 POP POP POP POP JUMP JUMPDEST DUP2 DUP4 DUP3 CALLDATACOPY PUSH1 0x0 SWAP2 ADD SWAP1 DUP2 MSTORE SWAP2 SWAP1 POP JUMP JUMPDEST PUSH4 0x4E487B71 PUSH1 0xE0 SHL PUSH1 0x0 MSTORE PUSH1 0x21 PUSH1 0x4 MSTORE PUSH1 0x24 PUSH1 0x0 REVERT INVALID SWAP16 0x2D CREATE INVALID 0xD2 0xC7 PUSH23 0x48DE5860A4CC508CD0818C85B8B8A1AB4CEEEF8D981C89 JUMP 0xA6 LOG2 PUSH5 0x6970667358 0x22 SLT KECCAK256 RETURNDATASIZE 0x49 0xC5 SWAP8 0xA6 CALLDATACOPY PUSH4 0xBA6C3268 SWAP5 0xAE 0xEC SWAP14 0xBE 0xEF ISZERO 0xA8 ADDMOD 0xE5 0xBE CALLER PUSH28 0x919590013811A63264736F6C63430008140033000000000000000000 "},"methodIdentifiers":{"ADMIN_ROLE()":"75b238fc","DEFAULT_ADMIN_ROLE()":"a217fddf","MINTER_ROLE()":"d5391393","approve(address,uint256)":"095ea7b3","balanceOf(address)":"70a08231","batchMint(address,string[],uint256[])":"650bcee0","burn(uint256)":"42966c68","eip712Domain()":"84b0196e","getApproved(uint256)":"081812fc","getNextTokenId()":"caa0f92a","getReceiptId(uint256)":"828edbce","getRoleAdmin(bytes32)":"248a9ca3","grantRole(bytes32,address)":"2f2ff15d","hasRole(bytes32,address)":"91d14854","isApprovedForAll(address,address)":"e985e9c5","isMinted(uint256)":"33c41a90","isNonceUsed(uint256)":"5d00bb12","lazyMint((uint256,string,address,uint256,uint256,bytes))":"e70095a3","mint(address,string,uint256)":"ba7aef43","name()":"06fdde03","ownerOf(uint256)":"6352211e","pause()":"8456cb59","paused()":"5c975abb","renounceRole(bytes32,address)":"36568abe","revokeRole(bytes32,address)":"d547741f","safeTransferFrom(address,address,uint256)":"42842e0e","safeTransferFrom(address,address,uint256,bytes)":"b88d4fde","setApprovalForAll(address,bool)":"a22cb465","supportsInterface(bytes4)":"01ffc9a7","symbol()":"95d89b41","tokenIdToReceiptId(uint256)":"19ab5b60","tokenURI(uint256)":"c87b56dd","transferFrom(address,address,uint256)":"23b872dd","unpause()":"3f4ba83a"}}}}}